{
  "contractName": "WildcardSteward_v3_matic",
  "abi": [
    {
      "anonymous": false,
      "inputs": [
        {
          "indexed": true,
          "internalType": "uint256",
          "name": "tokenId",
          "type": "uint256"
        },
        {
          "indexed": false,
          "internalType": "uint256",
          "name": "patronageNumerator",
          "type": "uint256"
        },
        {
          "indexed": false,
          "internalType": "uint256",
          "name": "unixTimestampOfTokenAuctionStart",
          "type": "uint256"
        }
      ],
      "name": "AddTokenV3",
      "type": "event"
    },
    {
      "anonymous": false,
      "inputs": [
        {
          "indexed": true,
          "internalType": "uint256",
          "name": "tokenId",
          "type": "uint256"
        },
        {
          "indexed": false,
          "internalType": "address",
          "name": "artist",
          "type": "address"
        },
        {
          "indexed": false,
          "internalType": "uint256",
          "name": "artistCommission",
          "type": "uint256"
        }
      ],
      "name": "ArtistCommission",
      "type": "event"
    },
    {
      "anonymous": false,
      "inputs": [
        {
          "indexed": true,
          "internalType": "uint256",
          "name": "tokenId",
          "type": "uint256"
        },
        {
          "indexed": true,
          "internalType": "address",
          "name": "owner",
          "type": "address"
        },
        {
          "indexed": false,
          "internalType": "uint256",
          "name": "price",
          "type": "uint256"
        }
      ],
      "name": "Buy",
      "type": "event"
    },
    {
      "anonymous": false,
      "inputs": [],
      "name": "ChangeAuctionParameters",
      "type": "event"
    },
    {
      "anonymous": false,
      "inputs": [
        {
          "indexed": true,
          "internalType": "address",
          "name": "patron",
          "type": "address"
        },
        {
          "indexed": false,
          "internalType": "uint256",
          "name": "amountRecieved",
          "type": "uint256"
        }
      ],
      "name": "CollectLoyalty",
      "type": "event"
    },
    {
      "anonymous": false,
      "inputs": [
        {
          "indexed": true,
          "internalType": "uint256",
          "name": "tokenId",
          "type": "uint256"
        },
        {
          "indexed": true,
          "internalType": "address",
          "name": "patron",
          "type": "address"
        },
        {
          "indexed": false,
          "internalType": "uint256",
          "name": "remainingDeposit",
          "type": "uint256"
        },
        {
          "indexed": false,
          "internalType": "uint256",
          "name": "amountReceived",
          "type": "uint256"
        }
      ],
      "name": "CollectPatronage",
      "type": "event"
    },
    {
      "anonymous": false,
      "inputs": [
        {
          "indexed": true,
          "internalType": "address",
          "name": "prevOwner",
          "type": "address"
        },
        {
          "indexed": false,
          "internalType": "uint256",
          "name": "foreclosureTime",
          "type": "uint256"
        }
      ],
      "name": "Foreclosure",
      "type": "event"
    },
    {
      "anonymous": false,
      "inputs": [
        {
          "indexed": false,
          "internalType": "address",
          "name": "userAddress",
          "type": "address"
        },
        {
          "indexed": false,
          "internalType": "address payable",
          "name": "relayerAddress",
          "type": "address"
        },
        {
          "indexed": false,
          "internalType": "bytes",
          "name": "functionSignature",
          "type": "bytes"
        }
      ],
      "name": "MetaTransactionExecuted",
      "type": "event"
    },
    {
      "anonymous": false,
      "inputs": [
        {
          "indexed": true,
          "internalType": "uint256",
          "name": "tokenId",
          "type": "uint256"
        },
        {
          "indexed": false,
          "internalType": "uint256",
          "name": "newPrice",
          "type": "uint256"
        }
      ],
      "name": "PriceChange",
      "type": "event"
    },
    {
      "anonymous": false,
      "inputs": [
        {
          "indexed": true,
          "internalType": "address",
          "name": "tokenPatron",
          "type": "address"
        },
        {
          "indexed": false,
          "internalType": "uint256",
          "name": "remainingDeposit",
          "type": "uint256"
        }
      ],
      "name": "RemainingDepositUpdate",
      "type": "event"
    },
    {
      "anonymous": false,
      "inputs": [
        {
          "indexed": false,
          "internalType": "address",
          "name": "sender",
          "type": "address"
        },
        {
          "indexed": false,
          "internalType": "address",
          "name": "paymentTokenAdr",
          "type": "address"
        },
        {
          "indexed": false,
          "internalType": "address",
          "name": "randomArg",
          "type": "address"
        }
      ],
      "name": "TestEvent",
      "type": "event"
    },
    {
      "anonymous": false,
      "inputs": [],
      "name": "UpgradeToV3",
      "type": "event"
    },
    {
      "anonymous": false,
      "inputs": [
        {
          "indexed": true,
          "internalType": "address",
          "name": "benefactor",
          "type": "address"
        },
        {
          "indexed": false,
          "internalType": "uint256",
          "name": "withdrawAmount",
          "type": "uint256"
        }
      ],
      "name": "WithdrawBenefactorFunds",
      "type": "event"
    },
    {
      "anonymous": false,
      "inputs": [
        {
          "indexed": true,
          "internalType": "address",
          "name": "benefactor",
          "type": "address"
        },
        {
          "indexed": false,
          "internalType": "uint256",
          "name": "withdrawAmount",
          "type": "uint256"
        }
      ],
      "name": "WithdrawBenefactorFundsWithSafetyDelay",
      "type": "event"
    },
    {
      "inputs": [],
      "name": "admin",
      "outputs": [
        {
          "internalType": "address",
          "name": "",
          "type": "address"
        }
      ],
      "stateMutability": "view",
      "type": "function",
      "constant": true
    },
    {
      "inputs": [
        {
          "internalType": "uint256",
          "name": "",
          "type": "uint256"
        }
      ],
      "name": "artistAddresses",
      "outputs": [
        {
          "internalType": "address",
          "name": "",
          "type": "address"
        }
      ],
      "stateMutability": "view",
      "type": "function",
      "constant": true
    },
    {
      "inputs": [
        {
          "internalType": "uint256",
          "name": "",
          "type": "uint256"
        }
      ],
      "name": "artistPercentages",
      "outputs": [
        {
          "internalType": "uint256",
          "name": "",
          "type": "uint256"
        }
      ],
      "stateMutability": "view",
      "type": "function",
      "constant": true
    },
    {
      "inputs": [],
      "name": "assetToken",
      "outputs": [
        {
          "internalType": "contract IERC721Patronage",
          "name": "",
          "type": "address"
        }
      ],
      "stateMutability": "view",
      "type": "function",
      "constant": true
    },
    {
      "inputs": [],
      "name": "auctionEndPrice",
      "outputs": [
        {
          "internalType": "uint256",
          "name": "",
          "type": "uint256"
        }
      ],
      "stateMutability": "view",
      "type": "function",
      "constant": true
    },
    {
      "inputs": [],
      "name": "auctionLength",
      "outputs": [
        {
          "internalType": "uint256",
          "name": "",
          "type": "uint256"
        }
      ],
      "stateMutability": "view",
      "type": "function",
      "constant": true
    },
    {
      "inputs": [],
      "name": "auctionStartPrice",
      "outputs": [
        {
          "internalType": "uint256",
          "name": "",
          "type": "uint256"
        }
      ],
      "stateMutability": "view",
      "type": "function",
      "constant": true
    },
    {
      "inputs": [
        {
          "internalType": "address",
          "name": "",
          "type": "address"
        }
      ],
      "name": "benefactorCredit",
      "outputs": [
        {
          "internalType": "uint256",
          "name": "",
          "type": "uint256"
        }
      ],
      "stateMutability": "view",
      "type": "function",
      "constant": true
    },
    {
      "inputs": [
        {
          "internalType": "address",
          "name": "",
          "type": "address"
        }
      ],
      "name": "benefactorFunds",
      "outputs": [
        {
          "internalType": "uint256",
          "name": "",
          "type": "uint256"
        }
      ],
      "stateMutability": "view",
      "type": "function",
      "constant": true
    },
    {
      "inputs": [
        {
          "internalType": "uint256",
          "name": "",
          "type": "uint256"
        }
      ],
      "name": "benefactors",
      "outputs": [
        {
          "internalType": "address",
          "name": "",
          "type": "address"
        }
      ],
      "stateMutability": "view",
      "type": "function",
      "constant": true
    },
    {
      "inputs": [
        {
          "internalType": "address",
          "name": "",
          "type": "address"
        }
      ],
      "name": "deposit",
      "outputs": [
        {
          "internalType": "uint256",
          "name": "",
          "type": "uint256"
        }
      ],
      "stateMutability": "view",
      "type": "function",
      "constant": true
    },
    {
      "inputs": [
        {
          "internalType": "address",
          "name": "userAddress",
          "type": "address"
        },
        {
          "internalType": "bytes",
          "name": "functionSignature",
          "type": "bytes"
        },
        {
          "internalType": "bytes32",
          "name": "sigR",
          "type": "bytes32"
        },
        {
          "internalType": "bytes32",
          "name": "sigS",
          "type": "bytes32"
        },
        {
          "internalType": "uint8",
          "name": "sigV",
          "type": "uint8"
        }
      ],
      "name": "executeMetaTransaction",
      "outputs": [
        {
          "internalType": "bytes",
          "name": "",
          "type": "bytes"
        }
      ],
      "stateMutability": "payable",
      "type": "function",
      "payable": true
    },
    {
      "inputs": [],
      "name": "getChainID",
      "outputs": [
        {
          "internalType": "uint256",
          "name": "",
          "type": "uint256"
        }
      ],
      "stateMutability": "pure",
      "type": "function",
      "constant": true
    },
    {
      "inputs": [
        {
          "internalType": "address",
          "name": "user",
          "type": "address"
        }
      ],
      "name": "getNonce",
      "outputs": [
        {
          "internalType": "uint256",
          "name": "nonce",
          "type": "uint256"
        }
      ],
      "stateMutability": "view",
      "type": "function",
      "constant": true
    },
    {
      "inputs": [],
      "name": "globalTokenGenerationRate",
      "outputs": [
        {
          "internalType": "uint256",
          "name": "",
          "type": "uint256"
        }
      ],
      "stateMutability": "view",
      "type": "function",
      "constant": true
    },
    {
      "inputs": [],
      "name": "mintManager",
      "outputs": [
        {
          "internalType": "contract IMintManager",
          "name": "",
          "type": "address"
        }
      ],
      "stateMutability": "view",
      "type": "function",
      "constant": true
    },
    {
      "inputs": [],
      "name": "patronageDenominator",
      "outputs": [
        {
          "internalType": "uint256",
          "name": "",
          "type": "uint256"
        }
      ],
      "stateMutability": "view",
      "type": "function",
      "constant": true
    },
    {
      "inputs": [
        {
          "internalType": "uint256",
          "name": "",
          "type": "uint256"
        }
      ],
      "name": "patronageNumerator",
      "outputs": [
        {
          "internalType": "uint256",
          "name": "",
          "type": "uint256"
        }
      ],
      "stateMutability": "view",
      "type": "function",
      "constant": true
    },
    {
      "inputs": [],
      "name": "paymentToken",
      "outputs": [
        {
          "internalType": "contract IERC20Mintable",
          "name": "",
          "type": "address"
        }
      ],
      "stateMutability": "view",
      "type": "function",
      "constant": true
    },
    {
      "inputs": [
        {
          "internalType": "uint256",
          "name": "",
          "type": "uint256"
        }
      ],
      "name": "price",
      "outputs": [
        {
          "internalType": "uint256",
          "name": "",
          "type": "uint256"
        }
      ],
      "stateMutability": "view",
      "type": "function",
      "constant": true
    },
    {
      "inputs": [
        {
          "internalType": "uint256",
          "name": "",
          "type": "uint256"
        }
      ],
      "name": "serviceProviderPercentages",
      "outputs": [
        {
          "internalType": "uint256",
          "name": "",
          "type": "uint256"
        }
      ],
      "stateMutability": "view",
      "type": "function",
      "constant": true
    },
    {
      "inputs": [
        {
          "internalType": "uint256",
          "name": "",
          "type": "uint256"
        }
      ],
      "name": "state",
      "outputs": [
        {
          "internalType": "enum WildcardSteward_v3_matic.StewardState",
          "name": "",
          "type": "uint8"
        }
      ],
      "stateMutability": "view",
      "type": "function",
      "constant": true
    },
    {
      "inputs": [
        {
          "internalType": "address",
          "name": "",
          "type": "address"
        }
      ],
      "name": "timeLastCollectedBenefactor",
      "outputs": [
        {
          "internalType": "uint256",
          "name": "",
          "type": "uint256"
        }
      ],
      "stateMutability": "view",
      "type": "function",
      "constant": true
    },
    {
      "inputs": [
        {
          "internalType": "address",
          "name": "",
          "type": "address"
        }
      ],
      "name": "timeLastCollectedPatron",
      "outputs": [
        {
          "internalType": "uint256",
          "name": "",
          "type": "uint256"
        }
      ],
      "stateMutability": "view",
      "type": "function",
      "constant": true
    },
    {
      "inputs": [
        {
          "internalType": "uint256",
          "name": "",
          "type": "uint256"
        }
      ],
      "name": "tokenAuctionBeginTimestamp",
      "outputs": [
        {
          "internalType": "uint256",
          "name": "",
          "type": "uint256"
        }
      ],
      "stateMutability": "view",
      "type": "function",
      "constant": true
    },
    {
      "inputs": [
        {
          "internalType": "address",
          "name": "",
          "type": "address"
        }
      ],
      "name": "totalBenefactorTokenNumerator",
      "outputs": [
        {
          "internalType": "uint256",
          "name": "",
          "type": "uint256"
        }
      ],
      "stateMutability": "view",
      "type": "function",
      "constant": true
    },
    {
      "inputs": [
        {
          "internalType": "address",
          "name": "",
          "type": "address"
        }
      ],
      "name": "totalPatronOwnedTokenCost",
      "outputs": [
        {
          "internalType": "uint256",
          "name": "",
          "type": "uint256"
        }
      ],
      "stateMutability": "view",
      "type": "function",
      "constant": true
    },
    {
      "inputs": [
        {
          "internalType": "address",
          "name": "",
          "type": "address"
        }
      ],
      "name": "totalPatronTokenGenerationRate",
      "outputs": [
        {
          "internalType": "uint256",
          "name": "",
          "type": "uint256"
        }
      ],
      "stateMutability": "view",
      "type": "function",
      "constant": true
    },
    {
      "inputs": [
        {
          "internalType": "address",
          "name": "owner",
          "type": "address"
        },
        {
          "internalType": "uint256",
          "name": "nonce",
          "type": "uint256"
        },
        {
          "internalType": "uint256",
          "name": "chainID",
          "type": "uint256"
        },
        {
          "internalType": "bytes",
          "name": "functionSignature",
          "type": "bytes"
        },
        {
          "internalType": "bytes32",
          "name": "sigR",
          "type": "bytes32"
        },
        {
          "internalType": "bytes32",
          "name": "sigS",
          "type": "bytes32"
        },
        {
          "internalType": "uint8",
          "name": "sigV",
          "type": "uint8"
        }
      ],
      "name": "verify",
      "outputs": [
        {
          "internalType": "bool",
          "name": "",
          "type": "bool"
        }
      ],
      "stateMutability": "view",
      "type": "function",
      "constant": true
    },
    {
      "inputs": [],
      "name": "withdrawCheckerAdmin",
      "outputs": [
        {
          "internalType": "address",
          "name": "",
          "type": "address"
        }
      ],
      "stateMutability": "view",
      "type": "function",
      "constant": true
    },
    {
      "inputs": [
        {
          "internalType": "uint256",
          "name": "",
          "type": "uint256"
        }
      ],
      "name": "withdrawalNonceUsed",
      "outputs": [
        {
          "internalType": "bool",
          "name": "",
          "type": "bool"
        }
      ],
      "stateMutability": "view",
      "type": "function",
      "constant": true
    },
    {
      "inputs": [],
      "name": "yearTimePatronagDenominator",
      "outputs": [
        {
          "internalType": "uint256",
          "name": "",
          "type": "uint256"
        }
      ],
      "stateMutability": "view",
      "type": "function",
      "constant": true
    },
    {
      "inputs": [
        {
          "internalType": "address",
          "name": "_assetToken",
          "type": "address"
        },
        {
          "internalType": "address",
          "name": "_admin",
          "type": "address"
        },
        {
          "internalType": "address",
          "name": "_mintManager",
          "type": "address"
        },
        {
          "internalType": "address",
          "name": "_withdrawCheckerAdmin",
          "type": "address"
        },
        {
          "internalType": "uint256",
          "name": "_auctionStartPrice",
          "type": "uint256"
        },
        {
          "internalType": "uint256",
          "name": "_auctionEndPrice",
          "type": "uint256"
        },
        {
          "internalType": "uint256",
          "name": "_auctionLength",
          "type": "uint256"
        },
        {
          "internalType": "address",
          "name": "_paymentToken",
          "type": "address"
        }
      ],
      "name": "initialize",
      "outputs": [],
      "stateMutability": "nonpayable",
      "type": "function"
    },
    {
      "inputs": [
        {
          "internalType": "uint256[]",
          "name": "tokens",
          "type": "uint256[]"
        },
        {
          "internalType": "address[]",
          "name": "_benefactors",
          "type": "address[]"
        },
        {
          "internalType": "uint256[]",
          "name": "_patronageNumerator",
          "type": "uint256[]"
        },
        {
          "internalType": "address[]",
          "name": "_artists",
          "type": "address[]"
        },
        {
          "internalType": "uint256[]",
          "name": "_artistCommission",
          "type": "uint256[]"
        },
        {
          "internalType": "uint256[]",
          "name": "_releaseDate",
          "type": "uint256[]"
        }
      ],
      "name": "listNewTokens",
      "outputs": [],
      "stateMutability": "nonpayable",
      "type": "function"
    },
    {
      "inputs": [
        {
          "internalType": "uint256",
          "name": "tokenId",
          "type": "uint256"
        },
        {
          "internalType": "address",
          "name": "_newReceivingBenefactor",
          "type": "address"
        }
      ],
      "name": "changeReceivingBenefactor",
      "outputs": [],
      "stateMutability": "nonpayable",
      "type": "function"
    },
    {
      "inputs": [
        {
          "internalType": "address",
          "name": "oldBenfactor",
          "type": "address"
        },
        {
          "internalType": "address",
          "name": "_newReceivingBenefactor",
          "type": "address"
        }
      ],
      "name": "changeReceivingBenefactorDeposit",
      "outputs": [],
      "stateMutability": "nonpayable",
      "type": "function"
    },
    {
      "inputs": [
        {
          "internalType": "address",
          "name": "_admin",
          "type": "address"
        }
      ],
      "name": "changeAdmin",
      "outputs": [],
      "stateMutability": "nonpayable",
      "type": "function"
    },
    {
      "inputs": [
        {
          "internalType": "address",
          "name": "_withdrawCheckerAdmin",
          "type": "address"
        }
      ],
      "name": "changeWithdrawCheckerAdmin",
      "outputs": [],
      "stateMutability": "nonpayable",
      "type": "function"
    },
    {
      "inputs": [
        {
          "internalType": "uint256",
          "name": "tokenId",
          "type": "uint256"
        },
        {
          "internalType": "address",
          "name": "artistAddress",
          "type": "address"
        },
        {
          "internalType": "uint256",
          "name": "percentage",
          "type": "uint256"
        }
      ],
      "name": "changeArtistAddressAndCommission",
      "outputs": [],
      "stateMutability": "nonpayable",
      "type": "function"
    },
    {
      "inputs": [
        {
          "internalType": "uint256",
          "name": "_auctionStartPrice",
          "type": "uint256"
        },
        {
          "internalType": "uint256",
          "name": "_auctionEndPrice",
          "type": "uint256"
        },
        {
          "internalType": "uint256",
          "name": "_auctionLength",
          "type": "uint256"
        }
      ],
      "name": "changeAuctionParameters",
      "outputs": [],
      "stateMutability": "nonpayable",
      "type": "function"
    },
    {
      "inputs": [
        {
          "internalType": "address",
          "name": "tokenPatron",
          "type": "address"
        }
      ],
      "name": "patronageOwedPatron",
      "outputs": [
        {
          "internalType": "uint256",
          "name": "patronageDue",
          "type": "uint256"
        }
      ],
      "stateMutability": "view",
      "type": "function",
      "constant": true
    },
    {
      "inputs": [
        {
          "internalType": "address",
          "name": "benefactor",
          "type": "address"
        }
      ],
      "name": "patronageDueBenefactor",
      "outputs": [
        {
          "internalType": "uint256",
          "name": "payoutDue",
          "type": "uint256"
        }
      ],
      "stateMutability": "view",
      "type": "function",
      "constant": true
    },
    {
      "inputs": [
        {
          "internalType": "address",
          "name": "tokenPatron",
          "type": "address"
        }
      ],
      "name": "foreclosedPatron",
      "outputs": [
        {
          "internalType": "bool",
          "name": "",
          "type": "bool"
        }
      ],
      "stateMutability": "view",
      "type": "function",
      "constant": true
    },
    {
      "inputs": [
        {
          "internalType": "uint256",
          "name": "tokenId",
          "type": "uint256"
        }
      ],
      "name": "foreclosed",
      "outputs": [
        {
          "internalType": "bool",
          "name": "",
          "type": "bool"
        }
      ],
      "stateMutability": "view",
      "type": "function",
      "constant": true
    },
    {
      "inputs": [
        {
          "internalType": "address",
          "name": "tokenPatron",
          "type": "address"
        }
      ],
      "name": "depositAbleToWithdraw",
      "outputs": [
        {
          "internalType": "uint256",
          "name": "",
          "type": "uint256"
        }
      ],
      "stateMutability": "view",
      "type": "function",
      "constant": true
    },
    {
      "inputs": [
        {
          "internalType": "address",
          "name": "tokenPatron",
          "type": "address"
        }
      ],
      "name": "foreclosureTimePatron",
      "outputs": [
        {
          "internalType": "uint256",
          "name": "",
          "type": "uint256"
        }
      ],
      "stateMutability": "view",
      "type": "function",
      "constant": true
    },
    {
      "inputs": [
        {
          "internalType": "uint256",
          "name": "tokenId",
          "type": "uint256"
        }
      ],
      "name": "foreclosureTime",
      "outputs": [
        {
          "internalType": "uint256",
          "name": "",
          "type": "uint256"
        }
      ],
      "stateMutability": "view",
      "type": "function",
      "constant": true
    },
    {
      "inputs": [
        {
          "internalType": "uint256",
          "name": "tokenId",
          "type": "uint256"
        }
      ],
      "name": "_collectPatronageAndSettleBenefactor",
      "outputs": [],
      "stateMutability": "nonpayable",
      "type": "function"
    },
    {
      "inputs": [
        {
          "internalType": "address",
          "name": "benefactor",
          "type": "address"
        }
      ],
      "name": "_updateBenefactorBalance",
      "outputs": [],
      "stateMutability": "nonpayable",
      "type": "function"
    },
    {
      "inputs": [
        {
          "internalType": "address",
          "name": "benefactor",
          "type": "address"
        }
      ],
      "name": "withdrawBenefactorFundsTo",
      "outputs": [],
      "stateMutability": "nonpayable",
      "type": "function"
    },
    {
      "inputs": [
        {
          "internalType": "address",
          "name": "benefactor",
          "type": "address"
        },
        {
          "internalType": "uint256",
          "name": "maxAmount",
          "type": "uint256"
        },
        {
          "internalType": "uint256",
          "name": "expiry",
          "type": "uint256"
        },
        {
          "internalType": "uint256",
          "name": "nonce",
          "type": "uint256"
        }
      ],
      "name": "hasher",
      "outputs": [
        {
          "internalType": "bytes32",
          "name": "",
          "type": "bytes32"
        }
      ],
      "stateMutability": "view",
      "type": "function",
      "constant": true
    },
    {
      "inputs": [
        {
          "internalType": "address",
          "name": "benefactor",
          "type": "address"
        },
        {
          "internalType": "uint256",
          "name": "maxAmount",
          "type": "uint256"
        },
        {
          "internalType": "uint256",
          "name": "expiry",
          "type": "uint256"
        },
        {
          "internalType": "uint256",
          "name": "nonce",
          "type": "uint256"
        },
        {
          "internalType": "bytes32",
          "name": "hash",
          "type": "bytes32"
        },
        {
          "internalType": "uint8",
          "name": "v",
          "type": "uint8"
        },
        {
          "internalType": "bytes32",
          "name": "r",
          "type": "bytes32"
        },
        {
          "internalType": "bytes32",
          "name": "s",
          "type": "bytes32"
        }
      ],
      "name": "withdrawBenefactorFundsToValidated",
      "outputs": [],
      "stateMutability": "nonpayable",
      "type": "function"
    },
    {
      "inputs": [
        {
          "internalType": "address",
          "name": "tokenPatron",
          "type": "address"
        }
      ],
      "name": "_collectPatronagePatron",
      "outputs": [
        {
          "internalType": "uint256",
          "name": "newTimeLastCollectedOnForeclosure",
          "type": "uint256"
        }
      ],
      "stateMutability": "nonpayable",
      "type": "function"
    },
    {
      "inputs": [
        {
          "internalType": "uint256",
          "name": "amount",
          "type": "uint256"
        }
      ],
      "name": "depositWei",
      "outputs": [],
      "stateMutability": "nonpayable",
      "type": "function"
    },
    {
      "inputs": [
        {
          "internalType": "uint256",
          "name": "tokenId",
          "type": "uint256"
        },
        {
          "internalType": "uint256",
          "name": "_newPrice",
          "type": "uint256"
        },
        {
          "internalType": "uint256",
          "name": "previousPrice",
          "type": "uint256"
        },
        {
          "internalType": "uint256",
          "name": "serviceProviderPercentage",
          "type": "uint256"
        },
        {
          "internalType": "uint256",
          "name": "depositAmount",
          "type": "uint256"
        }
      ],
      "name": "buy",
      "outputs": [],
      "stateMutability": "nonpayable",
      "type": "function"
    },
    {
      "inputs": [
        {
          "internalType": "uint256",
          "name": "tokenId",
          "type": "uint256"
        },
        {
          "internalType": "uint256",
          "name": "_newPrice",
          "type": "uint256"
        },
        {
          "internalType": "uint256",
          "name": "serviceProviderPercentage",
          "type": "uint256"
        },
        {
          "internalType": "uint256",
          "name": "depositAmount",
          "type": "uint256"
        }
      ],
      "name": "buyAuction",
      "outputs": [],
      "stateMutability": "nonpayable",
      "type": "function"
    },
    {
      "inputs": [
        {
          "internalType": "uint256",
          "name": "tokenId",
          "type": "uint256"
        },
        {
          "internalType": "uint256",
          "name": "_newPrice",
          "type": "uint256"
        }
      ],
      "name": "changePrice",
      "outputs": [],
      "stateMutability": "nonpayable",
      "type": "function"
    },
    {
      "inputs": [
        {
          "internalType": "uint256",
          "name": "_wei",
          "type": "uint256"
        }
      ],
      "name": "withdrawDeposit",
      "outputs": [
        {
          "internalType": "uint256",
          "name": "",
          "type": "uint256"
        }
      ],
      "stateMutability": "nonpayable",
      "type": "function"
    },
    {
      "inputs": [],
      "name": "withdrawBenefactorFunds",
      "outputs": [],
      "stateMutability": "nonpayable",
      "type": "function"
    },
    {
      "inputs": [],
      "name": "exit",
      "outputs": [],
      "stateMutability": "nonpayable",
      "type": "function"
    },
    {
      "inputs": [
        {
          "internalType": "address",
          "name": "randomArg",
          "type": "address"
        }
      ],
      "name": "testFunctionThatDoesNothing",
      "outputs": [],
      "stateMutability": "nonpayable",
      "type": "function"
    }
  ],
  "bytecode": "0x608060405234801561001057600080fd5b5061534f806100206000396000f3fe6080604052600436106103a25760003560e01c80637e4edf70116101e7578063c07d7e1b1161010d578063e1c214c6116100a0578063e9fad8ee1161006f578063e9fad8ee146112d7578063f340fa01146112ec578063f851a4401461131f578063f9345df514611334576103a2565b8063e1c214c61461121d578063e2e7ec2114611247578063e357420e14611271578063e4fb7aa9146112a4576103a2565b8063d3e0beae116100dc578063d3e0beae14610e88578063d756985b14610e9d578063d9d85b0714610eb2578063e00c50e714610ee5576103a2565b8063c07d7e1b14610db0578063c08f66cb14610de3578063c255dd0014610e16578063c6d7b51914610e49576103a2565b8063a6b9feb111610185578063b3de019c11610154578063b3de019c14610d05578063b9af132c14610d35578063b9c3c38d14610d4a578063bfe5f50a14610d7d576103a2565b8063a6b9feb114610c0c578063a74a752214610c36578063ac946b3a14610c97578063b08d024b14610cd2576103a2565b80638f283970116101c15780638f28397014610b85578063a04a6ac814610bb8578063a0c0e87b14610bcd578063a3f81da014610be2576103a2565b80637e4edf7014610b1c578063831ffd0514610b315780638d9e36ba14610b5b576103a2565b8063325c25a2116102cc578063564b81ef1161026a5780636426354e116102395780636426354e14610a3b57806367bcbbc114610aa15780636ceadbe514610ab657806377d9efc814610ae9576103a2565b8063564b81ef146108d65780636281133d146108eb5780636399af73146109c657806364204888146109f9576103a2565b80633adbd0fb116102a65780633adbd0fb146107e35780633e4f49e61461081c5780634256450e146108675780634f9c10d414610891576103a2565b8063325c25a21461078f57806333289a46146107a4578063385320aa146107ce576103a2565b806322cb8b4a116103445780632c3db6ea116103135780632c3db6ea146106e15780632d0335ab146107145780632d3c42e1146107475780633013ce291461077a576103a2565b806322cb8b4a146106155780632488a69e14610651578063259c5f091461068457806326a49e37146106b7576103a2565b80630c53c51c116103805780630c53c51c146104455780631083f7611461057c578063128ee161146105ad5780631e8b76ad146105d7576103a2565b8063013cc15f146103a75780630972c4f8146103df5780630b2efb4c14610409575b600080fd5b3480156103b357600080fd5b506103dd600480360360608110156103ca57600080fd5b5080359060208101359060400135611367565b005b3480156103eb57600080fd5b506103dd6004803603602081101561040257600080fd5b50356113d2565b34801561041557600080fd5b506104336004803603602081101561042c57600080fd5b5035611574565b60408051918252519081900360200190f35b610507600480360360a081101561045b57600080fd5b6001600160a01b038235169190810190604081016020820135600160201b81111561048557600080fd5b82018360208201111561049757600080fd5b803590602001918460018302840111600160201b831117156104b857600080fd5b91908080601f016020809104026020016040519081016040528093929190818152602001838380828437600092019190915250929550508235935050506020810135906040013560ff16611586565b6040805160208082528351818301528351919283929083019185019080838360005b83811015610541578181015183820152602001610529565b50505050905090810190601f16801561056e5780820380516001836020036101000a031916815260200191505b509250505060405180910390f35b34801561058857600080fd5b5061059161187d565b604080516001600160a01b039092168252519081900360200190f35b3480156105b957600080fd5b50610591600480360360208110156105d057600080fd5b503561188c565b3480156105e357600080fd5b50610601600480360360208110156105fa57600080fd5b50356118a7565b604080519115158252519081900360200190f35b34801561062157600080fd5b506103dd6004803603608081101561063857600080fd5b5080359060208101359060408101359060600135611938565b34801561065d57600080fd5b506104336004803603602081101561067457600080fd5b50356001600160a01b0316611cf1565b34801561069057600080fd5b506103dd600480360360208110156106a757600080fd5b50356001600160a01b0316611e7a565b3480156106c357600080fd5b50610433600480360360208110156106da57600080fd5b5035611ed4565b3480156106ed57600080fd5b506103dd6004803603602081101561070457600080fd5b50356001600160a01b0316611ee6565b34801561072057600080fd5b506104336004803603602081101561073757600080fd5b50356001600160a01b0316612007565b34801561075357600080fd5b506104336004803603602081101561076a57600080fd5b50356001600160a01b0316612022565b34801561078657600080fd5b5061059161207e565b34801561079b57600080fd5b5061043361208d565b3480156107b057600080fd5b50610433600480360360208110156107c757600080fd5b5035612093565b3480156107da57600080fd5b506103dd6120b6565b3480156107ef57600080fd5b506103dd6004803603604081101561080657600080fd5b50803590602001356001600160a01b03166120c8565b34801561082857600080fd5b506108466004803603602081101561083f57600080fd5b5035612308565b6040518082600181111561085657fe5b815260200191505060405180910390f35b34801561087357600080fd5b506104336004803603602081101561088a57600080fd5b503561231d565b34801561089d57600080fd5b50610433600480360360808110156108b457600080fd5b506001600160a01b03813516906020810135906040810135906060013561232f565b3480156108e257600080fd5b506104336123c8565b3480156108f757600080fd5b50610601600480360360e081101561090e57600080fd5b6001600160a01b038235169160208101359160408201359190810190608081016060820135600160201b81111561094457600080fd5b82018360208201111561095657600080fd5b803590602001918460018302840111600160201b8311171561097757600080fd5b91908080601f016020809104026020016040519081016040528093929190818152602001838380828437600092019190915250929550508235935050506020810135906040013560ff166123cd565b3480156109d257600080fd5b50610433600480360360208110156109e957600080fd5b50356001600160a01b0316612540565b348015610a0557600080fd5b506103dd600480360360a0811015610a1c57600080fd5b5080359060208101359060408101359060608101359060800135612552565b348015610a4757600080fd5b506103dd6004803603610100811015610a5f57600080fd5b506001600160a01b03813581169160208101358216916040820135811691606081013582169160808201359160a08101359160c08201359160e001351661293f565b348015610aad57600080fd5b50610433612a73565b348015610ac257600080fd5b506103dd60048036036020811015610ad957600080fd5b50356001600160a01b0316612a80565b348015610af557600080fd5b506103dd60048036036020811015610b0c57600080fd5b50356001600160a01b0316612b49565b348015610b2857600080fd5b50610591612b83565b348015610b3d57600080fd5b5061059160048036036020811015610b5457600080fd5b5035612b92565b348015610b6757600080fd5b5061060160048036036020811015610b7e57600080fd5b5035612bad565b348015610b9157600080fd5b506103dd60048036036020811015610ba857600080fd5b50356001600160a01b0316612bc2565b348015610bc457600080fd5b50610433612c3f565b348015610bd957600080fd5b50610433612c45565b348015610bee57600080fd5b506103dd60048036036020811015610c0557600080fd5b5035612c4f565b348015610c1857600080fd5b5061043360048036036020811015610c2f57600080fd5b5035612c63565b348015610c4257600080fd5b506103dd6004803603610100811015610c5a57600080fd5b506001600160a01b038135169060208101359060408101359060608101359060808101359060ff60a0820135169060c08101359060e00135612c75565b348015610ca357600080fd5b506103dd60048036036040811015610cba57600080fd5b506001600160a01b0381358116916020013516612fcd565b348015610cde57600080fd5b5061043360048036036020811015610cf557600080fd5b50356001600160a01b0316613182565b348015610d1157600080fd5b506103dd60048036036040811015610d2857600080fd5b5080359060200135613194565b348015610d4157600080fd5b50610433613497565b348015610d5657600080fd5b5061043360048036036020811015610d6d57600080fd5b50356001600160a01b031661349d565b348015610d8957600080fd5b5061043360048036036020811015610da057600080fd5b50356001600160a01b03166134e4565b348015610dbc57600080fd5b5061043360048036036020811015610dd357600080fd5b50356001600160a01b03166134f6565b348015610def57600080fd5b5061043360048036036020811015610e0657600080fd5b50356001600160a01b0316613508565b348015610e2257600080fd5b5061043360048036036020811015610e3957600080fd5b50356001600160a01b031661355e565b348015610e5557600080fd5b506103dd60048036036060811015610e6c57600080fd5b508035906001600160a01b036020820135169060400135613570565b348015610e9457600080fd5b5061059161368b565b348015610ea957600080fd5b5061043361369a565b348015610ebe57600080fd5b5061043360048036036020811015610ed557600080fd5b50356001600160a01b03166136a0565b348015610ef157600080fd5b506103dd600480360360c0811015610f0857600080fd5b810190602081018135600160201b811115610f2257600080fd5b820183602082011115610f3457600080fd5b803590602001918460208302840111600160201b83111715610f5557600080fd5b9190808060200260200160405190810160405280939291908181526020018383602002808284376000920191909152509295949360208101935035915050600160201b811115610fa457600080fd5b820183602082011115610fb657600080fd5b803590602001918460208302840111600160201b83111715610fd757600080fd5b9190808060200260200160405190810160405280939291908181526020018383602002808284376000920191909152509295949360208101935035915050600160201b81111561102657600080fd5b82018360208201111561103857600080fd5b803590602001918460208302840111600160201b8311171561105957600080fd5b9190808060200260200160405190810160405280939291908181526020018383602002808284376000920191909152509295949360208101935035915050600160201b8111156110a857600080fd5b8201836020820111156110ba57600080fd5b803590602001918460208302840111600160201b831117156110db57600080fd5b9190808060200260200160405190810160405280939291908181526020018383602002808284376000920191909152509295949360208101935035915050600160201b81111561112a57600080fd5b82018360208201111561113c57600080fd5b803590602001918460208302840111600160201b8311171561115d57600080fd5b9190808060200260200160405190810160405280939291908181526020018383602002808284376000920191909152509295949360208101935035915050600160201b8111156111ac57600080fd5b8201836020820111156111be57600080fd5b803590602001918460208302840111600160201b831117156111df57600080fd5b919080806020026020016040519081016040528093929190818152602001838360200280828437600092019190915250929550613703945050505050565b34801561122957600080fd5b506104336004803603602081101561124057600080fd5b5035613cdc565b34801561125357600080fd5b506104336004803603602081101561126a57600080fd5b5035613d64565b34801561127d57600080fd5b506104336004803603602081101561129457600080fd5b50356001600160a01b0316613d76565b3480156112b057600080fd5b50610601600480360360208110156112c757600080fd5b50356001600160a01b0316613d88565b3480156112e357600080fd5b506103dd613dbf565b3480156112f857600080fd5b506104336004803603602081101561130f57600080fd5b50356001600160a01b0316613e06565b34801561132b57600080fd5b50610591613e18565b34801561134057600080fd5b506104336004803603602081101561135757600080fd5b50356001600160a01b0316613e27565b60a9546001600160a01b031661137b613e39565b6001600160a01b0316146113c2576040805162461bcd60e51b81526020600482015260096024820152682737ba1030b236b4b760b91b604482015290519081900360640190fd5b6113cd838383613e98565b505050565b609954604080516331a9108f60e11b81526004810184905290516000926001600160a01b031691636352211e916024808301926020929190829003018186803b15801561141e57600080fd5b505afa158015611432573d6000803e3d6000fd5b505050506040513d602081101561144857600080fd5b50519050600061145782611cf1565b600084815260a0602090815260408083205460a89092528220549293506001600160a01b03169160019060ff168181111561148e57fe5b14905060008311801561149e5750805b1561156457600085815260b2602052604081206001850190556114c083612022565b90506114cb86613f82565b600086815260a6602052604081205461151b906801b5a660ea44b80000906115159061150f6114fa428b61406b565b60008d815260986020526040902054906140b4565b906140b4565b9061410d565b905081811015611536576115318482840361414f565b611542565b61154284838303614260565b50506001600160a01b038216600090815260b56020526040902042905561156d565b61156d82612b49565b5050505050565b60b26020526000908152604090205481565b6001600160a01b0385166000908152603360205260409020546060906115b99087906115b06123c8565b888888886123cd565b6115f45760405162461bcd60e51b81526004018080602001828103825260218152602001806152f96021913960400191505060405180910390fd5b6001600160a01b03861660009081526033602052604090205461161890600161436e565b60336000886001600160a01b03166001600160a01b031681526020019081526020016000208190555060006060306001600160a01b031687896040516020018083805190602001908083835b602083106116835780518252601f199092019160209182019101611664565b6001836020036101000a038019825116818451168082178552505050505050905001826001600160a01b031660601b8152601401925050506040516020818303038152906040526040518082805190602001908083835b602083106116f95780518252601f1990920191602091820191016116da565b6001836020036101000a0380198251168184511680821785525050505050509050019150506000604051808303816000865af19150503d806000811461175b576040519150601f19603f3d011682016040523d82523d6000602084013e611760565b606091505b5091509150816117b7576040805162461bcd60e51b815260206004820152601c60248201527f46756e6374696f6e2063616c6c206e6f74207375636365737366756c00000000604482015290519081900360640190fd5b7f5845892132946850460bff5a0083f71031bc5bf9aadcd40f1de79423eac9b10b88338960405180846001600160a01b03168152602001836001600160a01b0316815260200180602001828103825283818151815260200191508051906020019080838360005b8381101561183657818101518382015260200161181e565b50505050905090810190601f1680156118635780820380516001836020036101000a031916815260200191505b5094505050505060405180910390a1979650505050505050565b6099546001600160a01b031681565b60a0602052600090815260409020546001600160a01b031681565b609954604080516331a9108f60e11b815260048101849052905160009283926001600160a01b0390911691636352211e91602480820192602092909190829003018186803b1580156118f857600080fd5b505afa15801561190c573d6000803e3d6000fd5b505050506040513d602081101561192257600080fd5b5051905061192f81613d88565b9150505b919050565b83611942816113d2565b61194a613e39565b61195381611cf1565b50846000811161199a576040805162461bcd60e51b815260206004820152600d60248201526c5072696365206973207a65726f60981b604482015290519081900360640190fd5b6119a2613e39565b6001600160a01b0381166000908152609e60205260409020541580156119df57506001600160a01b0381166000908152609f602052604090205415155b15611a31576040805162461bcd60e51b815260206004820152601a60248201527f6e6f206465706f736974206578697374696e6720746f6b656e73000000000000604482015290519081900360640190fd5b858861c3508210158015611a585750600081815260b16020526040902054620f4240038211155b611a935760405162461bcd60e51b81526004018080602001828103825260218152602001806152646021913960400191505060405180910390fd5b60008a815260a8602052604081205460ff166001811115611ab057fe5b14611af9576040805162461bcd60e51b81526020600482015260146024820152731d1bdad95b881b9bdd08199bdc9958db1bdcd95960621b604482015290519081900360640190fd5b60008a815260b26020526040902054421015611b4d576040805162461bcd60e51b815260206004820152600e60248201526d3737ba1037b71030bab1ba34b7b760911b604482015290519081900360640190fd5b6000611b588b6143c8565b9050611b638b614490565b60008b815260a860209081526040808320805460ff1916600117905560b09091529020899055611ba3611b96898361436e565b611b9e613e39565b614589565b50611bd488609e6000611bb4613e39565b6001600160a01b031681526020810191909152604001600020549061436e565b609e6000611be0613e39565b6001600160a01b03166001600160a01b0316815260200190815260200160002081905550611c9b8b609960009054906101000a90046001600160a01b03166001600160a01b0316636352211e8e6040518263ffffffff1660e01b81526004018082815260200191505060206040518083038186803b158015611c6157600080fd5b505afa158015611c75573d6000803e3d6000fd5b505050506040513d6020811015611c8b57600080fd5b5051611c95613e39565b8d614630565b611ca3613e39565b6001600160a01b03168b7f3b599f6217e39be59216b60e543ce0d4c7d534fe64dd9d962334924e7819894e8c6040518082815260200191505060405180910390a35050505050505050505050565b600080611cfd83613508565b905060008082118015611d2757506001600160a01b0384166000908152609e602052604090205482115b15611daa576001600160a01b0384166000908152609d6020908152604080832054609e90925290912054611d7090611d699085906115159061150f428761406b565b829061436e565b6001600160a01b0386166000908152609d60209081526040808320849055609e9091528120559350611da2848261406b565b915050611e1b565b6001600160a01b0384166000908152609d6020526040902054611dce90429061406b565b6001600160a01b0385166000908152609d60209081526040808320429055609e909152902054909150611e01908361406b565b6001600160a01b0385166000908152609e60205260409020555b611e2584826148d5565b6001600160a01b0384166000818152609e602090815260409182902054825190815291517fbece12534c1381f016e2ce4d456a6eb916094df84a7dd97faa7159f3a44a0d3c9281900390910190a25050919050565b7fc41bd8c0c472aea2185f2569b0205b98f7a74642810b8f980cabb73a2e297bf3611ea3613e39565b60b954604080516001600160a01b03938416815291831660208301529184168183015290519081900360600190a150565b60986020526000908152604090205481565b611eef81612b49565b6001600160a01b038116600090815260a1602052604081205490611f12836149b3565b9050808211611f53576040805162461bcd60e51b81526020600482015260086024820152676e6f2066756e647360c01b604482015290519081900360640190fd5b6001600160a01b038316600090815260a160205260409020819055808203611f7b81856149ea565b15611fc4576040805182815290516001600160a01b038616917f57ecdc53fdf69e9738d68dbb94b76b67d62dfa01122f1f2ac5a66a41dd4c76fa919081900360200190a2612001565b6001600160a01b038416600090815260a16020526040902054611fe7908261436e565b6001600160a01b038516600090815260a160205260409020555b50505050565b6001600160a01b031660009081526033602052604090205490565b6001600160a01b038116600090815260b56020526040812054612078906801b5a660ea44b80000906115159061205990429061406b565b6001600160a01b038616600090815260b46020526040902054906140b4565b92915050565b60b9546001600160a01b031681565b60ae5481565b600061209d613e39565b6120a681611cf1565b506120b083614a43565b50919050565b6120c66120c1613e39565b611ee6565b565b600082815260a0602052604090205482906001600160a01b03166120ea613e39565b6001600160a01b03161480612119575060a9546001600160a01b031661210e613e39565b6001600160a01b0316145b61216a576040805162461bcd60e51b815260206004820152601760248201527f4e6f742062656e65666163746f72206f722061646d696e000000000000000000604482015290519081900360640190fd5b600083815260a060205260409020546001600160a01b031661218b81612b49565b8261219581612b49565b836001600160a01b0381166121e0576040805162461bcd60e51b815260206004820152600c60248201526b6e756c6c206164647265737360a01b604482015290519081900360640190fd5b600086815260a060205260409020546001600160a01b0390811690861681141561224a576040805162461bcd60e51b815260206004820152601660248201527563616e6e6f742062652073616d65206164647265737360501b604482015290519081900360640190fd5b600087815260a66020908152604080832054609890925282205461226d916140b4565b6001600160a01b038316600090815260b46020526040902054909150612293908261406b565b6001600160a01b03808416600090815260b4602052604080822093909355908916815220546122c2908261436e565b6001600160a01b03909716600081815260b4602090815260408083209a909a5599815260a09099529690972080546001600160a01b031916909617909555505050505050565b60a86020526000908152604090205460ff1681565b60b16020526000908152604090205481565b6040805160609590951b6bffffffffffffffffffffffff191660208087019190915260348601949094526054850192909252607480850191909152815180850390910181526094840182528051908301207f19457468657265756d205369676e6564204d6573736167653a0a33320000000060b485015260d0808501919091528151808503909101815260f09093019052815191012090565b465b90565b60008061246a8830898960405160200180858152602001846001600160a01b031660601b815260140183815260200182805190602001908083835b602083106124275780518252601f199092019160209182019101612408565b6001836020036101000a03801982511681845116808217855250505050505090500194505050505060405160208183030381529060405280519060200120614b67565b9050600060018285888860405160008152602001604052604051808581526020018460ff1681526020018381526020018281526020019450505050506020604051602081039080840390855afa1580156124c8573d6000803e3d6000fd5b5050604051601f1901519150506001600160a01b038116612524576040805162461bcd60e51b8152602060048201526011602482015270496e76616c6964207369676e617475726560781b604482015290519081900360640190fd5b6001600160a01b038a8116911614915050979650505050505050565b60b46020526000908152604090205481565b8461255c816113d2565b612564613e39565b61256d81611cf1565b5085600081116125b4576040805162461bcd60e51b815260206004820152600d60248201526c5072696365206973207a65726f60981b604482015290519081900360640190fd5b6125bc613e39565b6001600160a01b0381166000908152609e60205260409020541580156125f957506001600160a01b0381166000908152609f602052604090205415155b1561264b576040805162461bcd60e51b815260206004820152601a60248201527f6e6f206465706f736974206578697374696e6720746f6b656e73000000000000604482015290519081900360640190fd5b858961c35082101580156126725750600081815260b16020526040902054620f4240038211155b6126ad5760405162461bcd60e51b81526004018080602001828103825260218152602001806152646021913960400191505060405180910390fd5b600160008c815260a8602052604090205460ff1660018111156126cc57fe5b14612711576040805162461bcd60e51b815260206004820152601060248201526f3a37b5b2b71037b71030bab1ba34b7b760811b604482015290519081900360640190fd5b60008b815260986020526040902054891461275d5760405162461bcd60e51b81526004018080602001828103825260258152602001806152856025913960400191505060405180910390fd5b60008b81526098602052604090205461277b90611b9690899061436e565b50609954604080516331a9108f60e11b8152600481018e905290516000926001600160a01b031691636352211e916024808301926020929190829003018186803b1580156127c857600080fd5b505afa1580156127dc573d6000803e3d6000fd5b505050506040513d60208110156127f257600080fd5b505190506127ff8c614bb8565b60008c815260b0602052604081208a9055612821908990609e90611bb4613e39565b609e600061282d613e39565b6001600160a01b03166001600160a01b03168152602001908152602001600020819055506128e88c609960009054906101000a90046001600160a01b03166001600160a01b0316636352211e8f6040518263ffffffff1660e01b81526004018082815260200191505060206040518083038186803b1580156128ae57600080fd5b505afa1580156128c2573d6000803e3d6000fd5b505050506040513d60208110156128d857600080fd5b50516128e2613e39565b8e614630565b6128f0613e39565b6001600160a01b03168c7f3b599f6217e39be59216b60e543ce0d4c7d534fe64dd9d962334924e7819894e8d6040518082815260200191505060405180910390a3505050505050505050505050565b600054610100900460ff16806129585750612958614e56565b80612966575060005460ff16155b6129a15760405162461bcd60e51b815260040180806020018281038252602e8152602001806152cb602e913960400191505060405180910390fd5b600054610100900460ff161580156129cc576000805460ff1961ff0019909116610100171660011790555b6040517f9e7c5523d188a1a804de886fe0de6a44b045c186462df5909b2475cff971baf490600090a1609980546001600160a01b03199081166001600160a01b038c81169190911790925560a9805482168b841617905560b78054821689841617905560ab805482168a841617905560b98054909116918416919091179055612a56858585613e98565b8015612a68576000805461ff00191690555b505050505050505050565b6801b5a660ea44b8000081565b60a9546001600160a01b0316612a94613e39565b6001600160a01b031614612adb576040805162461bcd60e51b81526020600482015260096024820152682737ba1030b236b4b760b91b604482015290519081900360640190fd5b806001600160a01b038116612b26576040805162461bcd60e51b815260206004820152600c60248201526b6e756c6c206164647265737360a01b604482015290519081900360640190fd5b5060b780546001600160a01b0319166001600160a01b0392909216919091179055565b6000612b5482612022565b90508015612b6657612b66828261414f565b506001600160a01b0316600090815260b560205260409020429055565b60ab546001600160a01b031681565b60af602052600090815260409020546001600160a01b031681565b60b86020526000908152604090205460ff1681565b60a9546001600160a01b0316612bd6613e39565b6001600160a01b031614612c1d576040805162461bcd60e51b81526020600482015260096024820152682737ba1030b236b4b760b91b604482015290519081900360640190fd5b60a980546001600160a01b0319166001600160a01b0392909216919091179055565b60ad5481565b650a86cc92e3da81565b612c60612c5a613e39565b82614e5c565b50565b60b06020526000908152604090205481565b60b7546040805160008152602080820180845288905260ff871682840152606082018690526080820185905291516001600160a01b039093169260019260a0808401939192601f1981019281900390910190855afa158015612cdb573d6000803e3d6000fd5b505050602060405103516001600160a01b031614612d40576040805162461bcd60e51b815260206004820152601960248201527f6e6f207065726d697373696f6e20746f20776974686472617700000000000000604482015290519081900360640190fd5b600085815260b8602052604090205460ff1615612d99576040805162461bcd60e51b81526020600482015260126024820152711b9bdb98d948185b1c9958591e481d5cd95960721b604482015290519081900360640190fd5b612da58888888861232f565b8414612de9576040805162461bcd60e51b815260206004820152600e60248201526d0d2dcc6dee4e4cac6e840d0c2e6d60931b604482015290519081900360640190fd5b854210612e2e576040805162461bcd60e51b815260206004820152600e60248201526d18dbdd5c1bdb88195e1c1a5c995960921b604482015290519081900360640190fd5b600085815260b860205260409020805460ff19166001179055612e5088612b49565b6001600160a01b038816600090815260a160205260409020548015612a685787811115612ee857612e81888a6149ea565b15612ee357612e90818961406b565b6001600160a01b038a16600081815260a16020908152604091829020939093558051848152905191927f9d56808b7d9e1c7950f9b178297ba2c7703524d88ee1df387d174c136011c58492918290030190a25b612a68565b60b954604080516370a0823160e01b815230600482015290516000926001600160a01b0316916370a08231916024808301926020929190829003018186803b158015612f3357600080fd5b505afa158015612f47573d6000803e3d6000fd5b505050506040513d6020811015612f5d57600080fd5b50519050612f6b828b6149ea565b15612fc1576001600160a01b038a16600081815260a16020908152604080832092909255815185815291517f9d56808b7d9e1c7950f9b178297ba2c7703524d88ee1df387d174c136011c5849281900390910190a25b50505050505050505050565b60a9546001600160a01b0316612fe1613e39565b6001600160a01b031614613028576040805162461bcd60e51b81526020600482015260096024820152682737ba1030b236b4b760b91b604482015290519081900360640190fd5b806001600160a01b038116613073576040805162461bcd60e51b815260206004820152600c60248201526b6e756c6c206164647265737360a01b604482015290519081900360640190fd5b8282806001600160a01b0316826001600160a01b031614156130d5576040805162461bcd60e51b815260206004820152601660248201527563616e6e6f742062652073616d65206164647265737360501b604482015290519081900360640190fd5b6001600160a01b038516600090815260a1602052604090205461312a576040805162461bcd60e51b81526020600482015260086024820152676e6f2066756e647360c01b604482015290519081900360640190fd5b6001600160a01b03808616600090815260a160205260408082205492871682529020546131569161436e565b6001600160a01b03948516600090815260a1602052604080822092909255959094168552505050812055565b609d6020526000908152604090205481565b609954604080516331a9108f60e11b815260048101859052905184926001600160a01b031691636352211e916024808301926020929190829003018186803b1580156131df57600080fd5b505afa1580156131f3573d6000803e3d6000fd5b505050506040513d602081101561320957600080fd5b50516001600160a01b031661321c613e39565b6001600160a01b031614613264576040805162461bcd60e51b815260206004820152600a6024820152692737ba103830ba3937b760b11b604482015290519081900360640190fd5b8261326e816113d2565b600084815260a8602052604081205460ff16600181111561328b57fe5b14156132cb576040805162461bcd60e51b815260206004820152600a602482015269199bdc9958db1bdcd95960b21b604482015290519081900360640190fd5b8261330f576040805162461bcd60e51b815260206004820152600f60248201526e696e636f727265637420707269636560881b604482015290519081900360640190fd5b69021e19e0c9bab24000008310613361576040805162461bcd60e51b815260206004820152601160248201527065786365656473206d617820707269636560781b604482015290519081900360640190fd5b600084815260a660209081526040808320546098909252822054613384916140b4565b600086815260a66020526040812054919250906133a29086906140b4565b600087815260a06020908152604080832054338452609f909252909120549192506001600160a01b0316906133e39083906133dd908661406b565b9061436e565b609f60006133ef613e39565b6001600160a01b03908116825260208083019390935260409182016000908120949094558416835260b490915290205461342f9083906133dd908661406b565b6001600160a01b038216600090815260b4602090815260408083209390935589825260988152908290208890558151888152915189927ffe6b606ca0477592b5740a0eb00c8e91570a5d0eb736abfa1a6309bd081b4a4d92908290030190a250505050505050565b60a75481565b6001600160a01b0381166000908152609f602052604081205481906134cb906801b5a660ea44b8000061410d565b905061192f6134dd82611515866136a0565b429061436e565b60b66020526000908152604090205481565b60b36020526000908152604090205481565b6001600160a01b0381166000908152609d6020526040812054612078906801b5a660ea44b80000906115159061353f90429061406b565b6001600160a01b0386166000908152609f6020526040902054906140b4565b60a16020526000908152604090205481565b60a9546001600160a01b0316613584613e39565b6001600160a01b0316146135cb576040805162461bcd60e51b81526020600482015260096024820152682737ba1030b236b4b760b91b604482015290519081900360640190fd5b62030d40811115613617576040805162461bcd60e51b81526020600482015260116024820152706e6f74206d6f7265207468616e2032302560781b604482015290519081900360640190fd5b600083815260b16020908152604080832084905560af82529182902080546001600160a01b0319166001600160a01b0386169081179091558251908152908101839052815185927f5586506d614c14a823aceec5aaf06a022867e69afb3fe6e2f5e2d7a5bde61572928290030190a2505050565b60b7546001600160a01b031681565b60ac5481565b6000806136ac83613508565b6001600160a01b0384166000908152609e602052604090205490915081106136d8576000915050611933565b6001600160a01b0383166000908152609e60205260409020546136fb908261406b565b915050611933565b60a9546001600160a01b0316613717613e39565b6001600160a01b03161461375e576040805162461bcd60e51b81526020600482015260096024820152682737ba1030b236b4b760b91b604482015290519081900360640190fd5b845186511461376957fe5b835186511461377457fe5b805186511461377f57fe5b815183511461378a57fe5b60005b86518160ff161015613cd3576000868260ff16815181106137aa57fe5b6020026020010151905060006001600160a01b0316878360ff16815181106137ce57fe5b60200260200101516001600160a01b03161415613821576040805162461bcd60e51b815260206004820152600c60248201526b6e756c6c206164647265737360a01b604482015290519081900360640190fd5b6060613842898460ff168151811061383557fe5b6020026020010151614f4b565b905060606040518060400160405280601c81526020017f68747470733a2f2f77696c6463617264732e78797a2f746f6b656e2f000000008152509050606081836040516020018083805190602001908083835b602083106138b45780518252601f199092019160209182019101613895565b51815160209384036101000a600019018019909216911617905285519190930192850191508083835b602083106138fc5780518252601f1990920191602091820191016138dd565b6001836020036101000a038019825116818451168082178552505050505050905001925050506040516020818303038152906040529050609960009054906101000a90046001600160a01b03166001600160a01b03166350bb4e7f308d8860ff168151811061396757fe5b6020026020010151846040518463ffffffff1660e01b815260040180846001600160a01b0316815260200183815260200180602001828103825283818151815260200191508051906020019080838360005b838110156139d15781810151838201526020016139b9565b50505050905090810190601f1680156139fe5780820380516001836020036101000a031916815260200191505b50945050505050602060405180830381600087803b158015613a1f57600080fd5b505af1158015613a33573d6000803e3d6000fd5b505050506040513d6020811015613a4957600080fd5b505089518a9060ff8716908110613a5c57fe5b602002602001015160a060008d8860ff1681518110613a7757fe5b6020026020010151815260200190815260200160002060006101000a8154816001600160a01b0302191690836001600160a01b03160217905550600060a860008d8860ff1681518110613ac657fe5b6020026020010151815260200190815260200160002060006101000a81548160ff02191690836001811115613af757fe5b0217905550888560ff1681518110613b0b57fe5b602002602001015160a660008d8860ff1681518110613b2657fe5b602002602001015181526020019081526020016000208190555042868660ff1681518110613b5057fe5b60200260200101511015613b91574260b260008d8860ff1681518110613b7257fe5b6020026020010151815260200190815260200160002081905550613bd6565b858560ff1681518110613ba057fe5b602002602001015160b260008d8860ff1681518110613bbb57fe5b60200260200101518152602001908152602001600020819055505b8a8560ff1681518110613be557fe5b60200260200101517f0c954b79cf3caaaad0936916502caf69a5b4c93edeb4cc2ef2642fafc4f968778a8760ff1681518110613c1d57fe5b602002602001015160b260008f8a60ff1681518110613c3857fe5b6020026020010151815260200190815260200160002054604051808381526020018281526020019250505060405180910390a28460ff1688511115613cc457613cc48b8660ff1681518110613c8957fe5b6020026020010151898760ff1681518110613ca057fe5b6020026020010151898860ff1681518110613cb757fe5b6020026020010151613570565b5050505080600101905061378d565b50505050505050565b609954604080516331a9108f60e11b815260048101849052905160009283926001600160a01b0390911691636352211e91602480820192602092909190829003018186803b158015613d2d57600080fd5b505afa158015613d41573d6000803e3d6000fd5b505050506040513d6020811015613d5757600080fd5b5051905061192f8161349d565b60a66020526000908152604090205481565b60b56020526000908152604090205481565b6001600160a01b0381166000908152609e6020526040812054613daa83613508565b10613db757506001611933565b506000611933565b613dc7613e39565b613dd081611cf1565b50612c60609e6000613de0613e39565b6001600160a01b03166001600160a01b0316815260200190815260200160002054614a43565b609e6020526000908152604090205481565b60a9546001600160a01b031681565b609f6020526000908152604090205481565b600033301415613e915760606000368080601f0160208091040260200160405190810160405280939291908181526020018383808284376000920191909152505050503601516001600160a01b031691506123ca9050565b50336123ca565b81831015613eed576040805162461bcd60e51b815260206004820152601b60248201527f61756374696f6e207374617274203c2061756374696f6e20656e640000000000604482015290519081900360640190fd5b62015180811015613f45576040805162461bcd60e51b815260206004820152601860248201527f3120646179206d696e2061756374696f6e206c656e6774680000000000000000604482015290519081900360640190fd5b60ac83905560ad82905560ae8190556040517f302fedae2d242dcf051d44de5478e1e00f5a0e972d3cb61423043fecae47152d90600090a1505050565b609954604080516331a9108f60e11b81526004810184905290516000926001600160a01b031691636352211e916024808301926020929190829003018186803b158015613fce57600080fd5b505afa158015613fe2573d6000803e3d6000fd5b505050506040513d6020811015613ff857600080fd5b50519050614006828261501d565b600082815260a860209081526040808320805460ff191690556001600160a01b038416808452609d83529281902054815190815290517f5c96da7ec020805f8c8976230ffa5316fff9373db995b9a5c11deb511e530c6d929181900390910190a25050565b60006140ad83836040518060400160405280601e81526020017f536166654d6174683a207375627472616374696f6e206f766572666c6f770000815250615167565b9392505050565b6000826140c357506000612078565b828202828482816140d057fe5b04146140ad5760405162461bcd60e51b81526004018080602001828103825260218152602001806152aa6021913960400191505060405180910390fd5b60006140ad83836040518060400160405280601a81526020017f536166654d6174683a206469766973696f6e206279207a65726f0000000000008152506151fe565b6001600160a01b038216600090815260b660205260409020541561421f576001600160a01b038216600090815260b660205260409020548110156141ce576001600160a01b038216600090815260b660205260409020546141b0908261406b565b6001600160a01b038316600090815260b6602052604090205561421a565b6001600160a01b038216600090815260b660205260409020546141f290829061406b565b6001600160a01b038316600090815260a1602090815260408083209390935560b69052908120555b61425c565b6001600160a01b038216600090815260a16020526040902054614242908261436e565b6001600160a01b038316600090815260a160205260409020555b5050565b6001600160a01b038216600090815260a160205260409020541561432e576001600160a01b038216600090815260a1602052604090205481116142de576001600160a01b038216600090815260a160205260409020546142c0908261406b565b6001600160a01b038316600090815260a1602052604090205561421a565b6001600160a01b038216600090815260a1602052604090205461430290829061406b565b6001600160a01b038316600090815260b6602090815260408083209390935560a190529081205561425c565b6001600160a01b038216600090815260b66020526040902054614351908261436e565b6001600160a01b038316600090815260b660205260409020555050565b6000828201838110156140ad576040805162461bcd60e51b815260206004820152601b60248201527f536166654d6174683a206164646974696f6e206f766572666c6f770000000000604482015290519081900360640190fd5b60ae54600082815260b26020526040812054909182916143e79161436e565b6000848152609860205260408120549192509015801590614417575060ad54600085815260986020526040902054115b156144315750600083815260986020526040902054614436565b5060ac545b8142106144495760ad5492505050611933565b60ae54600085815260b2602052604090205461448791614480916115159061447290429061406b565b60ad5461150f90879061406b565b829061406b565b92505050611933565b60008181526098602090815260408083205460b19092528220549091906144b957506000614534565b600083815260b160205260409020546144dc90620f4240906115159085906140b4565b600084815260af60209081526040808320546001600160a01b03168352609e90915290205490915061450e908261436e565b600084815260af60209081526040808320546001600160a01b03168352609e9091529020555b6000614540838361406b565b60a9546001600160a01b03166000908152609e6020526040902054909150614568908261436e565b60a9546001600160a01b03166000908152609e602052604090205550505050565b60b9546000906001600160a01b03166323b872dd6145a5613e39565b30866040518463ffffffff1660e01b815260040180846001600160a01b03168152602001836001600160a01b031681526020018281526020019350505050602060405180830381600087803b1580156145fd57600080fd5b505af1158015614611573d6000803e3d6000fd5b505050506040513d602081101561462757600080fd5b50519392505050565b69021e19e0c9bab24000008110614682576040805162461bcd60e51b815260206004820152601160248201527065786365656473206d617820707269636560781b604482015290519081900360640190fd5b600084815260a6602090815260408083205460989092528220546146a5916140b4565b600086815260a66020526040812054919250906146c39084906140b4565b6001600160a01b0385166000908152609f60205260409020549091506146e9908261436e565b6001600160a01b0385166000908152609f602090815260408083209390935560b39052205461471e90650a86cc92e3da61436e565b6001600160a01b03808616600090815260b3602090815260408083209490945589825260a081528382205490921680825260b49092529190912054614763908361436e565b6001600160a01b03808316600090815260b460205260409020919091558616301480159061479957506001600160a01b03861615155b15614846576001600160a01b0386166000908152609f60205260409020546147c1908461406b565b6001600160a01b0387166000908152609f602090815260408083209390935560b3905220546147f690650a86cc92e3da61406b565b6001600160a01b03808816600090815260b36020908152604080832094909455918416815260b4909152205461482c908461406b565b6001600160a01b038216600090815260b460205260409020555b609954604080516323b872dd60e01b81526001600160a01b0389811660048301528881166024830152604482018b9052915191909216916323b872dd91606480830192600092919082900301818387803b1580156148a357600080fd5b505af11580156148b7573d6000803e3d6000fd5b50505060009788525050609860205250506040909320929092555050565b801561425c5760ab546001600160a01b03838116600081815260b36020526040808220548151632ee9130160e01b81526004810194909452602484018790526044840152519290931692632ee913019260648084019382900301818387803b15801561494057600080fd5b505af1158015614954573d6000803e3d6000fd5b505050506001600160a01b038216600081815260b360205260409020547f865c2de2ed42d00fd42f3dad539a5ac070456a196db3dac47457b058a8e594899061499e9084906140b4565b60408051918252519081900360200190a25050565b60ae546001600160a01b038216600090815260b460205260408120549091612078916801b5a660ea44b800009161151591906140b4565b60b9546040805163a9059cbb60e01b81526001600160a01b038481166004830152602482018690529151600093929092169163a9059cbb9160448082019260209290919082900301818787803b1580156145fd57600080fd5b80609e6000614a50613e39565b6001600160a01b03166001600160a01b03168152602001908152602001600020541015614abb576040805162461bcd60e51b81526020600482015260146024820152730eed2e8d0c8e4c2eed2dcce40e8dede40daeac6d60631b604482015290519081900360640190fd5b614aeb81609e6000614acb613e39565b6001600160a01b031681526020810191909152604001600020549061406b565b609e6000614af7613e39565b6001600160a01b03168152602081019190915260400160002055614b2281614b1d613e39565b6149ea565b612c60576040805162461bcd60e51b81526020600482015260116024820152701dda5d1a191c985dd85b0819985a5b1959607a1b604482015290519081900360640190fd5b604080517f19457468657265756d205369676e6564204d6573736167653a0a333200000000602080830191909152603c8083019490945282518083039094018452605c909101909152815191012090565b60008181526098602090815260408083205460995482516331a9108f60e11b81526004810187905292519194936001600160a01b0390911692636352211e9260248083019392829003018186803b158015614c1257600080fd5b505afa158015614c26573d6000803e3d6000fd5b505050506040513d6020811015614c3c57600080fd5b5051600084815260b06020526040902054909150614c6857600083815260b06020526040902061c35090555b600083815260b06020526040812054614c8b90620f4240906115159086906140b4565b600085815260b1602052604081205491925090614caa57506000614d25565b600085815260b16020526040902054614ccd90620f4240906115159087906140b4565b600086815260af60209081526040808320546001600160a01b03168352609e909152902054909150614cff908261436e565b600086815260af60209081526040808320546001600160a01b03168352609e9091529020555b6000614d3b82614d35878661406b565b9061406b565b600087815260a66020908152604080832054609890925290912054919250614d6391906140b4565b6001600160a01b0385166000908152609f60205260409020541415614dd1576001600160a01b0384166000908152609e6020526040902054614da690829061436e565b6001600160a01b0385166000908152609e60205260408120559050614dcb81856149ea565b50614e0e565b6001600160a01b0384166000908152609e6020526040902054614df4908261436e565b6001600160a01b0385166000908152609e60205260409020555b60a9546001600160a01b03166000908152609e6020526040902054614e33908461436e565b60a9546001600160a01b03166000908152609e6020526040902055505050505050565b303b1590565b6001600160a01b0382166000908152609f6020526040902054614eb2576040805162461bcd60e51b81526020600482015260096024820152686e6f20746f6b656e7360b81b604482015290519081900360640190fd5b6001600160a01b0382166000908152609e6020526040902054614ed5908261436e565b6001600160a01b0383166000908152609e6020526040902055614ef88183614589565b506001600160a01b0382166000818152609e602090815260409182902054825190815291517fbece12534c1381f016e2ce4d456a6eb916094df84a7dd97faa7159f3a44a0d3c9281900390910190a25050565b606081614f7057506040805180820190915260018152600360fc1b6020820152611933565b8160005b8115614f8857600101600a82049150614f74565b60608167ffffffffffffffff81118015614fa157600080fd5b506040519080825280601f01601f191660200182016040528015614fcc576020820181803683370190505b5090505b841561501557600a850660300160f81b81836001900393508381518110614ff357fe5b60200101906001600160f81b031916908160001a905350600a85049450614fd0565b949350505050565b600082815260a660209081526040808320546098909252822054615040916140b4565b6001600160a01b0383166000908152609f6020526040902054909150615066908261406b565b6001600160a01b0383166000908152609f602090815260408083209390935560b39052205461509b90650a86cc92e3da61406b565b6001600160a01b03808416600090815260b3602090815260408083209490945586825260a081528382205490921680825260b490925291909120546150e0908361406b565b6001600160a01b03808316600090815260b460205260408082209390935560995483516323b872dd60e01b815287841660048201523060248201526044810189905293519216926323b872dd926064808301939282900301818387803b15801561514957600080fd5b505af115801561515d573d6000803e3d6000fd5b5050505050505050565b600081848411156151f65760405162461bcd60e51b81526004018080602001828103825283818151815260200191508051906020019080838360005b838110156151bb5781810151838201526020016151a3565b50505050905090810190601f1680156151e85780820380516001836020036101000a031916815260200191505b509250505060405180910390fd5b505050900390565b6000818361524d5760405162461bcd60e51b81526020600482018181528351602484015283519092839260449091019190850190808383600083156151bb5781810151838201526020016151a3565b50600083858161525957fe5b049594505050505056fe636f6d6d6973696f6e206e6f74206265747765656e20352520616e6420313030256d75737420737065636966792063757272656e742070726963652061636375726174656c79536166654d6174683a206d756c7469706c69636174696f6e206f766572666c6f77436f6e747261637420696e7374616e63652068617320616c7265616479206265656e20696e697469616c697a65645369676e657220616e64207369676e617475726520646f206e6f74206d61746368a26469706673582212205488efea38703324de6ce64af7bbc5e358898ff27ac84a7745ab48baa068016264736f6c634300060c0033",
  "immutableReferences": {},
  "source": "pragma solidity 0.6.12;\n\nimport \"../vendered/@openzeppelin/contracts-ethereum-package-3.0.0/contracts/math/SafeMath.sol\";\nimport \"../vendered/@openzeppelin/contracts-ethereum-package-3.0.0/contracts/Initializable.sol\";\n\nimport \"./ERC721Patronage_v1.sol\";\nimport \"./interfaces/IMintManager.sol\";\nimport \"./interfaces/IERC721Patronage.sol\";\nimport \"./interfaces/IERC20Mintable.sol\";\n\nimport \"./BasicMetaTransaction.sol\";\n// import \"./GSNRecipientBase.sol\";\n\n// import \"../vendered/gsn-2.0.0-beta.1.3/contracts/BaseRelayRecipient.sol\";\n// import \"../vendered/gsn-2.0.0-beta.1.3/contracts/interfaces/IKnowForwarderAddressGsn.sol\";\n\n// import \"@nomiclabs/buidler/console.sol\";\n\ncontract WildcardSteward_v3_matic is\n    Initializable,\n    BasicMetaTransaction\n{\n    /*\n    This smart contract collects patronage from current owner through a Harberger tax model and \n    takes stewardship of the asset token if the patron can't pay anymore.\n\n    Harberger Tax (COST):\n    - Asset is always on sale.\n    - You have to have a price set.\n    - Tax (Patronage) is paid to maintain ownership.\n    - Steward maints control over ERC721.\n    */\n    using SafeMath for uint256;\n    mapping(uint256 => uint256) public price; //in wei\n    IERC721Patronage public assetToken; // ERC721 NFT.\n\n    mapping(uint256 => uint256) deprecated_totalCollected; // THIS VALUE IS DEPRECATED\n    mapping(uint256 => uint256) deprecated_currentCollected; // THIS VALUE IS DEPRECATED\n    mapping(uint256 => uint256) deprecated_timeLastCollected; // THIS VALUE IS DEPRECATED.\n    mapping(address => uint256) public timeLastCollectedPatron;\n    mapping(address => uint256) public deposit;\n    mapping(address => uint256) public totalPatronOwnedTokenCost;\n\n    mapping(uint256 => address) public benefactors; // non-profit benefactor\n    mapping(address => uint256) public benefactorFunds;\n\n    mapping(uint256 => address) deprecated_currentPatron; // Deprecate This is different to the current token owner.\n    mapping(uint256 => mapping(address => bool)) deprecated_patrons; // Deprecate\n    mapping(uint256 => mapping(address => uint256)) deprecated_timeHeld; // Deprecate\n\n    mapping(uint256 => uint256) deprecated_timeAcquired; // deprecate\n\n    // 1200% patronage\n    mapping(uint256 => uint256) public patronageNumerator;\n    uint256 public patronageDenominator;\n\n    enum StewardState {Foreclosed, Owned}\n    mapping(uint256 => StewardState) public state;\n\n    address public admin;\n\n    //////////////// NEW variables in v2///////////////////\n    mapping(uint256 => uint256) deprecated_tokenGenerationRate; // we can reuse the patronage denominator\n\n    IMintManager public mintManager;\n    //////////////// NEW variables in v3 ///////////////////\n    uint256 public auctionStartPrice;\n    uint256 public auctionEndPrice;\n    uint256 public auctionLength;\n\n    mapping(uint256 => address) public artistAddresses; //mapping from tokenID to the artists address\n    mapping(uint256 => uint256) public serviceProviderPercentages; // mapping from tokenID to the percentage sale cut of wildcards for each token\n    mapping(uint256 => uint256) public artistPercentages; // tokenId to artist percetages. To make it configurable. 10 000 = 100%\n    mapping(uint256 => uint256) public tokenAuctionBeginTimestamp;\n\n    mapping(address => uint256) public totalPatronTokenGenerationRate; // The total token generation rate for all the tokens of the given address.\n    mapping(address => uint256) public totalBenefactorTokenNumerator;\n    mapping(address => uint256) public timeLastCollectedBenefactor; // make my name consistent please\n    mapping(address => uint256) public benefactorCredit;\n    address public withdrawCheckerAdmin;\n\n    mapping(uint256 => bool) public withdrawalNonceUsed; // if true, the nonce (part of a withdrawal signature) has already been used for a withdrawal.\n\n    /*\n    31536000 seconds = 365 days\n\n    divisor = 365 days * 1000000000000\n            = 31536000000000000000\n    */\n\n    // 11574074074074 = 10^18 / 86400 This is just less (rounded down) than one token a day.\n    //       - this can be done since all tokens have the exact same tokenGenerationRate - and hardcoding saves gas.\n    uint256 public constant globalTokenGenerationRate = 11574074074074;\n    uint256 public constant yearTimePatronagDenominator = 31536000000000000000;\n\n    IERC20Mintable public paymentToken; // ERC20 token used as payment.\n\n    event Buy(uint256 indexed tokenId, address indexed owner, uint256 price);\n    event PriceChange(uint256 indexed tokenId, uint256 newPrice);\n    event Foreclosure(address indexed prevOwner, uint256 foreclosureTime);\n    event RemainingDepositUpdate(\n        address indexed tokenPatron,\n        uint256 remainingDeposit\n    );\n\n    event AddTokenV3(\n        uint256 indexed tokenId,\n        uint256 patronageNumerator,\n        uint256 unixTimestampOfTokenAuctionStart\n    );\n\n    // QUESTION: in future versions, should these two events (CollectPatronage and CollectLoyalty) be combined into one? - they only ever happen at the same time.\n    // NOTE: this event is deprecated - it is only here for the upgrade function.\n    event CollectPatronage(\n        uint256 indexed tokenId,\n        address indexed patron,\n        uint256 remainingDeposit,\n        uint256 amountReceived\n    );\n    event CollectLoyalty(address indexed patron, uint256 amountRecieved);\n\n    event ArtistCommission(\n        uint256 indexed tokenId,\n        address artist,\n        uint256 artistCommission\n    );\n    event WithdrawBenefactorFundsWithSafetyDelay(\n        address indexed benefactor,\n        uint256 withdrawAmount\n    );\n    event WithdrawBenefactorFunds(\n        address indexed benefactor,\n        uint256 withdrawAmount\n    );\n    event UpgradeToV3();\n    event ChangeAuctionParameters();\n\n    modifier onlyPatron(uint256 tokenId) {\n        require(msgSender() == assetToken.ownerOf(tokenId), \"Not patron\");\n        _;\n    }\n\n    modifier onlyAdmin() {\n        require(msgSender() == admin, \"Not admin\");\n        _;\n    }\n\n    modifier onlyReceivingBenefactorOrAdmin(uint256 tokenId) {\n        require(\n            msgSender() == benefactors[tokenId] || msgSender() == admin,\n            \"Not benefactor or admin\"\n        );\n        _;\n    }\n\n    modifier collectPatronageAndSettleBenefactor(uint256 tokenId) {\n        _collectPatronageAndSettleBenefactor(tokenId);\n        _;\n    }\n\n    modifier collectPatronagePatron(address tokenPatron) {\n        _collectPatronagePatron(tokenPatron);\n        _;\n    }\n\n    modifier youCurrentlyAreNotInDefault(address tokenPatron) {\n        require(\n            !(deposit[tokenPatron] == 0 &&\n                totalPatronOwnedTokenCost[tokenPatron] > 0),\n            \"no deposit existing tokens\"\n        );\n        _;\n    }\n\n    modifier updateBenefactorBalance(address benefactor) {\n        _updateBenefactorBalance(benefactor);\n        _;\n    }\n\n    modifier priceGreaterThanZero(uint256 _newPrice) {\n        require(_newPrice > 0, \"Price is zero\");\n        _;\n    }\n    modifier notNullAddress(address checkAddress) {\n        require(checkAddress != address(0), \"null address\");\n        _;\n    }\n    modifier notSameAddress(address firstAddress, address secondAddress) {\n        require(firstAddress != secondAddress, \"cannot be same address\");\n        _;\n    }\n    modifier validWildcardsPercentage(\n        uint256 serviceProviderPercentage,\n        uint256 tokenID\n    ) {\n        require(\n            serviceProviderPercentage >= 50000 &&\n                serviceProviderPercentage <=\n                (1000000 - artistPercentages[tokenID]), // not sub safemath. Is this okay?\n            \"commision not between 5% and 100%\"\n        );\n        _;\n    }\n\n    function initialize(\n        address _assetToken,\n        address _admin,\n        address _mintManager,\n        address _withdrawCheckerAdmin,\n        uint256 _auctionStartPrice,\n        uint256 _auctionEndPrice,\n        uint256 _auctionLength,\n        address _paymentToken\n    ) public initializer {\n        emit UpgradeToV3();\n        assetToken = IERC721Patronage(_assetToken);\n        admin = _admin;\n        withdrawCheckerAdmin = _withdrawCheckerAdmin;\n        mintManager = IMintManager(_mintManager);\n        paymentToken = IERC20Mintable(_paymentToken);\n        _changeAuctionParameters(\n            _auctionStartPrice,\n            _auctionEndPrice,\n            _auctionLength\n        );\n    }\n\n    function uintToStr(uint256 _i)\n        internal\n        pure\n        returns (string memory _uintAsString)\n    {\n        if (_i == 0) {\n            return \"0\";\n        }\n\n        uint256 j = _i;\n        uint256 len;\n        while (j != 0) {\n            len++;\n            j /= 10;\n        }\n\n        bytes memory bstr = new bytes(len);\n        while (_i != 0) {\n            bstr[--len] = bytes1(uint8(48 + (_i % 10)));\n            _i /= 10;\n        }\n        return string(bstr);\n    }\n\n    function listNewTokens(\n        uint256[] memory tokens,\n        address[] memory _benefactors,\n        uint256[] memory _patronageNumerator,\n        address[] memory _artists,\n        uint256[] memory _artistCommission,\n        uint256[] memory _releaseDate\n    ) public onlyAdmin {\n        assert(tokens.length == _benefactors.length);\n        assert(tokens.length == _patronageNumerator.length);\n        assert(tokens.length == _releaseDate.length);\n        assert(_artists.length == _artistCommission.length);\n\n        for (uint8 i = 0; i < tokens.length; ++i) {\n            address benefactor = _benefactors[i];\n            require(_benefactors[i] != address(0), \"null address\");\n            string memory idString = uintToStr(tokens[i]);\n            string memory tokenUriBase = \"https://wildcards.xyz/token/\";\n            string memory tokenUri = string(\n                abi.encodePacked(tokenUriBase, idString)\n            );\n            assetToken.mintWithTokenURI(address(this), tokens[i], tokenUri);\n            benefactors[tokens[i]] = _benefactors[i];\n            state[tokens[i]] = StewardState.Foreclosed;\n            patronageNumerator[tokens[i]] = _patronageNumerator[i];\n            // tokenGenerationRate[tokens[i]] = _tokenGenerationRate[i];\n\n            if (_releaseDate[i] < now) {\n                tokenAuctionBeginTimestamp[tokens[i]] = now;\n            } else {\n                tokenAuctionBeginTimestamp[tokens[i]] = _releaseDate[i];\n            }\n\n            emit AddTokenV3(\n                tokens[i],\n                _patronageNumerator[i],\n                tokenAuctionBeginTimestamp[tokens[i]]\n            );\n            // Adding this after the add token emit, so graph can first capture the token before processing the change artist things\n            if (_artists.length > i) {\n                changeArtistAddressAndCommission(\n                    tokens[i],\n                    _artists[i],\n                    _artistCommission[i]\n                );\n            }\n        }\n    }\n\n    // TODO: you need an event in here!\n    function changeReceivingBenefactor(\n        uint256 tokenId,\n        address _newReceivingBenefactor\n    )\n        public\n        onlyReceivingBenefactorOrAdmin(tokenId)\n        updateBenefactorBalance(benefactors[tokenId])\n        updateBenefactorBalance(_newReceivingBenefactor)\n        notNullAddress(_newReceivingBenefactor)\n    {\n        address oldBenfactor = benefactors[tokenId];\n\n        require(\n            oldBenfactor != _newReceivingBenefactor,\n            \"cannot be same address\"\n        );\n\n        // Collect patronage from old and new benefactor before changing totalBenefactorTokenNumerator on both\n        uint256 scaledPrice = price[tokenId].mul(patronageNumerator[tokenId]);\n        totalBenefactorTokenNumerator[oldBenfactor] = totalBenefactorTokenNumerator[oldBenfactor]\n            .sub(scaledPrice);\n        totalBenefactorTokenNumerator[_newReceivingBenefactor] = totalBenefactorTokenNumerator[_newReceivingBenefactor]\n            .add(scaledPrice);\n\n        benefactors[tokenId] = _newReceivingBenefactor;\n        // NB No fund exchanging here please!\n    }\n\n    // TODO: you need an event in here!\n    // NB This function is if an organisation loses their keys etc..\n    // It will transfer their deposit to their new benefactor address\n    // It should only be called once all their tokens also changeReceivingBenefactor\n    function changeReceivingBenefactorDeposit(\n        address oldBenfactor,\n        address _newReceivingBenefactor\n    )\n        public\n        onlyAdmin\n        notNullAddress(_newReceivingBenefactor)\n        notSameAddress(oldBenfactor, _newReceivingBenefactor)\n    {\n        require(benefactorFunds[oldBenfactor] > 0, \"no funds\");\n\n        benefactorFunds[_newReceivingBenefactor] = benefactorFunds[_newReceivingBenefactor]\n            .add(benefactorFunds[oldBenfactor]);\n        benefactorFunds[oldBenfactor] = 0;\n    }\n\n    function changeAdmin(address _admin) public onlyAdmin {\n        admin = _admin;\n    }\n\n    function changeWithdrawCheckerAdmin(address _withdrawCheckerAdmin)\n        public\n        onlyAdmin\n        notNullAddress(_withdrawCheckerAdmin)\n    {\n        withdrawCheckerAdmin = _withdrawCheckerAdmin;\n    }\n\n    function changeArtistAddressAndCommission(\n        uint256 tokenId,\n        address artistAddress,\n        uint256 percentage\n    ) public onlyAdmin {\n        require(percentage <= 200000, \"not more than 20%\");\n        artistPercentages[tokenId] = percentage;\n        artistAddresses[tokenId] = artistAddress;\n        emit ArtistCommission(tokenId, artistAddress, percentage);\n    }\n\n    function _changeAuctionParameters(\n        uint256 _auctionStartPrice,\n        uint256 _auctionEndPrice,\n        uint256 _auctionLength\n    ) internal {\n        require(\n            _auctionStartPrice >= _auctionEndPrice,\n            \"auction start < auction end\"\n        );\n        require(_auctionLength >= 86400, \"1 day min auction length\");\n\n        auctionStartPrice = _auctionStartPrice;\n        auctionEndPrice = _auctionEndPrice;\n        auctionLength = _auctionLength;\n        emit ChangeAuctionParameters();\n    }\n\n    function changeAuctionParameters(\n        uint256 _auctionStartPrice,\n        uint256 _auctionEndPrice,\n        uint256 _auctionLength\n    ) external onlyAdmin {\n        _changeAuctionParameters(\n            _auctionStartPrice,\n            _auctionEndPrice,\n            _auctionLength\n        );\n    }\n\n    function patronageOwedPatron(address tokenPatron)\n        public\n        view\n        returns (uint256 patronageDue)\n    {\n        // NOTE: Leaving this code here as a reminder: totalPatronOwnedTokenCost[tokenPatron] has to be zero if timeLastCollectedPatron[tokenPatron] is zero. So effectively this line isn't needed.\n        // if (timeLastCollectedPatron[tokenPatron] == 0) return 0;\n        return\n            totalPatronOwnedTokenCost[tokenPatron]\n                .mul(now.sub(timeLastCollectedPatron[tokenPatron]))\n                .div(yearTimePatronagDenominator);\n    }\n\n    function patronageDueBenefactor(address benefactor)\n        public\n        view\n        returns (uint256 payoutDue)\n    {\n        // NOTE: Leaving this code here as a reminder: totalBenefactorTokenNumerator[tokenPatron] has to be zero if timeLastCollectedBenefactor[tokenPatron] is zero. So effectively this line isn't needed.\n        // if (timeLastCollectedBenefactor[benefactor] == 0) return 0;\n        return\n            totalBenefactorTokenNumerator[benefactor]\n                .mul(now.sub(timeLastCollectedBenefactor[benefactor]))\n                .div(yearTimePatronagDenominator);\n    }\n\n    function foreclosedPatron(address tokenPatron) public view returns (bool) {\n        if (patronageOwedPatron(tokenPatron) >= deposit[tokenPatron]) {\n            return true;\n        } else {\n            return false;\n        }\n    }\n\n    function foreclosed(uint256 tokenId) public view returns (bool) {\n        address tokenPatron = assetToken.ownerOf(tokenId);\n        return foreclosedPatron(tokenPatron);\n    }\n\n    function depositAbleToWithdraw(address tokenPatron)\n        public\n        view\n        returns (uint256)\n    {\n        uint256 collection = patronageOwedPatron(tokenPatron);\n        if (collection >= deposit[tokenPatron]) {\n            return 0;\n        } else {\n            return deposit[tokenPatron].sub(collection);\n        }\n    }\n\n    function foreclosureTimePatron(address tokenPatron)\n        public\n        view\n        returns (uint256)\n    {\n        uint256 pps = totalPatronOwnedTokenCost[tokenPatron].div(\n            yearTimePatronagDenominator\n        );\n        return now.add(depositAbleToWithdraw(tokenPatron).div(pps));\n    }\n\n    function foreclosureTime(uint256 tokenId) public view returns (uint256) {\n        address tokenPatron = assetToken.ownerOf(tokenId);\n        return foreclosureTimePatron(tokenPatron);\n    }\n\n    /* actions */\n    function _collectLoyaltyPatron(\n        address tokenPatron,\n        uint256 timeSinceLastMint\n    ) internal {\n        if (timeSinceLastMint != 0) {\n            mintManager.tokenMint(\n                tokenPatron,\n                timeSinceLastMint,\n                totalPatronTokenGenerationRate[tokenPatron]\n            );\n            emit CollectLoyalty(\n                tokenPatron,\n                timeSinceLastMint.mul(\n                    totalPatronTokenGenerationRate[tokenPatron]\n                )\n            );\n        }\n    }\n\n    // TODO: create a version of this function that only collects patronage (and only settles the benefactor if the token forecloses) - is this needed?\n    function _collectPatronageAndSettleBenefactor(uint256 tokenId) public {\n        address tokenPatron = assetToken.ownerOf(tokenId);\n        uint256 newTimeLastCollectedOnForeclosure = _collectPatronagePatron(\n            tokenPatron\n        );\n\n        address benefactor = benefactors[tokenId];\n        // bool tokenForeclosed = newTimeLastCollectedOnForeclosure > 0;\n        bool tokenIsOwned = state[tokenId] == StewardState.Owned;\n        if (newTimeLastCollectedOnForeclosure > 0 && tokenIsOwned) {\n            tokenAuctionBeginTimestamp[tokenId] =\n                // The auction starts the second after the last time collected.\n                newTimeLastCollectedOnForeclosure +\n                1;\n\n\n                uint256 patronageDueBenefactorBeforeForeclosure\n             = patronageDueBenefactor(benefactor);\n\n            _foreclose(tokenId);\n\n            uint256 amountOverCredited = price[tokenId]\n                .mul(now.sub(newTimeLastCollectedOnForeclosure))\n                .mul(patronageNumerator[tokenId])\n                .div(yearTimePatronagDenominator);\n\n            if (amountOverCredited < patronageDueBenefactorBeforeForeclosure) {\n                _increaseBenefactorBalance(\n                    benefactor,\n                    patronageDueBenefactorBeforeForeclosure - amountOverCredited\n                );\n            } else {\n                _decreaseBenefactorBalance(\n                    benefactor,\n                    amountOverCredited - patronageDueBenefactorBeforeForeclosure\n                );\n            }\n\n            timeLastCollectedBenefactor[benefactor] = now;\n        } else {\n            _updateBenefactorBalance(benefactor);\n        }\n    }\n\n    // function safeSend(uint256 _wei, address payable recipient)\n    //     internal\n    //     returns (bool transferSuccess)\n    // {\n    //     (transferSuccess, ) = recipient.call.gas(2300).value(_wei)(\"\");\n    // }\n\n    function sendErc20(uint256 _wei, address recipient)\n        internal\n        returns (bool transferSuccess)\n    {\n        // try adaiContract.redeem(amount)  {\n        return paymentToken.transfer(recipient, _wei);\n        // } catch {\n        //   emit ADaiRedeemFailed();\n        //   adaiContract.transfer(msgSender(), amount);\n        // }\n    }\n\n    function receiveErc20(uint256 amount, address from)\n        internal\n        returns (bool transferSuccess)\n    {\n        return paymentToken.transferFrom(msgSender(), address(this), amount);\n    }\n\n    // if credit balance exists,\n    // if amount owed > creidt\n    // credit zero add amount\n    // else reduce credit by certain amount.\n    // else if credit balance doesn't exist\n    // add amount to balance\n    // TODO: this function should have an event\n    function _updateBenefactorBalance(address benefactor) public {\n        uint256 patronageDueForBenefactor = patronageDueBenefactor(benefactor);\n\n        if (patronageDueForBenefactor > 0) {\n            _increaseBenefactorBalance(benefactor, patronageDueForBenefactor);\n        }\n\n        timeLastCollectedBenefactor[benefactor] = now;\n    }\n\n    function _increaseBenefactorBalance(\n        address benefactor,\n        uint256 patronageDueBenefactor\n    ) internal {\n        if (benefactorCredit[benefactor] > 0) {\n            if (patronageDueBenefactor < benefactorCredit[benefactor]) {\n                benefactorCredit[benefactor] = benefactorCredit[benefactor].sub(\n                    patronageDueBenefactor\n                );\n            } else {\n                benefactorFunds[benefactor] = patronageDueBenefactor.sub(\n                    benefactorCredit[benefactor]\n                );\n                benefactorCredit[benefactor] = 0;\n            }\n        } else {\n            benefactorFunds[benefactor] = benefactorFunds[benefactor].add(\n                patronageDueBenefactor\n            );\n        }\n    }\n\n    function _decreaseBenefactorBalance(\n        address benefactor,\n        uint256 amountOverCredited\n    ) internal {\n        if (benefactorFunds[benefactor] > 0) {\n            if (amountOverCredited <= benefactorFunds[benefactor]) {\n                benefactorFunds[benefactor] = benefactorFunds[benefactor].sub(\n                    amountOverCredited\n                );\n            } else {\n                benefactorCredit[benefactor] = amountOverCredited.sub(\n                    benefactorFunds[benefactor]\n                );\n                benefactorFunds[benefactor] = 0;\n            }\n        } else {\n            benefactorCredit[benefactor] = benefactorCredit[benefactor].add(\n                amountOverCredited\n            );\n        }\n    }\n\n    function fundsDueForAuctionPeriodAtCurrentRate(address benefactor)\n        internal\n        view\n        returns (uint256)\n    {\n        return\n            totalBenefactorTokenNumerator[benefactor].mul(auctionLength).div(\n                yearTimePatronagDenominator\n            ); // 365 days * 1000000000000\n    }\n\n    function withdrawBenefactorFundsTo(address benefactor) public {\n        _updateBenefactorBalance(benefactor);\n\n        uint256 availableToWithdraw = benefactorFunds[benefactor];\n\n\n            uint256 benefactorWithdrawalSafetyDiscount\n         = fundsDueForAuctionPeriodAtCurrentRate(benefactor);\n\n        require(\n            availableToWithdraw > benefactorWithdrawalSafetyDiscount,\n            \"no funds\"\n        );\n\n        // NOTE: no need for safe-maths, above require prevents issues.\n        uint256 amountToWithdraw = availableToWithdraw -\n            benefactorWithdrawalSafetyDiscount;\n\n        benefactorFunds[benefactor] = benefactorWithdrawalSafetyDiscount;\n        if (sendErc20(amountToWithdraw, benefactor)) {\n            emit WithdrawBenefactorFundsWithSafetyDelay(\n                benefactor,\n                amountToWithdraw\n            );\n        } else {\n            // TODO: add an error in unsuccessful withdrawal.\n            benefactorFunds[benefactor] = benefactorFunds[benefactor].add(\n                amountToWithdraw\n            );\n        }\n    }\n\n    function hasher(\n        address benefactor,\n        uint256 maxAmount,\n        uint256 expiry,\n        uint256 nonce\n    ) public view returns (bytes32) {\n        // In ethereum you have to prepend all signature hashes with this message (supposedly to prevent people from)\n        return\n            keccak256(\n                abi.encodePacked(\n                    \"\\x19Ethereum Signed Message:\\n32\",\n                    keccak256(\n                        abi.encodePacked(benefactor, maxAmount, expiry, nonce)\n                    )\n                )\n            );\n    }\n\n    function withdrawBenefactorFundsToValidated(\n        address benefactor,\n        uint256 maxAmount,\n        uint256 expiry,\n        uint256 nonce,\n        bytes32 hash,\n        uint8 v,\n        bytes32 r,\n        bytes32 s\n    ) public {\n        require(\n            ecrecover(hash, v, r, s) == withdrawCheckerAdmin,\n            \"no permission to withdraw\"\n        );\n        require(!withdrawalNonceUsed[nonce], \"nonce already used\");\n        require(\n            hash == hasher(benefactor, maxAmount, expiry, nonce),\n            \"incorrect hash\"\n        );\n        require(now < expiry, \"coupon expired\");\n        withdrawalNonceUsed[nonce] = true;\n\n        _updateBenefactorBalance(benefactor);\n\n        uint256 availableToWithdraw = benefactorFunds[benefactor];\n\n        if (availableToWithdraw > 0) {\n            if (availableToWithdraw > maxAmount) {\n                if (sendErc20(maxAmount, benefactor)) {\n                    benefactorFunds[benefactor] = availableToWithdraw.sub(\n                        maxAmount\n                    );\n                    emit WithdrawBenefactorFunds(\n                        benefactor,\n                        availableToWithdraw\n                    );\n                }\n            } else {\n                uint256 contractBalance = paymentToken.balanceOf(address(this));\n\n                if (sendErc20(availableToWithdraw, benefactor)) {\n                    // TODO: re-entrancy\n                    benefactorFunds[benefactor] = 0;\n                    emit WithdrawBenefactorFunds(\n                        benefactor,\n                        availableToWithdraw\n                    );\n                }\n            }\n        }\n    }\n\n    function _collectPatronagePatron(address tokenPatron)\n        public\n        returns (uint256 newTimeLastCollectedOnForeclosure)\n    {\n        uint256 patronageOwedByTokenPatron = patronageOwedPatron(tokenPatron);\n\n        uint256 timeSinceLastMint;\n\n        if (\n            patronageOwedByTokenPatron > 0 &&\n            patronageOwedByTokenPatron > deposit[tokenPatron]\n        ) {\n\n                uint256 previousCollectionTime\n             = timeLastCollectedPatron[tokenPatron];\n            newTimeLastCollectedOnForeclosure = previousCollectionTime.add(\n                (\n                    (now.sub(previousCollectionTime))\n                        .mul(deposit[tokenPatron])\n                        .div(patronageOwedByTokenPatron)\n                )\n            );\n            timeLastCollectedPatron[tokenPatron] = newTimeLastCollectedOnForeclosure;\n            deposit[tokenPatron] = 0;\n            timeSinceLastMint = (\n                newTimeLastCollectedOnForeclosure.sub(previousCollectionTime)\n            );\n        } else {\n            timeSinceLastMint = now.sub(timeLastCollectedPatron[tokenPatron]);\n            timeLastCollectedPatron[tokenPatron] = now;\n            deposit[tokenPatron] = deposit[tokenPatron].sub(\n                patronageOwedByTokenPatron\n            );\n        }\n\n        _collectLoyaltyPatron(tokenPatron, timeSinceLastMint);\n        emit RemainingDepositUpdate(tokenPatron, deposit[tokenPatron]);\n    }\n\n    function depositWei(uint256 amount) public {\n        depositWeiPatron(msgSender(), amount);\n    }\n\n    // Which the 'approve' function in erc20 this function is unsafe to be public.\n    function depositWeiPatron(address patron, uint256 amount) internal {\n        require(totalPatronOwnedTokenCost[patron] > 0, \"no tokens\");\n        deposit[patron] = deposit[patron].add(amount);\n        receiveErc20(amount, patron);\n        emit RemainingDepositUpdate(patron, deposit[patron]);\n    }\n\n    function _auctionPrice(uint256 tokenId) internal view returns (uint256) {\n        uint256 auctionEnd = tokenAuctionBeginTimestamp[tokenId].add(\n            auctionLength\n        );\n\n        // If it is not brand new and foreclosed, use the foreclosre auction price.\n        uint256 _auctionStartPrice;\n        if (price[tokenId] != 0 && price[tokenId] > auctionEndPrice) {\n            _auctionStartPrice = price[tokenId];\n        } else {\n            // Otherwise use starting auction price\n            _auctionStartPrice = auctionStartPrice;\n        }\n\n        if (now >= auctionEnd) {\n            return auctionEndPrice;\n        } else {\n            // startPrice - ( ( (startPrice - endPrice) * howLongThisAuctionBeenGoing ) / auctionLength )\n            return\n                _auctionStartPrice.sub(\n                    (_auctionStartPrice.sub(auctionEndPrice))\n                        .mul(now.sub(tokenAuctionBeginTimestamp[tokenId]))\n                        .div(auctionLength)\n                );\n        }\n    }\n\n    function buy(\n        uint256 tokenId,\n        uint256 _newPrice,\n        uint256 previousPrice,\n        uint256 serviceProviderPercentage,\n        uint256 depositAmount\n    )\n        public\n        collectPatronageAndSettleBenefactor(tokenId)\n        collectPatronagePatron(msgSender())\n        priceGreaterThanZero(_newPrice)\n        youCurrentlyAreNotInDefault(msgSender())\n        validWildcardsPercentage(serviceProviderPercentage, tokenId)\n    {\n        require(state[tokenId] == StewardState.Owned, \"token on auction\");\n        require(\n            price[tokenId] == previousPrice,\n            \"must specify current price accurately\"\n        );\n        receiveErc20(depositAmount.add(price[tokenId]), msgSender());\n        address owner = assetToken.ownerOf(tokenId);\n\n        _distributePurchaseProceeds(tokenId);\n\n        serviceProviderPercentages[tokenId] = serviceProviderPercentage;\n        deposit[msgSender()] = deposit[msgSender()].add(depositAmount);\n        transferAssetTokenTo(\n            tokenId,\n            assetToken.ownerOf(tokenId),\n            msgSender(),\n            _newPrice\n        );\n        emit Buy(tokenId, msgSender(), _newPrice);\n    }\n\n    function buyAuction(\n        uint256 tokenId,\n        uint256 _newPrice,\n        uint256 serviceProviderPercentage,\n        uint256 depositAmount\n    )\n        public\n        collectPatronageAndSettleBenefactor(tokenId)\n        collectPatronagePatron(msgSender())\n        priceGreaterThanZero(_newPrice)\n        youCurrentlyAreNotInDefault(msgSender())\n        validWildcardsPercentage(serviceProviderPercentage, tokenId)\n    {\n        require(\n            state[tokenId] == StewardState.Foreclosed,\n            \"token not foreclosed\"\n        );\n        require(now >= tokenAuctionBeginTimestamp[tokenId], \"not on auction\");\n        uint256 auctionTokenPrice = _auctionPrice(tokenId);\n\n        // uint256 remainingValueForDeposit = msg.value.sub(auctionTokenPrice);\n\n        _distributeAuctionProceeds(tokenId);\n\n        state[tokenId] = StewardState.Owned;\n\n        serviceProviderPercentages[tokenId] = serviceProviderPercentage;\n        receiveErc20(depositAmount.add(auctionTokenPrice), msgSender());\n        deposit[msgSender()] = deposit[msgSender()].add(depositAmount);\n        transferAssetTokenTo(\n            tokenId,\n            assetToken.ownerOf(tokenId),\n            msgSender(),\n            _newPrice\n        );\n        emit Buy(tokenId, msgSender(), _newPrice);\n    }\n\n    function _distributeAuctionProceeds(uint256 tokenId) internal {\n        uint256 totalAmount = price[tokenId];\n        uint256 artistAmount;\n        if (artistPercentages[tokenId] == 0) {\n            artistAmount = 0;\n        } else {\n            artistAmount = totalAmount.mul(artistPercentages[tokenId]).div(\n                1000000\n            );\n            deposit[artistAddresses[tokenId]] = deposit[artistAddresses[tokenId]]\n                .add(artistAmount);\n        }\n        uint256 wildcardsAmount = totalAmount.sub(artistAmount);\n        deposit[admin] = deposit[admin].add(wildcardsAmount);\n    }\n\n    function _distributePurchaseProceeds(uint256 tokenId) internal {\n        uint256 totalAmount = price[tokenId];\n        address tokenPatron = assetToken.ownerOf(tokenId);\n        // Wildcards percentage calc\n        if (serviceProviderPercentages[tokenId] == 0) {\n            serviceProviderPercentages[tokenId] = 50000;\n        }\n        uint256 wildcardsAmount = totalAmount\n            .mul(serviceProviderPercentages[tokenId])\n            .div(1000000);\n\n        // Artist percentage calc\n        uint256 artistAmount;\n        if (artistPercentages[tokenId] == 0) {\n            artistAmount = 0;\n        } else {\n            artistAmount = totalAmount.mul(artistPercentages[tokenId]).div(\n                1000000\n            );\n            deposit[artistAddresses[tokenId]] = deposit[artistAddresses[tokenId]]\n                .add(artistAmount);\n        }\n\n        uint256 previousOwnerProceedsFromSale = totalAmount\n            .sub(wildcardsAmount)\n            .sub(artistAmount);\n        if (\n            totalPatronOwnedTokenCost[tokenPatron] ==\n            price[tokenId].mul(patronageNumerator[tokenId])\n        ) {\n            previousOwnerProceedsFromSale = previousOwnerProceedsFromSale.add(\n                deposit[tokenPatron]\n            );\n            deposit[tokenPatron] = 0;\n            // address payableCurrentPatron = address(uint160(tokenPatron));\n            // (bool transferSuccess, ) = payableCurrentPatron\n            //     .call\n            //     .gas(2300)\n            //     .value(previousOwnerProceedsFromSale)(\"\");\n            // if (!transferSuccess) {\n            //     deposit[tokenPatron] = deposit[tokenPatron].add(\n            //         previousOwnerProceedsFromSale\n            //     );\n            // }\n\n            sendErc20(previousOwnerProceedsFromSale, tokenPatron);\n        } else {\n            deposit[tokenPatron] = deposit[tokenPatron].add(\n                previousOwnerProceedsFromSale\n            );\n        }\n\n        deposit[admin] = deposit[admin].add(wildcardsAmount);\n    }\n\n    function changePrice(uint256 tokenId, uint256 _newPrice)\n        public\n        onlyPatron(tokenId)\n        collectPatronageAndSettleBenefactor(tokenId)\n    {\n        require(state[tokenId] != StewardState.Foreclosed, \"foreclosed\");\n        require(_newPrice != 0, \"incorrect price\");\n        require(_newPrice < 10000 ether, \"exceeds max price\");\n\n        uint256 oldPriceScaled = price[tokenId].mul(\n            patronageNumerator[tokenId]\n        );\n        uint256 newPriceScaled = _newPrice.mul(patronageNumerator[tokenId]);\n        address tokenBenefactor = benefactors[tokenId];\n\n        totalPatronOwnedTokenCost[msgSender()] = totalPatronOwnedTokenCost[msg\n            .sender]\n            .sub(oldPriceScaled)\n            .add(newPriceScaled);\n\n        totalBenefactorTokenNumerator[tokenBenefactor] = totalBenefactorTokenNumerator[tokenBenefactor]\n            .sub(oldPriceScaled)\n            .add(newPriceScaled);\n\n        price[tokenId] = _newPrice;\n        emit PriceChange(tokenId, price[tokenId]);\n    }\n\n    function withdrawDeposit(uint256 _wei)\n        public\n        collectPatronagePatron(msgSender())\n        returns (uint256)\n    {\n        _withdrawDeposit(_wei);\n    }\n\n    function withdrawBenefactorFunds() public {\n        withdrawBenefactorFundsTo(msgSender());\n    }\n\n    function exit() public collectPatronagePatron(msgSender()) {\n        _withdrawDeposit(deposit[msgSender()]);\n    }\n\n    function _withdrawDeposit(uint256 _wei) internal {\n        require(deposit[msgSender()] >= _wei, \"withdrawing too much\");\n\n        deposit[msgSender()] = deposit[msgSender()].sub(_wei);\n\n        if (!sendErc20(_wei, msgSender())) {\n            revert(\"withdrawal failed\");\n        }\n    }\n\n    function _foreclose(uint256 tokenId) internal {\n        address currentOwner = assetToken.ownerOf(tokenId);\n        resetTokenOnForeclosure(tokenId, currentOwner);\n        state[tokenId] = StewardState.Foreclosed;\n\n        emit Foreclosure(currentOwner, timeLastCollectedPatron[currentOwner]);\n    }\n\n    function transferAssetTokenTo(\n        uint256 tokenId,\n        address _currentOwner,\n        address _newOwner,\n        uint256 _newPrice\n    ) internal {\n        require(_newPrice < 10000 ether, \"exceeds max price\");\n\n        uint256 scaledOldPrice = price[tokenId].mul(\n            patronageNumerator[tokenId]\n        );\n        uint256 scaledNewPrice = _newPrice.mul(patronageNumerator[tokenId]);\n\n        totalPatronOwnedTokenCost[_newOwner] = totalPatronOwnedTokenCost[_newOwner]\n            .add(scaledNewPrice);\n        totalPatronTokenGenerationRate[_newOwner] = totalPatronTokenGenerationRate[_newOwner]\n            .add(globalTokenGenerationRate);\n\n        address tokenBenefactor = benefactors[tokenId];\n        totalBenefactorTokenNumerator[tokenBenefactor] = totalBenefactorTokenNumerator[tokenBenefactor]\n            .add(scaledNewPrice);\n\n        if (_currentOwner != address(this) && _currentOwner != address(0)) {\n            totalPatronOwnedTokenCost[_currentOwner] = totalPatronOwnedTokenCost[_currentOwner]\n                .sub(scaledOldPrice);\n\n            totalPatronTokenGenerationRate[_currentOwner] = totalPatronTokenGenerationRate[_currentOwner]\n                .sub(globalTokenGenerationRate);\n\n            totalBenefactorTokenNumerator[tokenBenefactor] = totalBenefactorTokenNumerator[tokenBenefactor]\n                .sub(scaledOldPrice);\n        }\n\n        assetToken.transferFrom(_currentOwner, _newOwner, tokenId);\n\n        price[tokenId] = _newPrice;\n    }\n\n    function resetTokenOnForeclosure(uint256 tokenId, address _currentOwner)\n        internal\n    {\n        uint256 scaledPrice = price[tokenId].mul(patronageNumerator[tokenId]);\n\n        totalPatronOwnedTokenCost[_currentOwner] = totalPatronOwnedTokenCost[_currentOwner]\n            .sub(scaledPrice);\n\n        totalPatronTokenGenerationRate[_currentOwner] = totalPatronTokenGenerationRate[_currentOwner]\n            .sub((globalTokenGenerationRate));\n\n        address tokenBenefactor = benefactors[tokenId];\n        totalBenefactorTokenNumerator[tokenBenefactor] = totalBenefactorTokenNumerator[tokenBenefactor]\n            .sub(scaledPrice);\n\n        assetToken.transferFrom(_currentOwner, address(this), tokenId);\n    }\n\n\n    // THIS CODE IS PURELY FOR TESTING GSN - IT DOES NOTHING!\n    event TestEvent(address sender, address paymentTokenAdr, address randomArg);\n\n    function testFunctionThatDoesNothing(address randomArg) public {\n        emit TestEvent(msgSender(), address(paymentToken), randomArg);\n    }\n}\n",
  "sourcePath": "/Users/marvinkruse/Git/misc/contracts/contracts/WildcardSteward_v3_matic.sol",
  "compiler": {
    "name": "solc",
    "version": "0.6.12+commit.27d51765.Emscripten.clang"
  },
  "schemaVersion": "3.1.0",
  "updatedAt": "2020-10-08T08:52:25.864Z",
  "networkType": "ethereum",
  "devdoc": {
    "kind": "dev",
    "methods": {
      "executeMetaTransaction(address,bytes,bytes32,bytes32,uint8)": {
        "params": {
          "functionSignature": "Signature of the actual function to be called via meta transaction",
          "sigR": "R part of the signature",
          "sigS": "S part of the signature",
          "sigV": "V part of the signature",
          "userAddress": "Address of user trying to do meta transaction"
        }
      }
    },
    "version": 1
  },
  "userdoc": {
    "kind": "user",
    "methods": {
      "executeMetaTransaction(address,bytes,bytes32,bytes32,uint8)": {
        "notice": "Main function to be called when user wants to execute meta transaction. The actual function to be called should be passed as param with name functionSignature Here the basic signature recovery is being used. Signature is expected to be generated using personal_sign method."
      }
    },
    "version": 1
  }
}