{
  "contractName": "ERC721Patronage_v0",
  "abi": [
    {
      "constant": true,
      "inputs": [
        {
          "name": "interfaceId",
          "type": "bytes4"
        }
      ],
      "name": "supportsInterface",
      "outputs": [
        {
          "name": "",
          "type": "bool"
        }
      ],
      "payable": false,
      "stateMutability": "view",
      "type": "function"
    },
    {
      "constant": true,
      "inputs": [],
      "name": "name",
      "outputs": [
        {
          "name": "",
          "type": "string"
        }
      ],
      "payable": false,
      "stateMutability": "view",
      "type": "function"
    },
    {
      "constant": true,
      "inputs": [
        {
          "name": "tokenId",
          "type": "uint256"
        }
      ],
      "name": "getApproved",
      "outputs": [
        {
          "name": "",
          "type": "address"
        }
      ],
      "payable": false,
      "stateMutability": "view",
      "type": "function"
    },
    {
      "constant": false,
      "inputs": [
        {
          "name": "to",
          "type": "address"
        },
        {
          "name": "tokenId",
          "type": "uint256"
        }
      ],
      "name": "approve",
      "outputs": [],
      "payable": false,
      "stateMutability": "nonpayable",
      "type": "function"
    },
    {
      "constant": true,
      "inputs": [],
      "name": "totalSupply",
      "outputs": [
        {
          "name": "",
          "type": "uint256"
        }
      ],
      "payable": false,
      "stateMutability": "view",
      "type": "function"
    },
    {
      "constant": false,
      "inputs": [
        {
          "name": "from",
          "type": "address"
        },
        {
          "name": "to",
          "type": "address"
        },
        {
          "name": "tokenId",
          "type": "uint256"
        }
      ],
      "name": "transferFrom",
      "outputs": [],
      "payable": false,
      "stateMutability": "nonpayable",
      "type": "function"
    },
    {
      "constant": true,
      "inputs": [
        {
          "name": "owner",
          "type": "address"
        },
        {
          "name": "index",
          "type": "uint256"
        }
      ],
      "name": "tokenOfOwnerByIndex",
      "outputs": [
        {
          "name": "",
          "type": "uint256"
        }
      ],
      "payable": false,
      "stateMutability": "view",
      "type": "function"
    },
    {
      "constant": false,
      "inputs": [
        {
          "name": "from",
          "type": "address"
        },
        {
          "name": "to",
          "type": "address"
        },
        {
          "name": "tokenId",
          "type": "uint256"
        }
      ],
      "name": "safeTransferFrom",
      "outputs": [],
      "payable": false,
      "stateMutability": "nonpayable",
      "type": "function"
    },
    {
      "constant": false,
      "inputs": [
        {
          "name": "name",
          "type": "string"
        },
        {
          "name": "symbol",
          "type": "string"
        }
      ],
      "name": "initialize",
      "outputs": [],
      "payable": false,
      "stateMutability": "nonpayable",
      "type": "function"
    },
    {
      "constant": true,
      "inputs": [
        {
          "name": "index",
          "type": "uint256"
        }
      ],
      "name": "tokenByIndex",
      "outputs": [
        {
          "name": "",
          "type": "uint256"
        }
      ],
      "payable": false,
      "stateMutability": "view",
      "type": "function"
    },
    {
      "constant": false,
      "inputs": [
        {
          "name": "to",
          "type": "address"
        },
        {
          "name": "tokenId",
          "type": "uint256"
        },
        {
          "name": "tokenURI",
          "type": "string"
        }
      ],
      "name": "mintWithTokenURI",
      "outputs": [
        {
          "name": "",
          "type": "bool"
        }
      ],
      "payable": false,
      "stateMutability": "nonpayable",
      "type": "function"
    },
    {
      "constant": true,
      "inputs": [
        {
          "name": "tokenId",
          "type": "uint256"
        }
      ],
      "name": "ownerOf",
      "outputs": [
        {
          "name": "",
          "type": "address"
        }
      ],
      "payable": false,
      "stateMutability": "view",
      "type": "function"
    },
    {
      "constant": true,
      "inputs": [],
      "name": "steward",
      "outputs": [
        {
          "name": "",
          "type": "address"
        }
      ],
      "payable": false,
      "stateMutability": "view",
      "type": "function"
    },
    {
      "constant": true,
      "inputs": [
        {
          "name": "owner",
          "type": "address"
        }
      ],
      "name": "balanceOf",
      "outputs": [
        {
          "name": "",
          "type": "uint256"
        }
      ],
      "payable": false,
      "stateMutability": "view",
      "type": "function"
    },
    {
      "constant": false,
      "inputs": [],
      "name": "initialize",
      "outputs": [],
      "payable": false,
      "stateMutability": "nonpayable",
      "type": "function"
    },
    {
      "constant": true,
      "inputs": [],
      "name": "symbol",
      "outputs": [
        {
          "name": "",
          "type": "string"
        }
      ],
      "payable": false,
      "stateMutability": "view",
      "type": "function"
    },
    {
      "constant": false,
      "inputs": [
        {
          "name": "account",
          "type": "address"
        }
      ],
      "name": "addMinter",
      "outputs": [],
      "payable": false,
      "stateMutability": "nonpayable",
      "type": "function"
    },
    {
      "constant": false,
      "inputs": [],
      "name": "renounceMinter",
      "outputs": [],
      "payable": false,
      "stateMutability": "nonpayable",
      "type": "function"
    },
    {
      "constant": false,
      "inputs": [
        {
          "name": "to",
          "type": "address"
        },
        {
          "name": "approved",
          "type": "bool"
        }
      ],
      "name": "setApprovalForAll",
      "outputs": [],
      "payable": false,
      "stateMutability": "nonpayable",
      "type": "function"
    },
    {
      "constant": true,
      "inputs": [
        {
          "name": "account",
          "type": "address"
        }
      ],
      "name": "isMinter",
      "outputs": [
        {
          "name": "",
          "type": "bool"
        }
      ],
      "payable": false,
      "stateMutability": "view",
      "type": "function"
    },
    {
      "constant": false,
      "inputs": [
        {
          "name": "from",
          "type": "address"
        },
        {
          "name": "to",
          "type": "address"
        },
        {
          "name": "tokenId",
          "type": "uint256"
        },
        {
          "name": "_data",
          "type": "bytes"
        }
      ],
      "name": "safeTransferFrom",
      "outputs": [],
      "payable": false,
      "stateMutability": "nonpayable",
      "type": "function"
    },
    {
      "constant": false,
      "inputs": [
        {
          "name": "sender",
          "type": "address"
        }
      ],
      "name": "initialize",
      "outputs": [],
      "payable": false,
      "stateMutability": "nonpayable",
      "type": "function"
    },
    {
      "constant": true,
      "inputs": [
        {
          "name": "tokenId",
          "type": "uint256"
        }
      ],
      "name": "tokenURI",
      "outputs": [
        {
          "name": "",
          "type": "string"
        }
      ],
      "payable": false,
      "stateMutability": "view",
      "type": "function"
    },
    {
      "constant": true,
      "inputs": [
        {
          "name": "owner",
          "type": "address"
        },
        {
          "name": "operator",
          "type": "address"
        }
      ],
      "name": "isApprovedForAll",
      "outputs": [
        {
          "name": "",
          "type": "bool"
        }
      ],
      "payable": false,
      "stateMutability": "view",
      "type": "function"
    },
    {
      "anonymous": false,
      "inputs": [
        {
          "indexed": true,
          "name": "account",
          "type": "address"
        }
      ],
      "name": "MinterAdded",
      "type": "event"
    },
    {
      "anonymous": false,
      "inputs": [
        {
          "indexed": true,
          "name": "account",
          "type": "address"
        }
      ],
      "name": "MinterRemoved",
      "type": "event"
    },
    {
      "anonymous": false,
      "inputs": [
        {
          "indexed": true,
          "name": "from",
          "type": "address"
        },
        {
          "indexed": true,
          "name": "to",
          "type": "address"
        },
        {
          "indexed": true,
          "name": "tokenId",
          "type": "uint256"
        }
      ],
      "name": "Transfer",
      "type": "event"
    },
    {
      "anonymous": false,
      "inputs": [
        {
          "indexed": true,
          "name": "owner",
          "type": "address"
        },
        {
          "indexed": true,
          "name": "approved",
          "type": "address"
        },
        {
          "indexed": true,
          "name": "tokenId",
          "type": "uint256"
        }
      ],
      "name": "Approval",
      "type": "event"
    },
    {
      "anonymous": false,
      "inputs": [
        {
          "indexed": true,
          "name": "owner",
          "type": "address"
        },
        {
          "indexed": true,
          "name": "operator",
          "type": "address"
        },
        {
          "indexed": false,
          "name": "approved",
          "type": "bool"
        }
      ],
      "name": "ApprovalForAll",
      "type": "event"
    },
    {
      "constant": false,
      "inputs": [
        {
          "name": "_steward",
          "type": "address"
        },
        {
          "name": "name",
          "type": "string"
        },
        {
          "name": "symbol",
          "type": "string"
        },
        {
          "name": "minter",
          "type": "address"
        }
      ],
      "name": "setup",
      "outputs": [],
      "payable": false,
      "stateMutability": "nonpayable",
      "type": "function"
    }
  ],
  "bytecode": "0x6080604052611fb4806100136000396000f3fe608060405234801561001057600080fd5b5060043610610190576000357c0100000000000000000000000000000000000000000000000000000000900480636352211e116100fb57806398650275116100b4578063b88d4fde1161008e578063b88d4fde14610790578063c4d66de814610856578063c87b56dd1461087c578063e985e9c51461089957610190565b80639865027514610734578063a22cb4651461073c578063aa271e1a1461076a57610190565b80636352211e146106b3578063637eea19146106d057806370a08231146106d85780638129fc1c146106fe57806395d89b4114610706578063983b2d561461070e57610190565b80632f745c591161014d5780632f745c59146103045780633aaac28e1461033057806342842e0e146104785780634cd88b76146104ae5780634f6ccce7146105db57806350bb4e7f146105f857610190565b806301ffc9a71461019557806306fdde03146101d0578063081812fc1461024d578063095ea7b31461028657806318160ddd146102b457806323b872dd146102ce575b600080fd5b6101bc600480360360208110156101ab57600080fd5b5035600160e060020a0319166108c7565b604080519115158252519081900360200190f35b6101d86108e6565b6040805160208082528351818301528351919283929083019185019080838360005b838110156102125781810151838201526020016101fa565b50505050905090810190601f16801561023f5780820380516001836020036101000a031916815260200191505b509250505060405180910390f35b61026a6004803603602081101561026357600080fd5b503561097d565b60408051600160a060020a039092168252519081900360200190f35b6102b26004803603604081101561029c57600080fd5b50600160a060020a0381351690602001356109af565b005b6102bc610ae6565b60408051918252519081900360200190f35b6102b2600480360360608110156102e457600080fd5b50600160a060020a03813581169160208101359091169060400135610aec565b6102bc6004803603604081101561031a57600080fd5b50600160a060020a038135169060200135610b4d565b6102b26004803603608081101561034657600080fd5b600160a060020a03823516919081019060408101602082013564010000000081111561037157600080fd5b82018360208201111561038357600080fd5b803590602001918460018302840111640100000000831117156103a557600080fd5b91908080601f01602080910402602001604051908101604052809392919081815260200183838082843760009201919091525092959493602081019350359150506401000000008111156103f857600080fd5b82018360208201111561040a57600080fd5b8035906020019184600183028401116401000000008311171561042c57600080fd5b91908080601f01602080910402602001604051908101604052809392919081815260200183838082843760009201919091525092955050509035600160a060020a03169150610b9a9050565b6102b26004803603606081101561048e57600080fd5b50600160a060020a03813581169160208101359091169060400135610ca3565b6102b2600480360360408110156104c457600080fd5b8101906020810181356401000000008111156104df57600080fd5b8201836020820111156104f157600080fd5b8035906020019184600183028401116401000000008311171561051357600080fd5b91908080601f016020809104026020016040519081016040528093929190818152602001838380828437600092019190915250929594936020810193503591505064010000000081111561056657600080fd5b82018360208201111561057857600080fd5b8035906020019184600183028401116401000000008311171561059a57600080fd5b91908080601f016020809104026020016040519081016040528093929190818152602001838380828437600092019190915250929550610cbf945050505050565b6102bc600480360360208110156105f157600080fd5b5035610dcb565b6101bc6004803603606081101561060e57600080fd5b600160a060020a038235169160208101359181019060608101604082013564010000000081111561063e57600080fd5b82018360208201111561065057600080fd5b8035906020019184600183028401116401000000008311171561067257600080fd5b91908080601f016020809104026020016040519081016040528093929190818152602001838380828437600092019190915250929550610e00945050505050565b61026a600480360360208110156106c957600080fd5b5035610e70565b61026a610e9a565b6102bc600480360360208110156106ee57600080fd5b5035600160a060020a0316610eaa565b6102b2610ee2565b6101d8610fc5565b6102b26004803603602081101561072457600080fd5b5035600160a060020a0316611026565b6102b261107a565b6102b26004803603604081101561075257600080fd5b50600160a060020a038135169060200135151561108c565b6101bc6004803603602081101561078057600080fd5b5035600160a060020a031661118e565b6102b2600480360360808110156107a657600080fd5b600160a060020a038235811692602081013590911691604082013591908101906080810160608201356401000000008111156107e157600080fd5b8201836020820111156107f357600080fd5b8035906020019184600183028401116401000000008311171561081557600080fd5b91908080601f0160208091040260200160405190810160405280939291908181526020018383808284376000920191909152509295506111a2945050505050565b6102b26004803603602081101561086c57600080fd5b5035600160a060020a03166111ca565b6101d86004803603602081101561089257600080fd5b50356112a1565b6101bc600480360360408110156108af57600080fd5b50600160a060020a0381358116916020013516611356565b600160e060020a03191660009081526033602052604090205460ff1690565b60d28054604080516020601f60026000196101006001881615020190951694909404938401819004810282018101909252828152606093909290918301828280156109725780601f1061094757610100808354040283529160200191610972565b820191906000526020600020905b81548152906001019060200180831161095557829003601f168201915b505050505090505b90565b600061098882611384565b151561099357600080fd5b50600090815260676020526040902054600160a060020a031690565b60006109ba82610e70565b9050600160a060020a038381169082161415610a0a5760405160e560020a62461bcd028152600401808060200182810382526021815260200180611f376021913960400191505060405180910390fd5b80600160a060020a0316610a1c6113a1565b600160a060020a03161480610a3d5750610a3d81610a386113a1565b611356565b1515610a7d5760405160e560020a62461bcd028152600401808060200182810382526038815260200180611ea16038913960400191505060405180910390fd5b600082815260676020526040808220805473ffffffffffffffffffffffffffffffffffffffff1916600160a060020a0387811691821790925591518593918516917f8c5be1e5ebec7d5bd14f71427d1e84f3dd0314c0f7b2291e5b200ac8c7c3b92591a4505050565b609e5490565b610afd610af76113a1565b826113a5565b1515610b3d5760405160e560020a62461bcd028152600401808060200182810382526031815260200180611f586031913960400191505060405180910390fd5b610b488383836113d1565b505050565b6000610b5883610eaa565b8210610b6357600080fd5b600160a060020a0383166000908152609c60205260409020805483908110610b8757fe5b9060005260206000200154905092915050565b600054610100900460ff1680610bb35750610bb36113f0565b80610bc1575060005460ff16155b1515610c015760405160e560020a62461bcd02815260040180806020018281038252602e815260200180611f09602e913960400191505060405180910390fd5b600054610100900460ff16158015610c2c576000805460ff1961ff0019909116610100171660011790555b61016c805473ffffffffffffffffffffffffffffffffffffffff1916600160a060020a038716179055610c5d6113f6565b610c65610ee2565b610c6f8484610cbf565b610c78306111ca565b610c81306114b9565b610c8a82611502565b8015610c9c576000805461ff00191690555b5050505050565b610b4883838360206040519081016040528060008152506111a2565b600054610100900460ff1680610cd85750610cd86113f0565b80610ce6575060005460ff16155b1515610d265760405160e560020a62461bcd02815260040180806020018281038252602e815260200180611f09602e913960400191505060405180910390fd5b600054610100900460ff16158015610d51576000805460ff1961ff0019909116610100171660011790555b610d5961154b565b1515610d6457600080fd5b8251610d779060d2906020860190611de8565b508151610d8b9060d3906020850190611de8565b50610db57f5b5e139f0000000000000000000000000000000000000000000000000000000061157b565b8015610b48576000805461ff0019169055505050565b6000610dd5610ae6565b8210610de057600080fd5b609e805483908110610dee57fe5b90600052602060002001549050919050565b6000610e12610e0d6113a1565b61118e565b1515610e525760405160e560020a62461bcd028152600401808060200182810382526030815260200180611ed96030913960400191505060405180910390fd5b610e5c84846115b7565b610e6683836115d4565b5060019392505050565b600081815260666020526040812054600160a060020a0316801515610e9457600080fd5b92915050565b61016c54600160a060020a031681565b6000600160a060020a0382161515610ec157600080fd5b600160a060020a0382166000908152606860205260409020610e9490611607565b600054610100900460ff1680610efb5750610efb6113f0565b80610f09575060005460ff16155b1515610f495760405160e560020a62461bcd02815260040180806020018281038252602e815260200180611f09602e913960400191505060405180910390fd5b600054610100900460ff16158015610f74576000805460ff1961ff0019909116610100171660011790555b610f7c61154b565b1515610f8757600080fd5b610fb07f780e9d630000000000000000000000000000000000000000000000000000000061157b565b8015610fc2576000805461ff00191690555b50565b60d38054604080516020601f60026000196101006001881615020190951694909404938401819004810282018101909252828152606093909290918301828280156109725780601f1061094757610100808354040283529160200191610972565b611031610e0d6113a1565b15156110715760405160e560020a62461bcd028152600401808060200182810382526030815260200180611ed96030913960400191505060405180910390fd5b610fc281611502565b61108a6110856113a1565b6114b9565b565b6110946113a1565b600160a060020a03838116911614156110f7576040805160e560020a62461bcd02815260206004820152601960248201527f4552433732313a20617070726f766520746f2063616c6c657200000000000000604482015290519081900360640190fd5b80606960006111046113a1565b600160a060020a03908116825260208083019390935260409182016000908120918716808252919093529120805460ff1916921515929092179091556111486113a1565b6040805184151581529051600160a060020a0392909216917f17307eab39ab6107e8899845ad3d59bd9653f200f220920489ca2b5937696c319181900360200190a35050565b6000610e946101078363ffffffff61160b16565b6111ad848484610aec565b6111b984848484611642565b15156111c457600080fd5b50505050565b600054610100900460ff16806111e357506111e36113f0565b806111f1575060005460ff16155b15156112315760405160e560020a62461bcd02815260040180806020018281038252602e815260200180611f09602e913960400191505060405180910390fd5b600054610100900460ff1615801561125c576000805460ff1961ff0019909116610100171660011790555b61126461154b565b151561126f57600080fd5b6112776117d1565b151561128257600080fd5b61128b826117fc565b801561129d576000805461ff00191690555b5050565b60606112ac82611384565b15156112b757600080fd5b600082815260d4602090815260409182902080548351601f60026000196101006001861615020190931692909204918201849004840281018401909452808452909183018282801561134a5780601f1061131f5761010080835404028352916020019161134a565b820191906000526020600020905b81548152906001019060200180831161132d57829003601f168201915b50505050509050919050565b600160a060020a03918216600090815260696020908152604080832093909416825291909152205460ff1690565b600090815260666020526040902054600160a060020a0316151590565b3390565b61016c54600090600160a060020a03848116911614806113ca57506113ca83836118a6565b9392505050565b6113dc8383836118fd565b6113e683826119ec565b610b488282611adc565b303b1590565b600054610100900460ff168061140f575061140f6113f0565b8061141d575060005460ff16155b151561145d5760405160e560020a62461bcd02815260040180806020018281038252602e815260200180611f09602e913960400191505060405180910390fd5b600054610100900460ff16158015611488576000805460ff1961ff0019909116610100171660011790555b611490611b1a565b610fb07f80ac58cd0000000000000000000000000000000000000000000000000000000061157b565b6114cb6101078263ffffffff611bd516565b604051600160a060020a038216907fe94479a9f7e1952cc78f2d6baab678adc1b772d936c6583def489e524cb6669290600090a250565b6115146101078263ffffffff611c2116565b604051600160a060020a038216907f6ae172837ea30b801fbfcdd4108aa1d5bf8ff775444fd70256b44e6bf3dfc3f690600090a250565b60006115767f80ac58cd000000000000000000000000000000000000000000000000000000006108c7565b905090565b600160e060020a0319808216141561159257600080fd5b600160e060020a0319166000908152603360205260409020805460ff19166001179055565b6115c18282611c6f565b6115cb8282611adc565b61129d81611d1f565b6115dd82611384565b15156115e857600080fd5b600082815260d4602090815260409091208251610b4892840190611de8565b5490565b6000600160a060020a038216151561162257600080fd5b50600160a060020a03166000908152602091909152604090205460ff1690565b600061165684600160a060020a0316611d63565b1515611664575060016117c9565b600084600160a060020a031663150b7a0261167d6113a1565b8887876040518563ffffffff167c01000000000000000000000000000000000000000000000000000000000281526004018085600160a060020a0316600160a060020a0316815260200184600160a060020a0316600160a060020a0316815260200183815260200180602001828103825283818151815260200191508051906020019080838360005b8381101561171e578181015183820152602001611706565b50505050905090810190601f16801561174b5780820380516001836020036101000a031916815260200191505b5095505050505050602060405180830381600087803b15801561176d57600080fd5b505af1158015611781573d6000803e3d6000fd5b505050506040513d602081101561179757600080fd5b5051600160e060020a0319167f150b7a0200000000000000000000000000000000000000000000000000000000149150505b949350505050565b60006115767f5b5e139f000000000000000000000000000000000000000000000000000000006108c7565b600054610100900460ff168061181557506118156113f0565b80611823575060005460ff16155b15156118635760405160e560020a62461bcd02815260040180806020018281038252602e815260200180611f09602e913960400191505060405180910390fd5b600054610100900460ff1615801561188e576000805460ff1961ff0019909116610100171660011790555b6118978261118e565b151561128b5761128b82611502565b6000806118b283610e70565b905080600160a060020a031684600160a060020a031614806118ed575083600160a060020a03166118e28461097d565b600160a060020a0316145b806117c957506117c98185611356565b82600160a060020a031661191082610e70565b600160a060020a03161461192357600080fd5b600160a060020a038216151561193857600080fd5b61194181611d6b565b600160a060020a038316600090815260686020526040902061196290611db3565b600160a060020a038216600090815260686020526040902061198390611dca565b600081815260666020526040808220805473ffffffffffffffffffffffffffffffffffffffff1916600160a060020a0386811691821790925591518493918716917fddf252ad1be2c89b69c2b068fc378daa952ba7f163c4a11628f55a4df523b3ef91a4505050565b600160a060020a0382166000908152609c6020526040812054611a1690600163ffffffff611dd316565b6000838152609d6020526040902054909150808214611ab357600160a060020a0384166000908152609c60205260408120805484908110611a5357fe5b9060005260206000200154905080609c600087600160a060020a0316600160a060020a0316815260200190815260200160002083815481101515611a9357fe5b6000918252602080832090910192909255918252609d9052604090208190555b600160a060020a0384166000908152609c60205260409020805490610c9c906000198301611e66565b600160a060020a039091166000908152609c602081815260408084208054868652609d84529185208290559282526001810183559183529091200155565b600054610100900460ff1680611b335750611b336113f0565b80611b41575060005460ff16155b1515611b815760405160e560020a62461bcd02815260040180806020018281038252602e815260200180611f09602e913960400191505060405180910390fd5b600054610100900460ff16158015611bac576000805460ff1961ff0019909116610100171660011790555b610fb07f01ffc9a70000000000000000000000000000000000000000000000000000000061157b565b600160a060020a0381161515611bea57600080fd5b611bf4828261160b565b1515611bff57600080fd5b600160a060020a0316600090815260209190915260409020805460ff19169055565b600160a060020a0381161515611c3657600080fd5b611c40828261160b565b15611c4a57600080fd5b600160a060020a0316600090815260209190915260409020805460ff19166001179055565b600160a060020a0382161515611c8457600080fd5b611c8d81611384565b15611c9757600080fd5b6000818152606660209081526040808320805473ffffffffffffffffffffffffffffffffffffffff1916600160a060020a038716908117909155835260689091529020611ce390611dca565b6040518190600160a060020a038416906000907fddf252ad1be2c89b69c2b068fc378daa952ba7f163c4a11628f55a4df523b3ef908290a45050565b609e80546000838152609f60205260408120829055600182018355919091527fcfe2a20ff701a1f3e14f63bd70d6c6bc6fba8172ec6d5a505cdab3927c0a9de60155565b6000903b1190565b600081815260676020526040902054600160a060020a031615610fc2576000908152606760205260409020805473ffffffffffffffffffffffffffffffffffffffff19169055565b8054611dc690600163ffffffff611dd316565b9055565b80546001019055565b600082821115611de257600080fd5b50900390565b828054600181600116156101000203166002900490600052602060002090601f016020900481019282601f10611e2957805160ff1916838001178555611e56565b82800160010185558215611e56579182015b82811115611e56578251825591602001919060010190611e3b565b50611e62929150611e86565b5090565b815481835581811115610b4857600083815260209020610b489181019083015b61097a91905b80821115611e625760008155600101611e8c56fe4552433732313a20617070726f76652063616c6c6572206973206e6f74206f776e6572206e6f7220617070726f76656420666f7220616c6c4d696e746572526f6c653a2063616c6c657220646f6573206e6f74206861766520746865204d696e74657220726f6c65436f6e747261637420696e7374616e63652068617320616c7265616479206265656e20696e697469616c697a65644552433732313a20617070726f76616c20746f2063757272656e74206f776e65724552433732313a207472616e736665722063616c6c6572206973206e6f74206f776e6572206e6f7220617070726f766564a165627a7a72305820f3e8ee7a8431cd4e89fac209549081b7f1ceea9f324f1139994d0af6ccff6a840029",
  "source": "pragma solidity ^0.5.0;\n\nimport \"@openzeppelin/contracts-ethereum-package/contracts/token/ERC721/ERC721.sol\";\nimport \"@openzeppelin/contracts-ethereum-package/contracts/token/ERC721/ERC721Enumerable.sol\";\nimport \"@openzeppelin/contracts-ethereum-package/contracts/token/ERC721/ERC721Metadata.sol\";\nimport \"@openzeppelin/contracts-ethereum-package/contracts/token/ERC721/ERC721MetadataMintable.sol\";\n// import \"../node_modules/@openzeppelin/contracts-ethereum-package/contracts/token/ERC721/ERC721.sol\";\n// import \"../node_modules/@openzeppelin/contracts-ethereum-package/contracts/token/ERC721/ERC721Enumerable.sol\";\n// import \"../node_modules/@openzeppelin/contracts-ethereum-package/contracts/token/ERC721/ERC721Metadata.sol\";\n\ncontract ERC721Patronage_v0 is Initializable, ERC721, ERC721Enumerable, ERC721Metadata, ERC721MetadataMintable {\n    address public steward;\n\n    function setup(address _steward, string memory name, string memory symbol, address minter) public initializer {\n        steward = _steward;\n        ERC721.initialize();\n        ERC721Enumerable.initialize();\n        ERC721Metadata.initialize(name, symbol);\n                // Initialize the minter and pauser roles, and renounce them\n        ERC721MetadataMintable.initialize(address(this));\n        _removeMinter(address(this));\n        _addMinter(minter);\n    }\n\n    function _isApprovedOrOwner(address spender, uint256 tokenId) internal view returns (bool) {\n        return (spender == steward || ERC721._isApprovedOrOwner(spender, tokenId));\n    }\n}\n",
  "sourcePath": "/home/jasoons/Documents/clean-code/contracts/contracts/ERC721Patronage_v0.sol",
  "compiler": {
    "name": "solc",
    "version": "0.5.4+commit.9549d8ff.Emscripten.clang"
  },
  "schemaVersion": "3.0.16",
  "updatedAt": "2019-10-08T22:26:10.658Z",
  "devdoc": {
    "methods": {
      "approve(address,uint256)": {
        "details": "Approves another address to transfer the given token ID The zero address indicates there is no approved address. There can only be one approved address per token at a given time. Can only be called by the token owner or an approved operator.",
        "params": {
          "to": "address to be approved for the given token ID",
          "tokenId": "uint256 ID of the token to be approved"
        }
      },
      "balanceOf(address)": {
        "details": "Gets the balance of the specified address",
        "params": {
          "owner": "address to query the balance of"
        },
        "return": "uint256 representing the amount owned by the passed address"
      },
      "getApproved(uint256)": {
        "details": "Gets the approved address for a token ID, or zero if no address set Reverts if the token ID does not exist.",
        "params": {
          "tokenId": "uint256 ID of the token to query the approval of"
        },
        "return": "address currently approved for the given token ID"
      },
      "initialize()": {
        "details": "Constructor function"
      },
      "initialize(string,string)": {
        "details": "Constructor function"
      },
      "isApprovedForAll(address,address)": {
        "details": "Tells whether an operator is approved by a given owner",
        "params": {
          "operator": "operator address which you want to query the approval of",
          "owner": "owner address which you want to query the approval of"
        },
        "return": "bool whether the given operator is approved by the given owner"
      },
      "mintWithTokenURI(address,uint256,string)": {
        "details": "Function to mint tokens",
        "params": {
          "to": "The address that will receive the minted tokens.",
          "tokenId": "The token id to mint.",
          "tokenURI": "The token URI of the minted token."
        },
        "return": "A boolean that indicates if the operation was successful."
      },
      "name()": {
        "details": "Gets the token name",
        "return": "string representing the token name"
      },
      "ownerOf(uint256)": {
        "details": "Gets the owner of the specified token ID",
        "params": {
          "tokenId": "uint256 ID of the token to query the owner of"
        },
        "return": "address currently marked as the owner of the given token ID"
      },
      "safeTransferFrom(address,address,uint256)": {
        "details": "Safely transfers the ownership of a given token ID to another address If the target address is a contract, it must implement `onERC721Received`, which is called upon a safe transfer, and return the magic value `bytes4(keccak256(\"onERC721Received(address,address,uint256,bytes)\"))`; otherwise, the transfer is reverted. Requires the msg.sender to be the owner, approved, or operator",
        "params": {
          "from": "current owner of the token",
          "to": "address to receive the ownership of the given token ID",
          "tokenId": "uint256 ID of the token to be transferred"
        }
      },
      "safeTransferFrom(address,address,uint256,bytes)": {
        "details": "Safely transfers the ownership of a given token ID to another address If the target address is a contract, it must implement `onERC721Received`, which is called upon a safe transfer, and return the magic value `bytes4(keccak256(\"onERC721Received(address,address,uint256,bytes)\"))`; otherwise, the transfer is reverted. Requires the _msgSender() to be the owner, approved, or operator",
        "params": {
          "_data": "bytes data to send along with a safe transfer check",
          "from": "current owner of the token",
          "to": "address to receive the ownership of the given token ID",
          "tokenId": "uint256 ID of the token to be transferred"
        }
      },
      "setApprovalForAll(address,bool)": {
        "details": "Sets or unsets the approval of a given operator An operator is allowed to transfer all tokens of the sender on their behalf",
        "params": {
          "approved": "representing the status of the approval to be set",
          "to": "operator address to set the approval"
        }
      },
      "supportsInterface(bytes4)": {
        "details": "implement supportsInterface(bytes4) using a lookup table"
      },
      "symbol()": {
        "details": "Gets the token symbol",
        "return": "string representing the token symbol"
      },
      "tokenByIndex(uint256)": {
        "details": "Gets the token ID at a given index of all the tokens in this contract Reverts if the index is greater or equal to the total number of tokens",
        "params": {
          "index": "uint256 representing the index to be accessed of the tokens list"
        },
        "return": "uint256 token ID at the given index of the tokens list"
      },
      "tokenOfOwnerByIndex(address,uint256)": {
        "details": "Gets the token ID at a given index of the tokens list of the requested owner",
        "params": {
          "index": "uint256 representing the index to be accessed of the requested tokens list",
          "owner": "address owning the tokens list to be accessed"
        },
        "return": "uint256 token ID at the given index of the tokens list owned by the requested address"
      },
      "tokenURI(uint256)": {
        "details": "Returns an URI for a given token ID Throws if the token ID does not exist. May return an empty string.",
        "params": {
          "tokenId": "uint256 ID of the token to query"
        }
      },
      "totalSupply()": {
        "details": "Gets the total amount of tokens stored by the contract",
        "return": "uint256 representing the total amount of tokens"
      },
      "transferFrom(address,address,uint256)": {
        "details": "Transfers the ownership of a given token ID to another address Usage of this method is discouraged, use `safeTransferFrom` whenever possible Requires the msg.sender to be the owner, approved, or operator",
        "params": {
          "from": "current owner of the token",
          "to": "address to receive the ownership of the given token ID",
          "tokenId": "uint256 ID of the token to be transferred"
        }
      }
    }
  },
  "userdoc": {
    "methods": {}
  }
}