{
  "contractName": "ERC721Patronage_v0",
  "abi": [
    {
      "constant": true,
      "inputs": [
        {
          "name": "interfaceId",
          "type": "bytes4"
        }
      ],
      "name": "supportsInterface",
      "outputs": [
        {
          "name": "",
          "type": "bool"
        }
      ],
      "payable": false,
      "stateMutability": "view",
      "type": "function"
    },
    {
      "constant": true,
      "inputs": [],
      "name": "name",
      "outputs": [
        {
          "name": "",
          "type": "string"
        }
      ],
      "payable": false,
      "stateMutability": "view",
      "type": "function"
    },
    {
      "constant": true,
      "inputs": [
        {
          "name": "tokenId",
          "type": "uint256"
        }
      ],
      "name": "getApproved",
      "outputs": [
        {
          "name": "",
          "type": "address"
        }
      ],
      "payable": false,
      "stateMutability": "view",
      "type": "function"
    },
    {
      "constant": false,
      "inputs": [
        {
          "name": "to",
          "type": "address"
        },
        {
          "name": "tokenId",
          "type": "uint256"
        }
      ],
      "name": "approve",
      "outputs": [],
      "payable": false,
      "stateMutability": "nonpayable",
      "type": "function"
    },
    {
      "constant": true,
      "inputs": [],
      "name": "totalSupply",
      "outputs": [
        {
          "name": "",
          "type": "uint256"
        }
      ],
      "payable": false,
      "stateMutability": "view",
      "type": "function"
    },
    {
      "constant": false,
      "inputs": [
        {
          "name": "from",
          "type": "address"
        },
        {
          "name": "to",
          "type": "address"
        },
        {
          "name": "tokenId",
          "type": "uint256"
        }
      ],
      "name": "transferFrom",
      "outputs": [],
      "payable": false,
      "stateMutability": "nonpayable",
      "type": "function"
    },
    {
      "constant": true,
      "inputs": [
        {
          "name": "owner",
          "type": "address"
        },
        {
          "name": "index",
          "type": "uint256"
        }
      ],
      "name": "tokenOfOwnerByIndex",
      "outputs": [
        {
          "name": "",
          "type": "uint256"
        }
      ],
      "payable": false,
      "stateMutability": "view",
      "type": "function"
    },
    {
      "constant": false,
      "inputs": [
        {
          "name": "from",
          "type": "address"
        },
        {
          "name": "to",
          "type": "address"
        },
        {
          "name": "tokenId",
          "type": "uint256"
        }
      ],
      "name": "safeTransferFrom",
      "outputs": [],
      "payable": false,
      "stateMutability": "nonpayable",
      "type": "function"
    },
    {
      "constant": false,
      "inputs": [
        {
          "name": "name",
          "type": "string"
        },
        {
          "name": "symbol",
          "type": "string"
        }
      ],
      "name": "initialize",
      "outputs": [],
      "payable": false,
      "stateMutability": "nonpayable",
      "type": "function"
    },
    {
      "constant": true,
      "inputs": [
        {
          "name": "index",
          "type": "uint256"
        }
      ],
      "name": "tokenByIndex",
      "outputs": [
        {
          "name": "",
          "type": "uint256"
        }
      ],
      "payable": false,
      "stateMutability": "view",
      "type": "function"
    },
    {
      "constant": false,
      "inputs": [
        {
          "name": "to",
          "type": "address"
        },
        {
          "name": "tokenId",
          "type": "uint256"
        },
        {
          "name": "tokenURI",
          "type": "string"
        }
      ],
      "name": "mintWithTokenURI",
      "outputs": [
        {
          "name": "",
          "type": "bool"
        }
      ],
      "payable": false,
      "stateMutability": "nonpayable",
      "type": "function"
    },
    {
      "constant": true,
      "inputs": [
        {
          "name": "tokenId",
          "type": "uint256"
        }
      ],
      "name": "ownerOf",
      "outputs": [
        {
          "name": "",
          "type": "address"
        }
      ],
      "payable": false,
      "stateMutability": "view",
      "type": "function"
    },
    {
      "constant": true,
      "inputs": [],
      "name": "steward",
      "outputs": [
        {
          "name": "",
          "type": "address"
        }
      ],
      "payable": false,
      "stateMutability": "view",
      "type": "function"
    },
    {
      "constant": true,
      "inputs": [
        {
          "name": "owner",
          "type": "address"
        }
      ],
      "name": "balanceOf",
      "outputs": [
        {
          "name": "",
          "type": "uint256"
        }
      ],
      "payable": false,
      "stateMutability": "view",
      "type": "function"
    },
    {
      "constant": false,
      "inputs": [],
      "name": "initialize",
      "outputs": [],
      "payable": false,
      "stateMutability": "nonpayable",
      "type": "function"
    },
    {
      "constant": true,
      "inputs": [],
      "name": "symbol",
      "outputs": [
        {
          "name": "",
          "type": "string"
        }
      ],
      "payable": false,
      "stateMutability": "view",
      "type": "function"
    },
    {
      "constant": false,
      "inputs": [
        {
          "name": "account",
          "type": "address"
        }
      ],
      "name": "addMinter",
      "outputs": [],
      "payable": false,
      "stateMutability": "nonpayable",
      "type": "function"
    },
    {
      "constant": false,
      "inputs": [],
      "name": "renounceMinter",
      "outputs": [],
      "payable": false,
      "stateMutability": "nonpayable",
      "type": "function"
    },
    {
      "constant": false,
      "inputs": [
        {
          "name": "to",
          "type": "address"
        },
        {
          "name": "approved",
          "type": "bool"
        }
      ],
      "name": "setApprovalForAll",
      "outputs": [],
      "payable": false,
      "stateMutability": "nonpayable",
      "type": "function"
    },
    {
      "constant": true,
      "inputs": [
        {
          "name": "account",
          "type": "address"
        }
      ],
      "name": "isMinter",
      "outputs": [
        {
          "name": "",
          "type": "bool"
        }
      ],
      "payable": false,
      "stateMutability": "view",
      "type": "function"
    },
    {
      "constant": false,
      "inputs": [
        {
          "name": "from",
          "type": "address"
        },
        {
          "name": "to",
          "type": "address"
        },
        {
          "name": "tokenId",
          "type": "uint256"
        },
        {
          "name": "_data",
          "type": "bytes"
        }
      ],
      "name": "safeTransferFrom",
      "outputs": [],
      "payable": false,
      "stateMutability": "nonpayable",
      "type": "function"
    },
    {
      "constant": false,
      "inputs": [
        {
          "name": "sender",
          "type": "address"
        }
      ],
      "name": "initialize",
      "outputs": [],
      "payable": false,
      "stateMutability": "nonpayable",
      "type": "function"
    },
    {
      "constant": true,
      "inputs": [
        {
          "name": "tokenId",
          "type": "uint256"
        }
      ],
      "name": "tokenURI",
      "outputs": [
        {
          "name": "",
          "type": "string"
        }
      ],
      "payable": false,
      "stateMutability": "view",
      "type": "function"
    },
    {
      "constant": true,
      "inputs": [
        {
          "name": "owner",
          "type": "address"
        },
        {
          "name": "operator",
          "type": "address"
        }
      ],
      "name": "isApprovedForAll",
      "outputs": [
        {
          "name": "",
          "type": "bool"
        }
      ],
      "payable": false,
      "stateMutability": "view",
      "type": "function"
    },
    {
      "anonymous": false,
      "inputs": [
        {
          "indexed": true,
          "name": "account",
          "type": "address"
        }
      ],
      "name": "MinterAdded",
      "type": "event"
    },
    {
      "anonymous": false,
      "inputs": [
        {
          "indexed": true,
          "name": "account",
          "type": "address"
        }
      ],
      "name": "MinterRemoved",
      "type": "event"
    },
    {
      "anonymous": false,
      "inputs": [
        {
          "indexed": true,
          "name": "from",
          "type": "address"
        },
        {
          "indexed": true,
          "name": "to",
          "type": "address"
        },
        {
          "indexed": true,
          "name": "tokenId",
          "type": "uint256"
        }
      ],
      "name": "Transfer",
      "type": "event"
    },
    {
      "anonymous": false,
      "inputs": [
        {
          "indexed": true,
          "name": "owner",
          "type": "address"
        },
        {
          "indexed": true,
          "name": "approved",
          "type": "address"
        },
        {
          "indexed": true,
          "name": "tokenId",
          "type": "uint256"
        }
      ],
      "name": "Approval",
      "type": "event"
    },
    {
      "anonymous": false,
      "inputs": [
        {
          "indexed": true,
          "name": "owner",
          "type": "address"
        },
        {
          "indexed": true,
          "name": "operator",
          "type": "address"
        },
        {
          "indexed": false,
          "name": "approved",
          "type": "bool"
        }
      ],
      "name": "ApprovalForAll",
      "type": "event"
    },
    {
      "constant": false,
      "inputs": [
        {
          "name": "_steward",
          "type": "address"
        },
        {
          "name": "name",
          "type": "string"
        },
        {
          "name": "symbol",
          "type": "string"
        },
        {
          "name": "minter",
          "type": "address"
        }
      ],
      "name": "setup",
      "outputs": [],
      "payable": false,
      "stateMutability": "nonpayable",
      "type": "function"
    }
  ],
  "bytecode": "0x60806040526125e6806100136000396000f3fe608060405234801561001057600080fd5b5060043610610190576000357c0100000000000000000000000000000000000000000000000000000000900480636352211e116100fb57806398650275116100b4578063b88d4fde1161008e578063b88d4fde14610790578063c4d66de814610856578063c87b56dd1461087c578063e985e9c51461089957610190565b80639865027514610734578063a22cb4651461073c578063aa271e1a1461076a57610190565b80636352211e146106b3578063637eea19146106d057806370a08231146106d85780638129fc1c146106fe57806395d89b4114610706578063983b2d561461070e57610190565b80632f745c591161014d5780632f745c59146103045780633aaac28e1461033057806342842e0e146104785780634cd88b76146104ae5780634f6ccce7146105db57806350bb4e7f146105f857610190565b806301ffc9a71461019557806306fdde03146101d0578063081812fc1461024d578063095ea7b31461028657806318160ddd146102b457806323b872dd146102ce575b600080fd5b6101bc600480360360208110156101ab57600080fd5b5035600160e060020a0319166108c7565b604080519115158252519081900360200190f35b6101d86108e6565b6040805160208082528351818301528351919283929083019185019080838360005b838110156102125781810151838201526020016101fa565b50505050905090810190601f16801561023f5780820380516001836020036101000a031916815260200191505b509250505060405180910390f35b61026a6004803603602081101561026357600080fd5b503561097d565b60408051600160a060020a039092168252519081900360200190f35b6102b26004803603604081101561029c57600080fd5b50600160a060020a0381351690602001356109e4565b005b6102bc610b1b565b60408051918252519081900360200190f35b6102b2600480360360608110156102e457600080fd5b50600160a060020a03813581169160208101359091169060400135610b21565b6102bc6004803603604081101561031a57600080fd5b50600160a060020a038135169060200135610b82565b6102b26004803603608081101561034657600080fd5b600160a060020a03823516919081019060408101602082013564010000000081111561037157600080fd5b82018360208201111561038357600080fd5b803590602001918460018302840111640100000000831117156103a557600080fd5b91908080601f01602080910402602001604051908101604052809392919081815260200183838082843760009201919091525092959493602081019350359150506401000000008111156103f857600080fd5b82018360208201111561040a57600080fd5b8035906020019184600183028401116401000000008311171561042c57600080fd5b91908080601f01602080910402602001604051908101604052809392919081815260200183838082843760009201919091525092955050509035600160a060020a03169150610c049050565b6102b26004803603606081101561048e57600080fd5b50600160a060020a03813581169160208101359091169060400135610d0d565b6102b2600480360360408110156104c457600080fd5b8101906020810181356401000000008111156104df57600080fd5b8201836020820111156104f157600080fd5b8035906020019184600183028401116401000000008311171561051357600080fd5b91908080601f016020809104026020016040519081016040528093929190818152602001838380828437600092019190915250929594936020810193503591505064010000000081111561056657600080fd5b82018360208201111561057857600080fd5b8035906020019184600183028401116401000000008311171561059a57600080fd5b91908080601f016020809104026020016040519081016040528093929190818152602001838380828437600092019190915250929550610d29945050505050565b6102bc600480360360208110156105f157600080fd5b5035610e35565b6101bc6004803603606081101561060e57600080fd5b600160a060020a038235169160208101359181019060608101604082013564010000000081111561063e57600080fd5b82018360208201111561065057600080fd5b8035906020019184600183028401116401000000008311171561067257600080fd5b91908080601f016020809104026020016040519081016040528093929190818152602001838380828437600092019190915250929550610e9f945050505050565b61026a600480360360208110156106c957600080fd5b5035610f0f565b61026a610f6e565b6102bc600480360360208110156106ee57600080fd5b5035600160a060020a0316610f7e565b6102b2610feb565b6101d86110ce565b6102b26004803603602081101561072457600080fd5b5035600160a060020a031661112f565b6102b2611183565b6102b26004803603604081101561075257600080fd5b50600160a060020a0381351690602001351515611195565b6101bc6004803603602081101561078057600080fd5b5035600160a060020a0316611297565b6102b2600480360360808110156107a657600080fd5b600160a060020a038235811692602081013590911691604082013591908101906080810160608201356401000000008111156107e157600080fd5b8201836020820111156107f357600080fd5b8035906020019184600183028401116401000000008311171561081557600080fd5b91908080601f0160208091040260200160405190810160405280939291908181526020018383808284376000920191909152509295506112ab945050505050565b6102b26004803603602081101561086c57600080fd5b5035600160a060020a0316611308565b6101d86004803603602081101561089257600080fd5b50356113df565b6101bc600480360360408110156108af57600080fd5b50600160a060020a03813581169160200135166114c9565b600160e060020a03191660009081526033602052604090205460ff1690565b60d28054604080516020601f60026000196101006001881615020190951694909404938401819004810282018101909252828152606093909290918301828280156109725780601f1061094757610100808354040283529160200191610972565b820191906000526020600020905b81548152906001019060200180831161095557829003601f168201915b505050505090505b90565b6000610988826114f7565b15156109c85760405160e560020a62461bcd02815260040180806020018281038252602c81526020018061243d602c913960400191505060405180910390fd5b50600090815260676020526040902054600160a060020a031690565b60006109ef82610f0f565b9050600160a060020a038381169082161415610a3f5760405160e560020a62461bcd02815260040180806020018281038252602181526020018061253d6021913960400191505060405180910390fd5b80600160a060020a0316610a51611514565b600160a060020a03161480610a725750610a7281610a6d611514565b6114c9565b1515610ab25760405160e560020a62461bcd0281526004018080602001828103825260388152602001806123616038913960400191505060405180910390fd5b600082815260676020526040808220805473ffffffffffffffffffffffffffffffffffffffff1916600160a060020a0387811691821790925591518593918516917f8c5be1e5ebec7d5bd14f71427d1e84f3dd0314c0f7b2291e5b200ac8c7c3b92591a4505050565b609e5490565b610b32610b2c611514565b82611518565b1515610b725760405160e560020a62461bcd02815260040180806020018281038252603181526020018061255e6031913960400191505060405180910390fd5b610b7d838383611544565b505050565b6000610b8d83610f7e565b8210610bcd5760405160e560020a62461bcd02815260040180806020018281038252602b8152602001806122b4602b913960400191505060405180910390fd5b600160a060020a0383166000908152609c60205260409020805483908110610bf157fe5b9060005260206000200154905092915050565b600054610100900460ff1680610c1d5750610c1d611563565b80610c2b575060005460ff16155b1515610c6b5760405160e560020a62461bcd02815260040180806020018281038252602e8152602001806124b7602e913960400191505060405180910390fd5b600054610100900460ff16158015610c96576000805460ff1961ff0019909116610100171660011790555b61016c805473ffffffffffffffffffffffffffffffffffffffff1916600160a060020a038716179055610cc7611569565b610ccf610feb565b610cd98484610d29565b610ce230611308565b610ceb3061162c565b610cf482611675565b8015610d06576000805461ff00191690555b5050505050565b610b7d83838360206040519081016040528060008152506112ab565b600054610100900460ff1680610d425750610d42611563565b80610d50575060005460ff16155b1515610d905760405160e560020a62461bcd02815260040180806020018281038252602e8152602001806124b7602e913960400191505060405180910390fd5b600054610100900460ff16158015610dbb576000805460ff1961ff0019909116610100171660011790555b610dc36116be565b1515610dce57600080fd5b8251610de19060d29060208601906121fb565b508151610df59060d39060208501906121fb565b50610e1f7f5b5e139f000000000000000000000000000000000000000000000000000000006116ee565b8015610b7d576000805461ff0019169055505050565b6000610e3f610b1b565b8210610e7f5760405160e560020a62461bcd02815260040180806020018281038252602c81526020018061258f602c913960400191505060405180910390fd5b609e805483908110610e8d57fe5b90600052602060002001549050919050565b6000610eb1610eac611514565b611297565b1515610ef15760405160e560020a62461bcd0281526004018080602001828103825260308152602001806123ec6030913960400191505060405180910390fd5b610efb8484611775565b610f058383611792565b5060019392505050565b600081815260666020526040812054600160a060020a0316801515610f685760405160e560020a62461bcd0281526004018080602001828103825260298152602001806123c36029913960400191505060405180910390fd5b92915050565b61016c54600160a060020a031681565b6000600160a060020a0382161515610fca5760405160e560020a62461bcd02815260040180806020018281038252602a815260200180612399602a913960400191505060405180910390fd5b600160a060020a0382166000908152606860205260409020610f68906117fa565b600054610100900460ff16806110045750611004611563565b80611012575060005460ff16155b15156110525760405160e560020a62461bcd02815260040180806020018281038252602e8152602001806124b7602e913960400191505060405180910390fd5b600054610100900460ff1615801561107d576000805460ff1961ff0019909116610100171660011790555b6110856116be565b151561109057600080fd5b6110b97f780e9d63000000000000000000000000000000000000000000000000000000006116ee565b80156110cb576000805461ff00191690555b50565b60d38054604080516020601f60026000196101006001881615020190951694909404938401819004810282018101909252828152606093909290918301828280156109725780601f1061094757610100808354040283529160200191610972565b61113a610eac611514565b151561117a5760405160e560020a62461bcd0281526004018080602001828103825260308152602001806123ec6030913960400191505060405180910390fd5b6110cb81611675565b61119361118e611514565b61162c565b565b61119d611514565b600160a060020a0383811691161415611200576040805160e560020a62461bcd02815260206004820152601960248201527f4552433732313a20617070726f766520746f2063616c6c657200000000000000604482015290519081900360640190fd5b806069600061120d611514565b600160a060020a03908116825260208083019390935260409182016000908120918716808252919093529120805460ff191692151592909217909155611251611514565b6040805184151581529051600160a060020a0392909216917f17307eab39ab6107e8899845ad3d59bd9653f200f220920489ca2b5937696c319181900360200190a35050565b6000610f686101078363ffffffff6117fe16565b6112b6848484610b21565b6112c28484848461186a565b15156113025760405160e560020a62461bcd0281526004018080602001828103825260328152602001806122df6032913960400191505060405180910390fd5b50505050565b600054610100900460ff16806113215750611321611563565b8061132f575060005460ff16155b151561136f5760405160e560020a62461bcd02815260040180806020018281038252602e8152602001806124b7602e913960400191505060405180910390fd5b600054610100900460ff1615801561139a576000805460ff1961ff0019909116610100171660011790555b6113a26116be565b15156113ad57600080fd5b6113b56119f9565b15156113c057600080fd5b6113c982611a24565b80156113db576000805461ff00191690555b5050565b60606113ea826114f7565b151561142a5760405160e560020a62461bcd02815260040180806020018281038252602f81526020018061250e602f913960400191505060405180910390fd5b600082815260d4602090815260409182902080548351601f6002600019610100600186161502019093169290920491820184900484028101840190945280845290918301828280156114bd5780601f10611492576101008083540402835291602001916114bd565b820191906000526020600020905b8154815290600101906020018083116114a057829003601f168201915b50505050509050919050565b600160a060020a03918216600090815260696020908152604080832093909416825291909152205460ff1690565b600090815260666020526040902054600160a060020a0316151590565b3390565b61016c54600090600160a060020a038481169116148061153d575061153d8383611ace565b9392505050565b61154f838383611b6f565b6115598382611cc8565b610b7d8282611db8565b303b1590565b600054610100900460ff16806115825750611582611563565b80611590575060005460ff16155b15156115d05760405160e560020a62461bcd02815260040180806020018281038252602e8152602001806124b7602e913960400191505060405180910390fd5b600054610100900460ff161580156115fb576000805460ff1961ff0019909116610100171660011790555b611603611df6565b6110b97f80ac58cd000000000000000000000000000000000000000000000000000000006116ee565b61163e6101078263ffffffff611eb116565b604051600160a060020a038216907fe94479a9f7e1952cc78f2d6baab678adc1b772d936c6583def489e524cb6669290600090a250565b6116876101078263ffffffff611f1d16565b604051600160a060020a038216907f6ae172837ea30b801fbfcdd4108aa1d5bf8ff775444fd70256b44e6bf3dfc3f690600090a250565b60006116e97f80ac58cd000000000000000000000000000000000000000000000000000000006108c7565b905090565b600160e060020a03198082161415611750576040805160e560020a62461bcd02815260206004820152601c60248201527f4552433136353a20696e76616c696420696e7465726661636520696400000000604482015290519081900360640190fd5b600160e060020a0319166000908152603360205260409020805460ff19166001179055565b61177f8282611fa1565b6117898282611db8565b6113db816120e7565b61179b826114f7565b15156117db5760405160e560020a62461bcd02815260040180806020018281038252602c815260200180612469602c913960400191505060405180910390fd5b600082815260d4602090815260409091208251610b7d928401906121fb565b5490565b6000600160a060020a038216151561184a5760405160e560020a62461bcd0281526004018080602001828103825260228152602001806124956022913960400191505060405180910390fd5b50600160a060020a03166000908152602091909152604090205460ff1690565b600061187e84600160a060020a031661212b565b151561188c575060016119f1565b600084600160a060020a031663150b7a026118a5611514565b8887876040518563ffffffff167c01000000000000000000000000000000000000000000000000000000000281526004018085600160a060020a0316600160a060020a0316815260200184600160a060020a0316600160a060020a0316815260200183815260200180602001828103825283818151815260200191508051906020019080838360005b8381101561194657818101518382015260200161192e565b50505050905090810190601f1680156119735780820380516001836020036101000a031916815260200191505b5095505050505050602060405180830381600087803b15801561199557600080fd5b505af11580156119a9573d6000803e3d6000fd5b505050506040513d60208110156119bf57600080fd5b5051600160e060020a0319167f150b7a0200000000000000000000000000000000000000000000000000000000149150505b949350505050565b60006116e97f5b5e139f000000000000000000000000000000000000000000000000000000006108c7565b600054610100900460ff1680611a3d5750611a3d611563565b80611a4b575060005460ff16155b1515611a8b5760405160e560020a62461bcd02815260040180806020018281038252602e8152602001806124b7602e913960400191505060405180910390fd5b600054610100900460ff16158015611ab6576000805460ff1961ff0019909116610100171660011790555b611abf82611297565b15156113c9576113c982611675565b6000611ad9826114f7565b1515611b195760405160e560020a62461bcd02815260040180806020018281038252602c815260200180612335602c913960400191505060405180910390fd5b6000611b2483610f0f565b905080600160a060020a031684600160a060020a03161480611b5f575083600160a060020a0316611b548461097d565b600160a060020a0316145b806119f157506119f181856114c9565b82600160a060020a0316611b8282610f0f565b600160a060020a031614611bca5760405160e560020a62461bcd0281526004018080602001828103825260298152602001806124e56029913960400191505060405180910390fd5b600160a060020a0382161515611c145760405160e560020a62461bcd0281526004018080602001828103825260248152602001806123116024913960400191505060405180910390fd5b611c1d81612133565b600160a060020a0383166000908152606860205260409020611c3e9061217b565b600160a060020a0382166000908152606860205260409020611c5f90612192565b600081815260666020526040808220805473ffffffffffffffffffffffffffffffffffffffff1916600160a060020a0386811691821790925591518493918716917fddf252ad1be2c89b69c2b068fc378daa952ba7f163c4a11628f55a4df523b3ef91a4505050565b600160a060020a0382166000908152609c6020526040812054611cf290600163ffffffff61219b16565b6000838152609d6020526040902054909150808214611d8f57600160a060020a0384166000908152609c60205260408120805484908110611d2f57fe5b9060005260206000200154905080609c600087600160a060020a0316600160a060020a0316815260200190815260200160002083815481101515611d6f57fe5b6000918252602080832090910192909255918252609d9052604090208190555b600160a060020a0384166000908152609c60205260409020805490610d06906000198301612279565b600160a060020a039091166000908152609c602081815260408084208054868652609d84529185208290559282526001810183559183529091200155565b600054610100900460ff1680611e0f5750611e0f611563565b80611e1d575060005460ff16155b1515611e5d5760405160e560020a62461bcd02815260040180806020018281038252602e8152602001806124b7602e913960400191505060405180910390fd5b600054610100900460ff16158015611e88576000805460ff1961ff0019909116610100171660011790555b6110b97f01ffc9a7000000000000000000000000000000000000000000000000000000006116ee565b611ebb82826117fe565b1515611efb5760405160e560020a62461bcd02815260040180806020018281038252602181526020018061241c6021913960400191505060405180910390fd5b600160a060020a0316600090815260209190915260409020805460ff19169055565b611f2782826117fe565b15611f7c576040805160e560020a62461bcd02815260206004820152601f60248201527f526f6c65733a206163636f756e7420616c72656164792068617320726f6c6500604482015290519081900360640190fd5b600160a060020a0316600090815260209190915260409020805460ff19166001179055565b600160a060020a0382161515612001576040805160e560020a62461bcd02815260206004820181905260248201527f4552433732313a206d696e7420746f20746865207a65726f2061646472657373604482015290519081900360640190fd5b61200a816114f7565b1561205f576040805160e560020a62461bcd02815260206004820152601c60248201527f4552433732313a20746f6b656e20616c7265616479206d696e74656400000000604482015290519081900360640190fd5b6000818152606660209081526040808320805473ffffffffffffffffffffffffffffffffffffffff1916600160a060020a0387169081179091558352606890915290206120ab90612192565b6040518190600160a060020a038416906000907fddf252ad1be2c89b69c2b068fc378daa952ba7f163c4a11628f55a4df523b3ef908290a45050565b609e80546000838152609f60205260408120829055600182018355919091527fcfe2a20ff701a1f3e14f63bd70d6c6bc6fba8172ec6d5a505cdab3927c0a9de60155565b6000903b1190565b600081815260676020526040902054600160a060020a0316156110cb576000908152606760205260409020805473ffffffffffffffffffffffffffffffffffffffff19169055565b805461218e90600163ffffffff61219b16565b9055565b80546001019055565b6000828211156121f5576040805160e560020a62461bcd02815260206004820152601e60248201527f536166654d6174683a207375627472616374696f6e206f766572666c6f770000604482015290519081900360640190fd5b50900390565b828054600181600116156101000203166002900490600052602060002090601f016020900481019282601f1061223c57805160ff1916838001178555612269565b82800160010185558215612269579182015b8281111561226957825182559160200191906001019061224e565b50612275929150612299565b5090565b815481835581811115610b7d57600083815260209020610b7d9181019083015b61097a91905b80821115612275576000815560010161229f56fe455243373231456e756d657261626c653a206f776e657220696e646578206f7574206f6620626f756e64734552433732313a207472616e7366657220746f206e6f6e20455243373231526563656976657220696d706c656d656e7465724552433732313a207472616e7366657220746f20746865207a65726f20616464726573734552433732313a206f70657261746f7220717565727920666f72206e6f6e6578697374656e7420746f6b656e4552433732313a20617070726f76652063616c6c6572206973206e6f74206f776e6572206e6f7220617070726f76656420666f7220616c6c4552433732313a2062616c616e636520717565727920666f7220746865207a65726f20616464726573734552433732313a206f776e657220717565727920666f72206e6f6e6578697374656e7420746f6b656e4d696e746572526f6c653a2063616c6c657220646f6573206e6f74206861766520746865204d696e74657220726f6c65526f6c65733a206163636f756e7420646f6573206e6f74206861766520726f6c654552433732313a20617070726f76656420717565727920666f72206e6f6e6578697374656e7420746f6b656e4552433732314d657461646174613a2055524920736574206f66206e6f6e6578697374656e7420746f6b656e526f6c65733a206163636f756e7420697320746865207a65726f2061646472657373436f6e747261637420696e7374616e63652068617320616c7265616479206265656e20696e697469616c697a65644552433732313a207472616e73666572206f6620746f6b656e2074686174206973206e6f74206f776e4552433732314d657461646174613a2055524920717565727920666f72206e6f6e6578697374656e7420746f6b656e4552433732313a20617070726f76616c20746f2063757272656e74206f776e65724552433732313a207472616e736665722063616c6c6572206973206e6f74206f776e6572206e6f7220617070726f766564455243373231456e756d657261626c653a20676c6f62616c20696e646578206f7574206f6620626f756e6473a165627a7a723058203c861c1ced341a550e24543650e42425c07f683e4b7ae49e5303f55f04e144d00029",
  "source": "pragma solidity ^0.5.0;\n\nimport \"@openzeppelin/contracts-ethereum-package/contracts/token/ERC721/ERC721.sol\";\nimport \"@openzeppelin/contracts-ethereum-package/contracts/token/ERC721/ERC721Enumerable.sol\";\nimport \"@openzeppelin/contracts-ethereum-package/contracts/token/ERC721/ERC721Metadata.sol\";\nimport \"@openzeppelin/contracts-ethereum-package/contracts/token/ERC721/ERC721MetadataMintable.sol\";\n// import \"../node_modules/@openzeppelin/contracts-ethereum-package/contracts/token/ERC721/ERC721.sol\";\n// import \"../node_modules/@openzeppelin/contracts-ethereum-package/contracts/token/ERC721/ERC721Enumerable.sol\";\n// import \"../node_modules/@openzeppelin/contracts-ethereum-package/contracts/token/ERC721/ERC721Metadata.sol\";\n\ncontract ERC721Patronage_v0 is Initializable, ERC721, ERC721Enumerable, ERC721Metadata, ERC721MetadataMintable {\n    address public steward;\n\n    function setup(address _steward, string memory name, string memory symbol, address minter) public initializer {\n        steward = _steward;\n        ERC721.initialize();\n        ERC721Enumerable.initialize();\n        ERC721Metadata.initialize(name, symbol);\n                // Initialize the minter and pauser roles, and renounce them\n        ERC721MetadataMintable.initialize(address(this));\n        _removeMinter(address(this));\n        _addMinter(minter);\n    }\n\n    function _isApprovedOrOwner(address spender, uint256 tokenId) internal view returns (bool) {\n        return (spender == steward || ERC721._isApprovedOrOwner(spender, tokenId));\n    }\n}\n",
  "sourcePath": "/home/jasoons/Documents/clean-code/contracts/contracts/ERC721Patronage_v0.sol",
  "compiler": {
    "name": "solc",
    "version": "0.5.4+commit.9549d8ff.Emscripten.clang"
  },
  "schemaVersion": "3.0.16",
  "updatedAt": "2019-10-16T13:12:16.981Z",
  "devdoc": {
    "methods": {
      "approve(address,uint256)": {
        "details": "Approves another address to transfer the given token ID The zero address indicates there is no approved address. There can only be one approved address per token at a given time. Can only be called by the token owner or an approved operator.",
        "params": {
          "to": "address to be approved for the given token ID",
          "tokenId": "uint256 ID of the token to be approved"
        }
      },
      "balanceOf(address)": {
        "details": "Gets the balance of the specified address.",
        "params": {
          "owner": "address to query the balance of"
        },
        "return": "uint256 representing the amount owned by the passed address"
      },
      "getApproved(uint256)": {
        "details": "Gets the approved address for a token ID, or zero if no address set Reverts if the token ID does not exist.",
        "params": {
          "tokenId": "uint256 ID of the token to query the approval of"
        },
        "return": "address currently approved for the given token ID"
      },
      "initialize()": {
        "details": "Constructor function."
      },
      "initialize(string,string)": {
        "details": "Constructor function"
      },
      "isApprovedForAll(address,address)": {
        "details": "Tells whether an operator is approved by a given owner.",
        "params": {
          "operator": "operator address which you want to query the approval of",
          "owner": "owner address which you want to query the approval of"
        },
        "return": "bool whether the given operator is approved by the given owner"
      },
      "mintWithTokenURI(address,uint256,string)": {
        "details": "Function to mint tokens.",
        "params": {
          "to": "The address that will receive the minted tokens.",
          "tokenId": "The token id to mint.",
          "tokenURI": "The token URI of the minted token."
        },
        "return": "A boolean that indicates if the operation was successful."
      },
      "name()": {
        "details": "Gets the token name.",
        "return": "string representing the token name"
      },
      "ownerOf(uint256)": {
        "details": "Gets the owner of the specified token ID.",
        "params": {
          "tokenId": "uint256 ID of the token to query the owner of"
        },
        "return": "address currently marked as the owner of the given token ID"
      },
      "safeTransferFrom(address,address,uint256)": {
        "details": "Safely transfers the ownership of a given token ID to another address If the target address is a contract, it must implement `onERC721Received`, which is called upon a safe transfer, and return the magic value `bytes4(keccak256(\"onERC721Received(address,address,uint256,bytes)\"))`; otherwise, the transfer is reverted. Requires the msg.sender to be the owner, approved, or operator",
        "params": {
          "from": "current owner of the token",
          "to": "address to receive the ownership of the given token ID",
          "tokenId": "uint256 ID of the token to be transferred"
        }
      },
      "safeTransferFrom(address,address,uint256,bytes)": {
        "details": "Safely transfers the ownership of a given token ID to another address If the target address is a contract, it must implement `onERC721Received`, which is called upon a safe transfer, and return the magic value `bytes4(keccak256(\"onERC721Received(address,address,uint256,bytes)\"))`; otherwise, the transfer is reverted. Requires the _msgSender() to be the owner, approved, or operator",
        "params": {
          "_data": "bytes data to send along with a safe transfer check",
          "from": "current owner of the token",
          "to": "address to receive the ownership of the given token ID",
          "tokenId": "uint256 ID of the token to be transferred"
        }
      },
      "setApprovalForAll(address,bool)": {
        "details": "Sets or unsets the approval of a given operator An operator is allowed to transfer all tokens of the sender on their behalf.",
        "params": {
          "approved": "representing the status of the approval to be set",
          "to": "operator address to set the approval"
        }
      },
      "supportsInterface(bytes4)": {
        "details": "See `IERC165.supportsInterface`.     * Time complexity O(1), guaranteed to always use less than 30 000 gas."
      },
      "symbol()": {
        "details": "Gets the token symbol.",
        "return": "string representing the token symbol"
      },
      "tokenByIndex(uint256)": {
        "details": "Gets the token ID at a given index of all the tokens in this contract Reverts if the index is greater or equal to the total number of tokens.",
        "params": {
          "index": "uint256 representing the index to be accessed of the tokens list"
        },
        "return": "uint256 token ID at the given index of the tokens list"
      },
      "tokenOfOwnerByIndex(address,uint256)": {
        "details": "Gets the token ID at a given index of the tokens list of the requested owner.",
        "params": {
          "index": "uint256 representing the index to be accessed of the requested tokens list",
          "owner": "address owning the tokens list to be accessed"
        },
        "return": "uint256 token ID at the given index of the tokens list owned by the requested address"
      },
      "tokenURI(uint256)": {
        "details": "Returns an URI for a given token ID. Throws if the token ID does not exist. May return an empty string.",
        "params": {
          "tokenId": "uint256 ID of the token to query"
        }
      },
      "totalSupply()": {
        "details": "Gets the total amount of tokens stored by the contract.",
        "return": "uint256 representing the total amount of tokens"
      },
      "transferFrom(address,address,uint256)": {
        "details": "Transfers the ownership of a given token ID to another address. Usage of this method is discouraged, use `safeTransferFrom` whenever possible. Requires the msg.sender to be the owner, approved, or operator.",
        "params": {
          "from": "current owner of the token",
          "to": "address to receive the ownership of the given token ID",
          "tokenId": "uint256 ID of the token to be transferred"
        }
      }
    }
  },
  "userdoc": {
    "methods": {}
  }
}