{
  "contractName": "WildcardSteward_v0",
  "abi": [
    {
      "constant": true,
      "inputs": [
        {
          "name": "",
          "type": "uint256"
        }
      ],
      "name": "currentPatron",
      "outputs": [
        {
          "name": "",
          "type": "address"
        }
      ],
      "payable": false,
      "stateMutability": "view",
      "type": "function"
    },
    {
      "constant": true,
      "inputs": [],
      "name": "assetToken",
      "outputs": [
        {
          "name": "",
          "type": "address"
        }
      ],
      "payable": false,
      "stateMutability": "view",
      "type": "function"
    },
    {
      "constant": true,
      "inputs": [
        {
          "name": "",
          "type": "uint256"
        }
      ],
      "name": "benefactors",
      "outputs": [
        {
          "name": "",
          "type": "address"
        }
      ],
      "payable": false,
      "stateMutability": "view",
      "type": "function"
    },
    {
      "constant": true,
      "inputs": [
        {
          "name": "",
          "type": "uint256"
        }
      ],
      "name": "currentCollected",
      "outputs": [
        {
          "name": "",
          "type": "uint256"
        }
      ],
      "payable": false,
      "stateMutability": "view",
      "type": "function"
    },
    {
      "constant": true,
      "inputs": [
        {
          "name": "",
          "type": "uint256"
        },
        {
          "name": "",
          "type": "address"
        }
      ],
      "name": "timeHeld",
      "outputs": [
        {
          "name": "",
          "type": "uint256"
        }
      ],
      "payable": false,
      "stateMutability": "view",
      "type": "function"
    },
    {
      "constant": true,
      "inputs": [
        {
          "name": "",
          "type": "uint256"
        }
      ],
      "name": "price",
      "outputs": [
        {
          "name": "",
          "type": "uint256"
        }
      ],
      "payable": false,
      "stateMutability": "view",
      "type": "function"
    },
    {
      "constant": true,
      "inputs": [
        {
          "name": "",
          "type": "uint256"
        },
        {
          "name": "",
          "type": "address"
        }
      ],
      "name": "patrons",
      "outputs": [
        {
          "name": "",
          "type": "bool"
        }
      ],
      "payable": false,
      "stateMutability": "view",
      "type": "function"
    },
    {
      "constant": true,
      "inputs": [
        {
          "name": "",
          "type": "uint256"
        }
      ],
      "name": "state",
      "outputs": [
        {
          "name": "",
          "type": "uint8"
        }
      ],
      "payable": false,
      "stateMutability": "view",
      "type": "function"
    },
    {
      "constant": true,
      "inputs": [
        {
          "name": "",
          "type": "uint256"
        }
      ],
      "name": "timeAcquired",
      "outputs": [
        {
          "name": "",
          "type": "uint256"
        }
      ],
      "payable": false,
      "stateMutability": "view",
      "type": "function"
    },
    {
      "constant": true,
      "inputs": [
        {
          "name": "",
          "type": "uint256"
        }
      ],
      "name": "timeLastCollected",
      "outputs": [
        {
          "name": "",
          "type": "uint256"
        }
      ],
      "payable": false,
      "stateMutability": "view",
      "type": "function"
    },
    {
      "constant": true,
      "inputs": [
        {
          "name": "",
          "type": "address"
        }
      ],
      "name": "timeLastCollectedPatron",
      "outputs": [
        {
          "name": "",
          "type": "uint256"
        }
      ],
      "payable": false,
      "stateMutability": "view",
      "type": "function"
    },
    {
      "constant": true,
      "inputs": [],
      "name": "patronageDenominator",
      "outputs": [
        {
          "name": "",
          "type": "uint256"
        }
      ],
      "payable": false,
      "stateMutability": "view",
      "type": "function"
    },
    {
      "constant": true,
      "inputs": [
        {
          "name": "",
          "type": "address"
        }
      ],
      "name": "benefactorFunds",
      "outputs": [
        {
          "name": "",
          "type": "uint256"
        }
      ],
      "payable": false,
      "stateMutability": "view",
      "type": "function"
    },
    {
      "constant": true,
      "inputs": [
        {
          "name": "",
          "type": "uint256"
        }
      ],
      "name": "totalCollected",
      "outputs": [
        {
          "name": "",
          "type": "uint256"
        }
      ],
      "payable": false,
      "stateMutability": "view",
      "type": "function"
    },
    {
      "constant": true,
      "inputs": [
        {
          "name": "",
          "type": "uint256"
        }
      ],
      "name": "patronageNumerator",
      "outputs": [
        {
          "name": "",
          "type": "uint256"
        }
      ],
      "payable": false,
      "stateMutability": "view",
      "type": "function"
    },
    {
      "constant": true,
      "inputs": [
        {
          "name": "",
          "type": "address"
        }
      ],
      "name": "deposit",
      "outputs": [
        {
          "name": "",
          "type": "uint256"
        }
      ],
      "payable": false,
      "stateMutability": "view",
      "type": "function"
    },
    {
      "constant": true,
      "inputs": [],
      "name": "admin",
      "outputs": [
        {
          "name": "",
          "type": "address"
        }
      ],
      "payable": false,
      "stateMutability": "view",
      "type": "function"
    },
    {
      "constant": true,
      "inputs": [
        {
          "name": "",
          "type": "address"
        }
      ],
      "name": "totalPatronOwnedTokenCost",
      "outputs": [
        {
          "name": "",
          "type": "uint256"
        }
      ],
      "payable": false,
      "stateMutability": "view",
      "type": "function"
    },
    {
      "anonymous": false,
      "inputs": [
        {
          "indexed": true,
          "name": "owner",
          "type": "address"
        },
        {
          "indexed": true,
          "name": "price",
          "type": "uint256"
        }
      ],
      "name": "LogBuy",
      "type": "event"
    },
    {
      "anonymous": false,
      "inputs": [
        {
          "indexed": true,
          "name": "newPrice",
          "type": "uint256"
        }
      ],
      "name": "LogPriceChange",
      "type": "event"
    },
    {
      "anonymous": false,
      "inputs": [
        {
          "indexed": true,
          "name": "prevOwner",
          "type": "address"
        }
      ],
      "name": "LogForeclosure",
      "type": "event"
    },
    {
      "anonymous": false,
      "inputs": [
        {
          "indexed": true,
          "name": "collected",
          "type": "uint256"
        }
      ],
      "name": "LogCollection",
      "type": "event"
    },
    {
      "anonymous": false,
      "inputs": [
        {
          "indexed": true,
          "name": "tokenPatron",
          "type": "address"
        },
        {
          "indexed": true,
          "name": "remainingDeposit",
          "type": "uint256"
        }
      ],
      "name": "LogRemainingDepositUpdate",
      "type": "event"
    },
    {
      "anonymous": false,
      "inputs": [
        {
          "indexed": true,
          "name": "tokenId",
          "type": "uint256"
        },
        {
          "indexed": false,
          "name": "patronageNumerator",
          "type": "uint256"
        }
      ],
      "name": "AddToken",
      "type": "event"
    },
    {
      "constant": false,
      "inputs": [
        {
          "name": "_assetToken",
          "type": "address"
        },
        {
          "name": "_admin",
          "type": "address"
        },
        {
          "name": "_patronageDenominator",
          "type": "uint256"
        }
      ],
      "name": "initialize",
      "outputs": [],
      "payable": false,
      "stateMutability": "nonpayable",
      "type": "function"
    },
    {
      "constant": false,
      "inputs": [
        {
          "name": "tokens",
          "type": "uint256[]"
        },
        {
          "name": "_benefactors",
          "type": "address[]"
        },
        {
          "name": "_patronageNumerator",
          "type": "uint256[]"
        }
      ],
      "name": "listNewTokens",
      "outputs": [],
      "payable": false,
      "stateMutability": "nonpayable",
      "type": "function"
    },
    {
      "constant": false,
      "inputs": [
        {
          "name": "tokenId",
          "type": "uint256"
        },
        {
          "name": "_newReceivingBenefactor",
          "type": "address"
        }
      ],
      "name": "changeReceivingBenefactor",
      "outputs": [],
      "payable": false,
      "stateMutability": "nonpayable",
      "type": "function"
    },
    {
      "constant": false,
      "inputs": [
        {
          "name": "_admin",
          "type": "address"
        }
      ],
      "name": "changeAdmin",
      "outputs": [],
      "payable": false,
      "stateMutability": "nonpayable",
      "type": "function"
    },
    {
      "constant": true,
      "inputs": [
        {
          "name": "tokenId",
          "type": "uint256"
        }
      ],
      "name": "patronageOwed",
      "outputs": [
        {
          "name": "patronageDue",
          "type": "uint256"
        }
      ],
      "payable": false,
      "stateMutability": "view",
      "type": "function"
    },
    {
      "constant": true,
      "inputs": [
        {
          "name": "tokenId",
          "type": "uint256"
        }
      ],
      "name": "patronageOwedWithTimestamp",
      "outputs": [
        {
          "name": "patronageDue",
          "type": "uint256"
        },
        {
          "name": "timestamp",
          "type": "uint256"
        }
      ],
      "payable": false,
      "stateMutability": "view",
      "type": "function"
    },
    {
      "constant": true,
      "inputs": [
        {
          "name": "tokenPatron",
          "type": "address"
        }
      ],
      "name": "patronageOwedPatron",
      "outputs": [
        {
          "name": "patronageDue",
          "type": "uint256"
        }
      ],
      "payable": false,
      "stateMutability": "view",
      "type": "function"
    },
    {
      "constant": true,
      "inputs": [
        {
          "name": "tokenPatron",
          "type": "address"
        }
      ],
      "name": "patronageOwedPatronWithTimestamp",
      "outputs": [
        {
          "name": "patronageDue",
          "type": "uint256"
        },
        {
          "name": "timestamp",
          "type": "uint256"
        }
      ],
      "payable": false,
      "stateMutability": "view",
      "type": "function"
    },
    {
      "constant": true,
      "inputs": [
        {
          "name": "tokenPatron",
          "type": "address"
        }
      ],
      "name": "foreclosedPatron",
      "outputs": [
        {
          "name": "",
          "type": "bool"
        }
      ],
      "payable": false,
      "stateMutability": "view",
      "type": "function"
    },
    {
      "constant": true,
      "inputs": [
        {
          "name": "tokenId",
          "type": "uint256"
        }
      ],
      "name": "foreclosed",
      "outputs": [
        {
          "name": "",
          "type": "bool"
        }
      ],
      "payable": false,
      "stateMutability": "view",
      "type": "function"
    },
    {
      "constant": true,
      "inputs": [
        {
          "name": "tokenPatron",
          "type": "address"
        }
      ],
      "name": "depositAbleToWithdraw",
      "outputs": [
        {
          "name": "",
          "type": "uint256"
        }
      ],
      "payable": false,
      "stateMutability": "view",
      "type": "function"
    },
    {
      "constant": true,
      "inputs": [
        {
          "name": "tokenPatron",
          "type": "address"
        }
      ],
      "name": "foreclosureTimePatron",
      "outputs": [
        {
          "name": "",
          "type": "uint256"
        }
      ],
      "payable": false,
      "stateMutability": "view",
      "type": "function"
    },
    {
      "constant": true,
      "inputs": [
        {
          "name": "tokenId",
          "type": "uint256"
        }
      ],
      "name": "foreclosureTime",
      "outputs": [
        {
          "name": "",
          "type": "uint256"
        }
      ],
      "payable": false,
      "stateMutability": "view",
      "type": "function"
    },
    {
      "constant": false,
      "inputs": [
        {
          "name": "tokenId",
          "type": "uint256"
        }
      ],
      "name": "_collectPatronage",
      "outputs": [],
      "payable": false,
      "stateMutability": "nonpayable",
      "type": "function"
    },
    {
      "constant": false,
      "inputs": [
        {
          "name": "tokenPatron",
          "type": "address"
        }
      ],
      "name": "_collectPatronagePatron",
      "outputs": [],
      "payable": false,
      "stateMutability": "nonpayable",
      "type": "function"
    },
    {
      "constant": false,
      "inputs": [],
      "name": "depositWei",
      "outputs": [],
      "payable": true,
      "stateMutability": "payable",
      "type": "function"
    },
    {
      "constant": false,
      "inputs": [
        {
          "name": "patron",
          "type": "address"
        }
      ],
      "name": "depositWeiPatron",
      "outputs": [],
      "payable": true,
      "stateMutability": "payable",
      "type": "function"
    },
    {
      "constant": false,
      "inputs": [
        {
          "name": "tokenId",
          "type": "uint256"
        },
        {
          "name": "_newPrice",
          "type": "uint256"
        }
      ],
      "name": "buy",
      "outputs": [],
      "payable": true,
      "stateMutability": "payable",
      "type": "function"
    },
    {
      "constant": false,
      "inputs": [
        {
          "name": "tokenId",
          "type": "uint256"
        },
        {
          "name": "_newPrice",
          "type": "uint256"
        }
      ],
      "name": "changePrice",
      "outputs": [],
      "payable": false,
      "stateMutability": "nonpayable",
      "type": "function"
    },
    {
      "constant": false,
      "inputs": [
        {
          "name": "_wei",
          "type": "uint256"
        }
      ],
      "name": "withdrawDeposit",
      "outputs": [
        {
          "name": "",
          "type": "uint256"
        }
      ],
      "payable": false,
      "stateMutability": "nonpayable",
      "type": "function"
    },
    {
      "constant": false,
      "inputs": [],
      "name": "withdrawBenefactorFunds",
      "outputs": [],
      "payable": false,
      "stateMutability": "nonpayable",
      "type": "function"
    },
    {
      "constant": false,
      "inputs": [
        {
          "name": "benefactor",
          "type": "address"
        }
      ],
      "name": "withdrawBenefactorFundsTo",
      "outputs": [],
      "payable": false,
      "stateMutability": "nonpayable",
      "type": "function"
    },
    {
      "constant": false,
      "inputs": [],
      "name": "exit",
      "outputs": [],
      "payable": false,
      "stateMutability": "nonpayable",
      "type": "function"
    }
  ],
  "bytecode": "0x608060405234801561001057600080fd5b5061258f806100206000396000f3fe608060405260043610610263576000357c0100000000000000000000000000000000000000000000000000000000900480638cb6889911610156578063d530bff9116100d3578063e4fb7aa911610097578063e4fb7aa914610a66578063e9fad8ee14610a99578063f340fa0114610aae578063f851a44014610ae1578063f9345df514610af6578063fb84e7ec14610b2957610263565b8063d530bff914610989578063d6febde8146109bc578063d9d85b07146109df578063e1c214c614610a12578063e2e7ec2114610a3c57610263565b8063b9c3c38d1161011a578063b9c3c38d146108a0578063c08f66cb146108d3578063c255dd0014610906578063c331005214610939578063cad679711461096357610263565b80638cb68899146107cb5780638f283970146107f5578063b08d024b14610828578063b3de019c1461085b578063b9af132c1461088b57610263565b80632a9cdd7a116101e45780633adbd0fb116101a85780633adbd0fb1461051f5780633e4f49e6146105585780634b36bf0e146105a65780635b2ace641461075e5780638cb3c25f1461078857610263565b80632a9cdd7a1461044a5780632b09e013146104745780632c3db6ea146104ad57806333289a46146104e0578063385320aa1461050a57610263565b80631b2527811161022b5780631b2527811461033a5780631e8b76ad14610376578063237b5e4f146103b45780632488a69e146103ed57806326a49e371461042057610263565b80630e8f274f146102685780631083f761146102ae578063128ee161146102c357806315488b88146102ed5780631794bb3c146102f7575b600080fd5b34801561027457600080fd5b506102926004803603602081101561028b57600080fd5b5035610b53565b60408051600160a060020a039092168252519081900360200190f35b3480156102ba57600080fd5b50610292610b6e565b3480156102cf57600080fd5b50610292600480360360208110156102e657600080fd5b5035610b7d565b6102f5610b98565b005b34801561030357600080fd5b506102f56004803603606081101561031a57600080fd5b50600160a060020a03813581169160208101359091169060400135610ba3565b34801561034657600080fd5b506103646004803603602081101561035d57600080fd5b5035610c8f565b60408051918252519081900360200190f35b34801561038257600080fd5b506103a06004803603602081101561039957600080fd5b5035610ca1565b604080519115158252519081900360200190f35b3480156103c057600080fd5b50610364600480360360408110156103d757600080fd5b5080359060200135600160a060020a0316610ccb565b3480156103f957600080fd5b506102f56004803603602081101561041057600080fd5b5035600160a060020a0316610ce8565b34801561042c57600080fd5b506103646004803603602081101561044357600080fd5b5035610e51565b34801561045657600080fd5b506103646004803603602081101561046d57600080fd5b5035610e63565b34801561048057600080fd5b506103a06004803603604081101561049757600080fd5b5080359060200135600160a060020a0316610ee5565b3480156104b957600080fd5b506102f5600480360360208110156104d057600080fd5b5035600160a060020a0316610f05565b3480156104ec57600080fd5b506103646004803603602081101561050357600080fd5b5035610fce565b34801561051657600080fd5b506102f5610fe9565b34801561052b57600080fd5b506102f56004803603604081101561054257600080fd5b5080359060200135600160a060020a0316610ff2565b34801561056457600080fd5b506105826004803603602081101561057b57600080fd5b50356110d5565b6040518082600181111561059257fe5b60ff16815260200191505060405180910390f35b3480156105b257600080fd5b506102f5600480360360608110156105c957600080fd5b8101906020810181356401000000008111156105e457600080fd5b8201836020820111156105f657600080fd5b8035906020019184602083028401116401000000008311171561061857600080fd5b919080806020026020016040519081016040528093929190818152602001838360200280828437600092019190915250929594936020810193503591505064010000000081111561066857600080fd5b82018360208201111561067a57600080fd5b8035906020019184602083028401116401000000008311171561069c57600080fd5b91908080602002602001604051908101604052809392919081815260200183836020028082843760009201919091525092959493602081019350359150506401000000008111156106ec57600080fd5b8201836020820111156106fe57600080fd5b8035906020019184602083028401116401000000008311171561072057600080fd5b9190808060200260200160405190810160405280939291908181526020018383602002808284376000920191909152509295506110ea945050505050565b34801561076a57600080fd5b506103646004803603602081101561078157600080fd5b5035611309565b34801561079457600080fd5b506107b2600480360360208110156107ab57600080fd5b503561131b565b6040805192835260208301919091528051918290030190f35b3480156107d757600080fd5b50610364600480360360208110156107ee57600080fd5b5035611330565b34801561080157600080fd5b506102f56004803603602081101561081857600080fd5b5035600160a060020a0316611342565b34801561083457600080fd5b506103646004803603602081101561084b57600080fd5b5035600160a060020a03166113d3565b34801561086757600080fd5b506102f56004803603604081101561087e57600080fd5b50803590602001356113e5565b34801561089757600080fd5b506103646115f4565b3480156108ac57600080fd5b50610364600480360360208110156108c357600080fd5b5035600160a060020a03166115fa565b3480156108df57600080fd5b50610364600480360360208110156108f657600080fd5b5035600160a060020a0316611652565b34801561091257600080fd5b506103646004803603602081101561092957600080fd5b5035600160a060020a03166116dc565b34801561094557600080fd5b506103646004803603602081101561095c57600080fd5b50356116ee565b6102f56004803603602081101561097957600080fd5b5035600160a060020a0316611700565b34801561099557600080fd5b506107b2600480360360208110156109ac57600080fd5b5035600160a060020a03166117b3565b6102f5600480360360408110156109d257600080fd5b50803590602001356117bf565b3480156109eb57600080fd5b5061036460048036036020811015610a0257600080fd5b5035600160a060020a0316611b15565b348015610a1e57600080fd5b5061036460048036036020811015610a3557600080fd5b5035611b7e565b348015610a4857600080fd5b5061036460048036036020811015610a5f57600080fd5b5035611b9f565b348015610a7257600080fd5b506103a060048036036020811015610a8957600080fd5b5035600160a060020a0316611bb1565b348015610aa557600080fd5b506102f5611be8565b348015610aba57600080fd5b5061036460048036036020811015610ad157600080fd5b5035600160a060020a0316611c0e565b348015610aed57600080fd5b50610292611c20565b348015610b0257600080fd5b5061036460048036036020811015610b1957600080fd5b5035600160a060020a0316611c2f565b348015610b3557600080fd5b506102f560048036036020811015610b4c57600080fd5b5035611c41565b603d60205260009081526040902054600160a060020a031681565b603454600160a060020a031681565b603b60205260009081526040902054600160a060020a031681565b610ba133611700565b565b600054610100900460ff1680610bbc5750610bbc611f5b565b80610bca575060005460ff16155b1515610c0a5760405160e560020a62461bcd02815260040180806020018281038252602e815260200180612536602e913960400191505060405180910390fd5b600054610100900460ff16158015610c35576000805460ff1961ff0019909116610100171660011790555b60348054600160a060020a0380871673ffffffffffffffffffffffffffffffffffffffff1992831617909255604480549286169290911691909117905560428290558015610c89576000805461ff00191690555b50505050565b60366020526000908152604090205481565b6000818152603d6020526040812054600160a060020a0316610cc281611bb1565b9150505b919050565b603f60209081526000928352604080842090915290825290205481565b6000610cf382611652565b9050600081118015610d1d5750600160a060020a0382166000908152603960205260409020548110155b15610dbb57600160a060020a0382166000908152603860209081526040808320546039909252822054909190610d8c90610d7f908590610d7390610d67428863ffffffff611f6116565b9063ffffffff611fc116565b9063ffffffff61202816565b839063ffffffff61209716565b600160a060020a038516600090815260386020908152604080832093909355603990529081205550610e0b9050565b600160a060020a03821660009081526038602090815260408083204290556039909152902054610df1908263ffffffff611f6116565b600160a060020a0383166000908152603960205260409020555b600160a060020a0382166000818152603960205260408082205490519092917ff577d8d6d15e285afdb38e070d8a5b4c0c72cb9f56708d148024016680b3838a91a35050565b60336020526000908152604090205481565b6000818152603760205260408120541515610e8057506000610cc6565b604254600083815260416020908152604080832054603790925290912054610edf926301e1338092610d7392839190610d6790610ec490429063ffffffff611f6116565b60008a8152603360205260409020549063ffffffff611fc116565b92915050565b603e60209081526000928352604080842090915290825290205460ff1681565b600160a060020a0381166000908152603c602052604081205411610f73576040805160e560020a62461bcd02815260206004820152601260248201527f4e6f2066756e647320617661696c61626c650000000000000000000000000000604482015290519081900360640190fd5b600160a060020a0381166000818152603c602052604080822054905181156108fc0292818181858888f19350505050158015610fb3573d6000803e3d6000fd5b50600160a060020a03166000908152603c6020526040812055565b600033610fda81610ce8565b610fe3836120f4565b50919050565b610ba133610f05565b6000828152603b60205260409020548290600160a060020a03163314806110235750604454600160a060020a031633145b1515611079576040805160e560020a62461bcd02815260206004820152601760248201527f4e6f742062656e65666163746f72206f722061646d696e000000000000000000604482015290519081900360640190fd5b506000918252603b602090815260408084208054600160a060020a0394851673ffffffffffffffffffffffffffffffffffffffff198216811790925593909316808552603c909252808420805493855290842092909255825255565b60436020526000908152604090205460ff1681565b604454600160a060020a0316331461114c576040805160e560020a62461bcd02815260206004820152600960248201527f4e6f742061646d696e0000000000000000000000000000000000000000000000604482015290519081900360640190fd5b815183511461115757fe5b60005b83518160ff161015610c89578251600090849060ff841690811061117a57fe5b60209081029091010151600160a060020a0316141561119557fe5b828160ff168151811015156111a657fe5b90602001906020020151603b6000868460ff168151811015156111c557fe5b90602001906020020151815260200190815260200160002060006101000a815481600160a060020a030219169083600160a060020a03160217905550600060436000868460ff1681518110151561121857fe5b60209081029091018101518252810191909152604001600020805460ff19166001838181111561124457fe5b0217905550818160ff1681518110151561125a57fe5b9060200190602002015160416000868460ff1681518110151561127957fe5b90602001906020020151815260200190815260200160002081905550838160ff168151811015156112a657fe5b906020019060200201517f210ae353ce16aa90d4e1030c30c12482a2dc45bbfed71e98267e93fb7684fa07838360ff168151811015156112e257fe5b906020019060200201516040518082815260200191505060405180910390a260010161115a565b60406020819052600091825290205481565b60008061132783610e63565b93429350915050565b60376020526000908152604090205481565b604454600160a060020a031633146113a4576040805160e560020a62461bcd02815260206004820152600960248201527f4e6f742061646d696e0000000000000000000000000000000000000000000000604482015290519081900360640190fd5b6044805473ffffffffffffffffffffffffffffffffffffffff1916600160a060020a0392909216919091179055565b60386020526000908152604090205481565b6000828152603d60205260409020548290600160a060020a03163314611455576040805160e560020a62461bcd02815260206004820152600a60248201527f4e6f7420706174726f6e00000000000000000000000000000000000000000000604482015290519081900360640190fd5b8261145f81611c41565b60008481526043602052604081205460ff16600181111561147c57fe5b14156114d2576040805160e560020a62461bcd02815260206004820152600a60248201527f466f7265636c6f73656400000000000000000000000000000000000000000000604482015290519081900360640190fd5b821515611529576040805160e560020a62461bcd02815260206004820152600f60248201527f496e636f72726563742050726963650000000000000000000000000000000000604482015290519081900360640190fd5b6000848152604160205260409020546115a49061154d90859063ffffffff611fc116565b6000868152604160209081526040808320546033909252909120546115989161157c919063ffffffff611fc116565b336000908152603a60205260409020549063ffffffff611f6116565b9063ffffffff61209716565b336000908152603a602090815260408083209390935586825260339052818120859055905184917f854d6511a28585103049c7770618450f7c9aeb580c69db2913d63869663f475191a250505050565b60425481565b604254600160a060020a0382166000908152603a602052604081205490918291611633916301e1338091610d739163ffffffff61202816565b9050610cc261164582610d7386611b15565b429063ffffffff61209716565b600160a060020a038116600090815260386020526040812054151561167957506000610cc6565b604254600160a060020a038316600090815260386020526040902054610edf916301e1338091610d73919082906116b790429063ffffffff611f6116565b600160a060020a0388166000908152603a60205260409020549063ffffffff611fc116565b603c6020526000908152604090205481565b60356020526000908152604090205481565b600160a060020a0381166000908152603a60205260408120541161176e576040805160e560020a62461bcd02815260206004820152600f60248201527f4e6f20746f6b656e73206f776e65640000000000000000000000000000000000604482015290519081900360640190fd5b600160a060020a038116600090815260396020526040902054611797903463ffffffff61209716565b600160a060020a03909116600090815260396020526040902055565b60008061132783611652565b816117c981611c41565b336117d381610ce8565b6000831161182b576040805160e560020a62461bcd02815260206004820152600d60248201527f5072696365206973207a65726f00000000000000000000000000000000000000604482015290519081900360640190fd5b6000848152603360205260409020543411611890576040805160e560020a62461bcd02815260206004820152600a60248201527f4e6f7420656e6f75676800000000000000000000000000000000000000000000604482015290519081900360640190fd5b603454604080517f6352211e000000000000000000000000000000000000000000000000000000008152600481018790529051600092600160a060020a031691636352211e916024808301926020929190829003018186803b1580156118f557600080fd5b505afa158015611909573d6000803e3d6000fd5b505050506040513d602081101561191f57600080fd5b50516000868152603d6020526040902054909150600160a060020a0316600160008781526043602052604090205460ff16600181111561195b57fe5b1415611a33576000868152603360208181526040808420546041835293205491905261198e90829063ffffffff611fc116565b600160a060020a0383166000908152603a602052604090205414156119f357600160a060020a0382166000908152603960205260409020546119d790829063ffffffff61209716565b600160a060020a03831660009081526039602052604081205590505b6040518290600160a060020a0382169083156108fc029084906000818181858888f19350505050158015611a2b573d6000803e3d6000fd5b505050611a7d565b60008681526043602052604081205460ff166001811115611a5057fe5b1415611a7d576000868152604360209081526040808320805460ff19166001179055603790915290204290555b600086815260336020526040902054611abd90611aa190349063ffffffff611f6116565b336000908152603960205260409020549063ffffffff61209716565b33600081815260396020526040902091909155611ae090879084908490896121bd565b604051859033907f4f79409f494e81c38036d80aa8a6507c2cb08d90bfb2fead5519447646b3497e90600090a3505050505050565b600080611b2183611652565b600160a060020a0384166000908152603960205260409020549091508110611b4d576000915050610cc6565b600160a060020a038316600090815260396020526040902054611b76908263ffffffff611f6116565b915050610cc6565b6000818152603d6020526040812054600160a060020a0316610cc2816115fa565b60416020526000908152604090205481565b600160a060020a038116600090815260396020526040812054611bd383611652565b10611be057506001610cc6565b506000610cc6565b33611bf281610ce8565b33600090815260396020526040902054611c0b906120f4565b50565b60396020526000908152604090205481565b604454600160a060020a031681565b603a6020526000908152604090205481565b600160008281526043602052604090205460ff166001811115611c6057fe5b1415611c0b576000818152603d60209081526040808320546037909252822054600160a060020a0390911691611c9583611652565b600160a060020a038416600090815260396020526040812054919250908210611dc457600160a060020a0384166000908152603960209081526040808320546038909252822054611d2091611cfb918691610d7391610d6790429063ffffffff611f6116565b600160a060020a0387166000908152603860205260409020549063ffffffff61209716565b6000878152603760209081526040808320849055600160a060020a0389168352603882528083208490556042548a8452604190925290912054919250611d9a916301e1338091610d73918290610d67611d7f888c63ffffffff611f6116565b60008e8152603360205260409020549063ffffffff611fc116565b600160a060020a0386166000908152603960205260408120559150611dbe866123fc565b50611eae565b604254600086815260416020526040902054611e15916301e1338091610d7391908290610d67611dfa428b63ffffffff611f6116565b60008d8152603360205260409020549063ffffffff611fc116565b60008681526037602090815260408083204290819055600160a060020a038916845260388352818420558883526036909152902054909150611e5d908263ffffffff61209716565b600086815260366020908152604080832093909355600160a060020a0387168252603990522054611e94908363ffffffff611f6116565b600160a060020a0385166000908152603960205260409020555b600085815260356020526040902054611ecd908263ffffffff61209716565b600086815260356020908152604080832093909355603b815282822054600160a060020a0316808352603c90915291902054611f0f908363ffffffff61209716565b600160a060020a0382166000908152603c602052604080822092909255905183917f54acb82a9e70d7c289b149758d23167c915428ae854a7aa4abe5bf2f4ef29f3691a2505050505050565b303b1590565b600082821115611fbb576040805160e560020a62461bcd02815260206004820152601e60248201527f536166654d6174683a207375627472616374696f6e206f766572666c6f770000604482015290519081900360640190fd5b50900390565b6000821515611fd257506000610edf565b828202828482811515611fe157fe5b04146120215760405160e560020a62461bcd0281526004018080602001828103825260218152602001806125156021913960400191505060405180910390fd5b9392505050565b6000808211612081576040805160e560020a62461bcd02815260206004820152601a60248201527f536166654d6174683a206469766973696f6e206279207a65726f000000000000604482015290519081900360640190fd5b6000828481151561208e57fe5b04949350505050565b600082820183811015612021576040805160e560020a62461bcd02815260206004820152601b60248201527f536166654d6174683a206164646974696f6e206f766572666c6f770000000000604482015290519081900360640190fd5b3360009081526039602052604090205481111561215b576040805160e560020a62461bcd02815260206004820152601460248201527f5769746864726177696e6720746f6f206d756368000000000000000000000000604482015290519081900360640190fd5b3360009081526039602052604090205461217b908263ffffffff611f6116565b33600081815260396020526040808220939093559151909183156108fc02918491818181858888f193505050501580156121b9573d6000803e3d6000fd5b5050565b600085815260416020526040902054612206906121e190839063ffffffff611fc116565b600160a060020a0384166000908152603a60205260409020549063ffffffff61209716565b600160a060020a0383166000908152603a602090815260408083209390935587825260418152828220546033909152919020546122729161224d919063ffffffff611fc116565b600160a060020a0385166000908152603a60205260409020549063ffffffff611f6116565b600160a060020a0384166000908152603a6020908152604080832093909355878252828152828220546037909152919020546122e7916122b8919063ffffffff611f6116565b6000878152603f60209081526040808320600160a060020a03891684529091529020549063ffffffff61209716565b6000868152603f60209081526040808320600160a060020a03808916855292528083209390935560345483517f23b872dd00000000000000000000000000000000000000000000000000000000815288831660048201528683166024820152604481018a905293519116926323b872dd92606480830193919282900301818387803b15801561237557600080fd5b505af1158015612389573d6000803e3d6000fd5b505050600095865250603d602090815260408087208054600160a060020a0390951673ffffffffffffffffffffffffffffffffffffffff19909516851790556033825280872092909255818152818620429055603e815281862092865291909152909220805460ff191660011790555050565b603454604080517f6352211e000000000000000000000000000000000000000000000000000000008152600481018490529051600092600160a060020a031691636352211e916024808301926020929190829003018186803b15801561246157600080fd5b505afa158015612475573d6000803e3d6000fd5b505050506040513d602081101561248b57600080fd5b50516000838152603d6020526040812054919250600160a060020a03909116906124bc9084908490849030906121bd565b6000838152604360209081526040808320805460ff19169055603690915280822082905551600160a060020a038416917f6d6bbefef62d4cb6d0e3a4dd306a71d3632319b1e03659513df86b247dd657fe91a250505056fe536166654d6174683a206d756c7469706c69636174696f6e206f766572666c6f77436f6e747261637420696e7374616e63652068617320616c7265616479206265656e20696e697469616c697a6564a165627a7a7230582084ee22605d31ef12ed4c964ac2ba8e52414622147863a3e4ee943be58c5181430029",
  "source": "pragma solidity ^0.5.0;\nimport \"./ERC721Patronage_v0.sol\";\n\ncontract WildcardSteward_v0 is Initializable {\n\n    /*\n    This smart contract collects patronage from current owner through a Harberger tax model and \n    takes stewardship of the asset token if the patron can't pay anymore.\n\n    Harberger Tax (COST): \n    - Asset is always on sale.\n    - You have to have a price set.\n    - Tax (Patronage) is paid to maintain ownership.\n    - Steward maints control over ERC721.\n    */\n    using SafeMath for uint256;\n\n    mapping(uint256 => uint256) public price; //in wei\n    ERC721Patronage_v0 public assetToken; // ERC721 NFT.\n\n    mapping(uint256 => uint256) public totalCollected; // all patronage ever collected\n    mapping(uint256 => uint256) public currentCollected; // amount currently collected for patron\n    mapping(uint256 => uint256) public timeLastCollected;\n    mapping(address => uint256) public timeLastCollectedPatron;\n    mapping(address => uint256) public deposit;\n    mapping(address => uint256) public totalPatronOwnedTokenCost;\n\n    mapping(uint256 => address payable) public benefactors; // non-profit benefactor\n    mapping(address => uint256) public benefactorFunds;\n\n    mapping(uint256 => address) public currentPatron; // This is different to the current token owner.\n    mapping(uint256 => mapping (address => bool)) public patrons;\n    mapping(uint256 => mapping (address => uint256)) public timeHeld;\n\n    mapping(uint256 => uint256) public timeAcquired;\n\n    // 1200% patronage\n    mapping(uint256 => uint256) public patronageNumerator;\n    uint256 public patronageDenominator;\n\n    enum StewardState { Foreclosed, Owned }\n    mapping(uint256 => StewardState) public state;\n\n    address public admin;\n\n    event LogBuy(address indexed owner, uint256 indexed price);\n    event LogPriceChange(uint256 indexed newPrice);\n    event LogForeclosure(address indexed prevOwner);\n    event LogCollection(uint256 indexed collected);\n    event LogRemainingDepositUpdate(address indexed tokenPatron, uint256 indexed remainingDeposit);\n    event AddToken(uint256 indexed tokenId, uint256 patronageNumerator);\n\n    modifier onlyPatron(uint256 tokenId) {\n        require(msg.sender == currentPatron[tokenId], \"Not patron\");\n        _;\n    }\n\n    // modifier onlyReceivingBenefactor(uint256 tokenId) {\n    //     require(msg.sender == benefactors[tokenId], \"Not benefactor\");\n    //     _;\n    // }\n\n    modifier onlyAdmin() {\n        require(msg.sender == admin, \"Not admin\");\n        _;\n    }\n\n     modifier onlyReceivingBenefactorOrAdmin(uint256 tokenId) {\n        require(msg.sender == benefactors[tokenId] || msg.sender == admin, \"Not benefactor or admin\");\n        _;\n    }\n\n    modifier collectPatronage(uint256 tokenId) {\n       _collectPatronage(tokenId);\n       _;\n    }\n\n    modifier collectPatronageAddress(address tokenPatron) {\n       _collectPatronagePatron(tokenPatron);\n       _;\n    }\n\n    function initialize(address _assetToken, address _admin, uint256 _patronageDenominator) public initializer {\n        assetToken = ERC721Patronage_v0(_assetToken);\n        admin = _admin;\n        patronageDenominator = _patronageDenominator;\n    }\n\n    // TODO:: add validation that the token that is complient with the \"PatronageToken\" ERC721 interface extension somehow!\n    function listNewTokens(uint256[] memory tokens, address payable[] memory _benefactors, uint256[] memory _patronageNumerator) public onlyAdmin {\n        assert(tokens.length == _benefactors.length);\n        for (uint8 i = 0; i < tokens.length; ++i){\n            assert(_benefactors[i]!=address(0));\n            benefactors[tokens[i]] = _benefactors[i];\n            state[tokens[i]] = StewardState.Foreclosed;\n            patronageNumerator[tokens[i]] = _patronageNumerator[i];\n            emit AddToken(tokens[i], _patronageNumerator[i]);\n        }\n    }\n\n    function changeReceivingBenefactor(uint256 tokenId, address payable _newReceivingBenefactor)\n    public onlyReceivingBenefactorOrAdmin(tokenId) {\n        address oldBenfactor = benefactors[tokenId];\n        benefactors[tokenId] = _newReceivingBenefactor;\n        benefactorFunds[_newReceivingBenefactor] = benefactorFunds[oldBenfactor];\n        benefactorFunds[oldBenfactor] = 0;\n    }\n\n    function changeAdmin(address _admin) public onlyAdmin {\n        admin = _admin;\n    }\n\n    /* public view functions */\n    function patronageOwed(uint256 tokenId) public view returns (uint256 patronageDue) {\n        if (timeLastCollected[tokenId] == 0) return 0;\n\n        return price[tokenId].mul(now.sub(timeLastCollected[tokenId])).mul(patronageNumerator[tokenId])\n          .div(patronageDenominator).div(365 days);\n    }\n\n    function patronageOwedWithTimestamp(uint256 tokenId) public view returns (uint256 patronageDue, uint256 timestamp) {\n        return (patronageOwed(tokenId), now);\n    }\n\n    // TODO: make a version of this function that is for patronage owed by token rather than by tokenPatron like it is now.\n    function patronageOwedPatron(address tokenPatron) public view returns (uint256 patronageDue) {\n        if (timeLastCollectedPatron[tokenPatron] == 0) return 0;\n\n        // NOTE/TODO: to cater to different patronage rates, we should include it in the `totalPatronOwnedTokenCost` (and probably rename that variable)\n        return totalPatronOwnedTokenCost[tokenPatron].mul(now.sub(timeLastCollectedPatron[tokenPatron]))\n          .div(patronageDenominator).div(365 days);\n    }\n\n    function patronageOwedPatronWithTimestamp(address tokenPatron) public view returns (uint256 patronageDue, uint256 timestamp) {\n        return (patronageOwedPatron(tokenPatron), now);\n    }\n\n    function foreclosedPatron(address tokenPatron) public view returns (bool) {\n        // returns whether it is in foreclosed state or not\n        // depending on whether deposit covers patronage due\n        // useful helper function when price should be zero, but contract doesn't reflect it yet.\n        if (patronageOwedPatron(tokenPatron) >= deposit[tokenPatron]) {\n            return true;\n        } else {\n            return false;\n        }\n    }\n\n    function foreclosed(uint256 tokenId) public view returns (bool) {\n        // returns whether it is in foreclosed state or not\n        // depending on whether deposit covers patronage due\n        // useful helper function when price should be zero, but contract doesn't reflect it yet.\n        address tokenPatron = currentPatron[tokenId];\n        return foreclosedPatron(tokenPatron);\n    }\n\n    // same function as above, basically\n    function depositAbleToWithdraw(address tokenPatron) public view returns (uint256) {\n        uint256 collection = patronageOwedPatron(tokenPatron);\n        if(collection >= deposit[tokenPatron]) {\n            return 0;\n        } else {\n            return deposit[tokenPatron].sub(collection);\n        }\n    }\n\n    /*\n    now + deposit/patronage per second \n    now + depositAbleToWithdraw/(price*nume/denom/365).\n    */\n    function foreclosureTimePatron(address tokenPatron) public view returns (uint256) {\n        // patronage per second\n        uint256 pps = totalPatronOwnedTokenCost[tokenPatron].div(patronageDenominator).div(365 days);\n        return now.add(depositAbleToWithdraw(tokenPatron).div(pps)); // zero division if price is zero.\n    }\n    function foreclosureTime(uint256 tokenId) public view returns (uint256) {\n        address tokenPatron = currentPatron[tokenId];\n        return foreclosureTimePatron(tokenPatron);\n    }\n\n    /* actions */\n    // TODO:: think of more efficient ways for recipients to collect patronage for lots of tokens at the same time.\n    function _collectPatronage(uint256 tokenId) public {\n        // determine patronage to pay\n        if (state[tokenId] == StewardState.Owned) {\n            address tokenPatron = currentPatron[tokenId];\n            uint256 previousTokenCollection = timeLastCollected[tokenId]; \n            uint256 patronageOwedByTokenPatron = patronageOwedPatron(tokenPatron);\n            uint256 collection;\n\n            // should foreclose and stake stewardship\n            if (patronageOwedByTokenPatron >= deposit[tokenPatron]) {\n                // up to when was it actually paid for?\n                uint256 newTimeLastCollected = timeLastCollectedPatron[tokenPatron].add(((now.sub(timeLastCollectedPatron[tokenPatron])).mul(deposit[tokenPatron]).div(patronageOwedByTokenPatron)));\n\n                timeLastCollected[tokenId] = newTimeLastCollected;\n                timeLastCollectedPatron[tokenPatron] = newTimeLastCollected;\n                collection = price[tokenId].mul(newTimeLastCollected.sub(previousTokenCollection)).mul(patronageNumerator[tokenId]).div(patronageDenominator).div(365 days);\n\n                deposit[tokenPatron] = 0;\n                _foreclose(tokenId);\n            } else {\n                // just a normal collection\n                collection = price[tokenId].mul(now.sub(previousTokenCollection)).mul(patronageNumerator[tokenId]).div(patronageDenominator).div(365 days);\n                timeLastCollected[tokenId] = now;\n                timeLastCollectedPatron[tokenPatron] = now;\n                currentCollected[tokenId] = currentCollected[tokenId].add(collection);\n                deposit[tokenPatron] = deposit[tokenPatron].sub(patronageOwedByTokenPatron);\n            }\n            totalCollected[tokenId] = totalCollected[tokenId].add(collection);\n            address benefactor = benefactors[tokenId];\n            benefactorFunds[benefactor] = benefactorFunds[benefactor].add(collection);\n            emit LogCollection(collection);\n        }\n    }\n\n    // This does accounting without transfering any tokens\n    function _collectPatronagePatron(address tokenPatron) public {\n        uint256 patronageOwedByTokenPatron = patronageOwedPatron(tokenPatron);\n        if (patronageOwedByTokenPatron > 0 && patronageOwedByTokenPatron >= deposit[tokenPatron]) {\n            uint256 previousCollectionTime = timeLastCollectedPatron[tokenPatron];\n            // up to when was it actually paid for?\n            uint256 newTimeLastCollected = previousCollectionTime.add(((now.sub(previousCollectionTime)).mul(deposit[tokenPatron]).div(patronageOwedByTokenPatron)));\n            timeLastCollectedPatron[tokenPatron] = newTimeLastCollected;\n            deposit[tokenPatron] = 0;\n        } else  {\n            timeLastCollectedPatron[tokenPatron] = now;\n            deposit[tokenPatron] = deposit[tokenPatron].sub(patronageOwedByTokenPatron);\n        }\n\n        emit LogRemainingDepositUpdate(tokenPatron, deposit[tokenPatron]);\n    }\n\n    // note: anyone can deposit\n    function depositWei() public payable {\n      depositWeiPatron(msg.sender);\n    }\n    function depositWeiPatron(address patron) public payable {\n        require(totalPatronOwnedTokenCost[patron] > 0, \"No tokens owned\");\n        deposit[patron] = deposit[patron].add(msg.value);\n    }\n\n    function buy(uint256 tokenId, uint256 _newPrice) public payable collectPatronage(tokenId) collectPatronageAddress(msg.sender) {\n        require(_newPrice > 0, \"Price is zero\");\n        require(msg.value > price[tokenId], \"Not enough\"); // >, coz need to have at least something for deposit\n        address currentOwner = assetToken.ownerOf(tokenId);\n        address tokenPatron = currentPatron[tokenId];\n\n        if (state[tokenId] == StewardState.Owned) {\n            uint256 totalToPayBack = price[tokenId];\n            // NOTE: pay back the deposit only if it is the only token the patron owns.\n            if(totalPatronOwnedTokenCost[tokenPatron] == price[tokenId].mul(patronageNumerator[tokenId])) {\n                totalToPayBack = totalToPayBack.add(deposit[tokenPatron]);\n                deposit[tokenPatron] = 0;\n            }\n\n            // pay previous owner their price + deposit back.\n            address payable payableCurrentPatron = address(uint160(tokenPatron));\n            payableCurrentPatron.transfer(totalToPayBack);\n        } else if(state[tokenId] == StewardState.Foreclosed) {\n            state[tokenId] = StewardState.Owned;\n            timeLastCollected[tokenId] = now;\n        }\n\n        deposit[msg.sender] = deposit[msg.sender].add(msg.value.sub(price[tokenId]));\n        transferAssetTokenTo(tokenId, currentOwner, tokenPatron, msg.sender, _newPrice);\n        emit LogBuy(msg.sender, _newPrice);\n    }\n\n    function changePrice(uint256 tokenId, uint256 _newPrice) public onlyPatron(tokenId) collectPatronage(tokenId) {\n        require(state[tokenId] != StewardState.Foreclosed, \"Foreclosed\");\n        require(_newPrice != 0, \"Incorrect Price\");\n\n        totalPatronOwnedTokenCost[msg.sender] = totalPatronOwnedTokenCost[msg.sender]\n          .sub(price[tokenId].mul(patronageNumerator[tokenId]))\n          .add(_newPrice.mul(patronageNumerator[tokenId]));\n\n        price[tokenId] = _newPrice;\n        emit LogPriceChange(price[tokenId]);\n    }\n\n    function withdrawDeposit(uint256 _wei) public collectPatronageAddress(msg.sender) returns (uint256) {\n        _withdrawDeposit(_wei);\n    }\n\n    function withdrawBenefactorFunds() public {\n        withdrawBenefactorFundsTo(msg.sender);\n    }\n\n    function withdrawBenefactorFundsTo(address payable benefactor) public {\n        require(benefactorFunds[benefactor] > 0, \"No funds available\");\n        benefactor.transfer(benefactorFunds[benefactor]);\n        benefactorFunds[benefactor] = 0;\n    }\n\n    function exit() public collectPatronageAddress(msg.sender) {\n        _withdrawDeposit(deposit[msg.sender]);\n    }\n\n    /* internal */\n    function _withdrawDeposit(uint256 _wei) internal {\n        // note: can withdraw whole deposit, which puts it in immediate to be foreclosed state.\n        require(deposit[msg.sender] >= _wei, 'Withdrawing too much');\n\n        deposit[msg.sender] = deposit[msg.sender].sub(_wei);\n        msg.sender.transfer(_wei); // msg.sender == patron\n    }\n\n    function _foreclose(uint256 tokenId) internal {\n        // become steward of assetToken (aka foreclose)\n        address currentOwner = assetToken.ownerOf(tokenId);\n        address tokenPatron = currentPatron[tokenId];\n        transferAssetTokenTo(tokenId, currentOwner, tokenPatron, address(this), 0);\n        state[tokenId] = StewardState.Foreclosed;\n        currentCollected[tokenId] = 0;\n\n        emit LogForeclosure(currentOwner);\n    }\n\n    function transferAssetTokenTo(uint256 tokenId, address _currentOwner, address _currentPatron, address _newOwner, uint256 _newPrice) internal {\n        // TODO: add the patronage rate as a multiplier here: https://github.com/wild-cards/contracts/issues/7\n        totalPatronOwnedTokenCost[_newOwner] = totalPatronOwnedTokenCost[_newOwner].add(_newPrice.mul(patronageNumerator[tokenId]));\n        totalPatronOwnedTokenCost[_currentPatron] = totalPatronOwnedTokenCost[_currentPatron].sub(price[tokenId].mul(patronageNumerator[tokenId]));\n\n        // note: it would also tabulate time held in stewardship by smart contract\n        timeHeld[tokenId][_currentPatron] = timeHeld[tokenId][_currentPatron].add((timeLastCollected[tokenId].sub(timeAcquired[tokenId])));\n\n        assetToken.transferFrom(_currentOwner, _newOwner, tokenId);\n\n        currentPatron[tokenId] = _newOwner;\n\n        price[tokenId] = _newPrice;\n        timeAcquired[tokenId] = now;\n        patrons[tokenId][_newOwner] = true;\n    }\n}\n",
  "sourcePath": "/home/jasoons/Documents/clean-code/contracts/contracts/WildcardSteward_v0.sol",
  "compiler": {
    "name": "solc",
    "version": "0.5.4+commit.9549d8ff.Emscripten.clang"
  },
  "schemaVersion": "3.0.16",
  "updatedAt": "2019-10-23T15:54:25.968Z",
  "devdoc": {
    "methods": {}
  },
  "userdoc": {
    "methods": {}
  }
}