{
  "contractName": "WildcardSteward_v0",
  "abi": [
    {
      "constant": true,
      "inputs": [
        {
          "name": "",
          "type": "uint256"
        }
      ],
      "name": "currentPatron",
      "outputs": [
        {
          "name": "",
          "type": "address"
        }
      ],
      "payable": false,
      "stateMutability": "view",
      "type": "function"
    },
    {
      "constant": true,
      "inputs": [],
      "name": "assetToken",
      "outputs": [
        {
          "name": "",
          "type": "address"
        }
      ],
      "payable": false,
      "stateMutability": "view",
      "type": "function"
    },
    {
      "constant": true,
      "inputs": [
        {
          "name": "",
          "type": "uint256"
        }
      ],
      "name": "currentCollected",
      "outputs": [
        {
          "name": "",
          "type": "uint256"
        }
      ],
      "payable": false,
      "stateMutability": "view",
      "type": "function"
    },
    {
      "constant": true,
      "inputs": [
        {
          "name": "",
          "type": "uint256"
        },
        {
          "name": "",
          "type": "address"
        }
      ],
      "name": "timeHeld",
      "outputs": [
        {
          "name": "",
          "type": "uint256"
        }
      ],
      "payable": false,
      "stateMutability": "view",
      "type": "function"
    },
    {
      "constant": true,
      "inputs": [
        {
          "name": "",
          "type": "uint256"
        }
      ],
      "name": "price",
      "outputs": [
        {
          "name": "",
          "type": "uint256"
        }
      ],
      "payable": false,
      "stateMutability": "view",
      "type": "function"
    },
    {
      "constant": true,
      "inputs": [
        {
          "name": "",
          "type": "uint256"
        },
        {
          "name": "",
          "type": "address"
        }
      ],
      "name": "patrons",
      "outputs": [
        {
          "name": "",
          "type": "bool"
        }
      ],
      "payable": false,
      "stateMutability": "view",
      "type": "function"
    },
    {
      "constant": true,
      "inputs": [
        {
          "name": "",
          "type": "address"
        }
      ],
      "name": "organizationFunds",
      "outputs": [
        {
          "name": "",
          "type": "uint256"
        }
      ],
      "payable": false,
      "stateMutability": "view",
      "type": "function"
    },
    {
      "constant": true,
      "inputs": [
        {
          "name": "",
          "type": "uint256"
        }
      ],
      "name": "state",
      "outputs": [
        {
          "name": "",
          "type": "uint8"
        }
      ],
      "payable": false,
      "stateMutability": "view",
      "type": "function"
    },
    {
      "constant": true,
      "inputs": [
        {
          "name": "",
          "type": "uint256"
        }
      ],
      "name": "timeAcquired",
      "outputs": [
        {
          "name": "",
          "type": "uint256"
        }
      ],
      "payable": false,
      "stateMutability": "view",
      "type": "function"
    },
    {
      "constant": true,
      "inputs": [
        {
          "name": "",
          "type": "uint256"
        }
      ],
      "name": "timeLastCollected",
      "outputs": [
        {
          "name": "",
          "type": "uint256"
        }
      ],
      "payable": false,
      "stateMutability": "view",
      "type": "function"
    },
    {
      "constant": true,
      "inputs": [
        {
          "name": "",
          "type": "address"
        }
      ],
      "name": "timeLastCollectedUser",
      "outputs": [
        {
          "name": "",
          "type": "uint256"
        }
      ],
      "payable": false,
      "stateMutability": "view",
      "type": "function"
    },
    {
      "constant": true,
      "inputs": [],
      "name": "patronageDenominator",
      "outputs": [
        {
          "name": "",
          "type": "uint256"
        }
      ],
      "payable": false,
      "stateMutability": "view",
      "type": "function"
    },
    {
      "constant": true,
      "inputs": [
        {
          "name": "",
          "type": "uint256"
        }
      ],
      "name": "totalCollected",
      "outputs": [
        {
          "name": "",
          "type": "uint256"
        }
      ],
      "payable": false,
      "stateMutability": "view",
      "type": "function"
    },
    {
      "constant": true,
      "inputs": [
        {
          "name": "",
          "type": "uint256"
        }
      ],
      "name": "patronageNumerator",
      "outputs": [
        {
          "name": "",
          "type": "uint256"
        }
      ],
      "payable": false,
      "stateMutability": "view",
      "type": "function"
    },
    {
      "constant": true,
      "inputs": [
        {
          "name": "",
          "type": "uint256"
        }
      ],
      "name": "organizations",
      "outputs": [
        {
          "name": "",
          "type": "address"
        }
      ],
      "payable": false,
      "stateMutability": "view",
      "type": "function"
    },
    {
      "constant": true,
      "inputs": [
        {
          "name": "",
          "type": "address"
        }
      ],
      "name": "totalUserOwnedTokenCost",
      "outputs": [
        {
          "name": "",
          "type": "uint256"
        }
      ],
      "payable": false,
      "stateMutability": "view",
      "type": "function"
    },
    {
      "constant": true,
      "inputs": [
        {
          "name": "",
          "type": "address"
        }
      ],
      "name": "deposit",
      "outputs": [
        {
          "name": "",
          "type": "uint256"
        }
      ],
      "payable": false,
      "stateMutability": "view",
      "type": "function"
    },
    {
      "constant": true,
      "inputs": [],
      "name": "admin",
      "outputs": [
        {
          "name": "",
          "type": "address"
        }
      ],
      "payable": false,
      "stateMutability": "view",
      "type": "function"
    },
    {
      "anonymous": false,
      "inputs": [
        {
          "indexed": true,
          "name": "owner",
          "type": "address"
        },
        {
          "indexed": true,
          "name": "price",
          "type": "uint256"
        }
      ],
      "name": "LogBuy",
      "type": "event"
    },
    {
      "anonymous": false,
      "inputs": [
        {
          "indexed": true,
          "name": "newPrice",
          "type": "uint256"
        }
      ],
      "name": "LogPriceChange",
      "type": "event"
    },
    {
      "anonymous": false,
      "inputs": [
        {
          "indexed": true,
          "name": "prevOwner",
          "type": "address"
        }
      ],
      "name": "LogForeclosure",
      "type": "event"
    },
    {
      "anonymous": false,
      "inputs": [
        {
          "indexed": true,
          "name": "collected",
          "type": "uint256"
        }
      ],
      "name": "LogCollection",
      "type": "event"
    },
    {
      "constant": false,
      "inputs": [
        {
          "name": "_assetToken",
          "type": "address"
        },
        {
          "name": "_admin",
          "type": "address"
        },
        {
          "name": "_patronageDenominator",
          "type": "uint256"
        }
      ],
      "name": "initialize",
      "outputs": [],
      "payable": false,
      "stateMutability": "nonpayable",
      "type": "function"
    },
    {
      "constant": false,
      "inputs": [
        {
          "name": "tokens",
          "type": "uint256[]"
        },
        {
          "name": "_organizations",
          "type": "address[]"
        },
        {
          "name": "_patronageNumerator",
          "type": "uint256[]"
        }
      ],
      "name": "listNewTokens",
      "outputs": [],
      "payable": false,
      "stateMutability": "nonpayable",
      "type": "function"
    },
    {
      "constant": false,
      "inputs": [
        {
          "name": "tokenId",
          "type": "uint256"
        },
        {
          "name": "_newReceivingOrganization",
          "type": "address"
        }
      ],
      "name": "changeReceivingOrganization",
      "outputs": [],
      "payable": false,
      "stateMutability": "nonpayable",
      "type": "function"
    },
    {
      "constant": false,
      "inputs": [
        {
          "name": "_admin",
          "type": "address"
        }
      ],
      "name": "changeAdmin",
      "outputs": [],
      "payable": false,
      "stateMutability": "nonpayable",
      "type": "function"
    },
    {
      "constant": true,
      "inputs": [
        {
          "name": "tokenId",
          "type": "uint256"
        }
      ],
      "name": "patronageOwed",
      "outputs": [
        {
          "name": "patronageDue",
          "type": "uint256"
        }
      ],
      "payable": false,
      "stateMutability": "view",
      "type": "function"
    },
    {
      "constant": true,
      "inputs": [
        {
          "name": "tokenId",
          "type": "uint256"
        }
      ],
      "name": "patronageOwedWithTimestamp",
      "outputs": [
        {
          "name": "patronageDue",
          "type": "uint256"
        },
        {
          "name": "timestamp",
          "type": "uint256"
        }
      ],
      "payable": false,
      "stateMutability": "view",
      "type": "function"
    },
    {
      "constant": true,
      "inputs": [
        {
          "name": "tokenHolder",
          "type": "address"
        }
      ],
      "name": "patronageOwedUser",
      "outputs": [
        {
          "name": "patronageDue",
          "type": "uint256"
        }
      ],
      "payable": false,
      "stateMutability": "view",
      "type": "function"
    },
    {
      "constant": true,
      "inputs": [
        {
          "name": "tokenHolder",
          "type": "address"
        }
      ],
      "name": "patronageOwedUserWithTimestamp",
      "outputs": [
        {
          "name": "patronageDue",
          "type": "uint256"
        },
        {
          "name": "timestamp",
          "type": "uint256"
        }
      ],
      "payable": false,
      "stateMutability": "view",
      "type": "function"
    },
    {
      "constant": true,
      "inputs": [
        {
          "name": "tokenHolder",
          "type": "address"
        }
      ],
      "name": "foreclosedUser",
      "outputs": [
        {
          "name": "",
          "type": "bool"
        }
      ],
      "payable": false,
      "stateMutability": "view",
      "type": "function"
    },
    {
      "constant": true,
      "inputs": [
        {
          "name": "tokenId",
          "type": "uint256"
        }
      ],
      "name": "foreclosed",
      "outputs": [
        {
          "name": "",
          "type": "bool"
        }
      ],
      "payable": false,
      "stateMutability": "view",
      "type": "function"
    },
    {
      "constant": true,
      "inputs": [
        {
          "name": "tokenHolder",
          "type": "address"
        }
      ],
      "name": "depositAbleToWithdraw",
      "outputs": [
        {
          "name": "",
          "type": "uint256"
        }
      ],
      "payable": false,
      "stateMutability": "view",
      "type": "function"
    },
    {
      "constant": true,
      "inputs": [
        {
          "name": "tokenHolder",
          "type": "address"
        }
      ],
      "name": "foreclosureTimeUser",
      "outputs": [
        {
          "name": "",
          "type": "uint256"
        }
      ],
      "payable": false,
      "stateMutability": "view",
      "type": "function"
    },
    {
      "constant": true,
      "inputs": [
        {
          "name": "tokenId",
          "type": "uint256"
        }
      ],
      "name": "foreclosureTime",
      "outputs": [
        {
          "name": "",
          "type": "uint256"
        }
      ],
      "payable": false,
      "stateMutability": "view",
      "type": "function"
    },
    {
      "constant": false,
      "inputs": [
        {
          "name": "tokenId",
          "type": "uint256"
        }
      ],
      "name": "_collectPatronage",
      "outputs": [],
      "payable": false,
      "stateMutability": "nonpayable",
      "type": "function"
    },
    {
      "constant": false,
      "inputs": [
        {
          "name": "tokenHolder",
          "type": "address"
        }
      ],
      "name": "_collectPatronageUser",
      "outputs": [],
      "payable": false,
      "stateMutability": "nonpayable",
      "type": "function"
    },
    {
      "constant": false,
      "inputs": [],
      "name": "depositWei",
      "outputs": [],
      "payable": true,
      "stateMutability": "payable",
      "type": "function"
    },
    {
      "constant": false,
      "inputs": [
        {
          "name": "user",
          "type": "address"
        }
      ],
      "name": "depositWeiUser",
      "outputs": [],
      "payable": true,
      "stateMutability": "payable",
      "type": "function"
    },
    {
      "constant": false,
      "inputs": [
        {
          "name": "tokenId",
          "type": "uint256"
        },
        {
          "name": "_newPrice",
          "type": "uint256"
        }
      ],
      "name": "buy",
      "outputs": [],
      "payable": true,
      "stateMutability": "payable",
      "type": "function"
    },
    {
      "constant": false,
      "inputs": [
        {
          "name": "tokenId",
          "type": "uint256"
        },
        {
          "name": "_newPrice",
          "type": "uint256"
        }
      ],
      "name": "changePrice",
      "outputs": [],
      "payable": false,
      "stateMutability": "nonpayable",
      "type": "function"
    },
    {
      "constant": false,
      "inputs": [
        {
          "name": "_wei",
          "type": "uint256"
        }
      ],
      "name": "withdrawDeposit",
      "outputs": [
        {
          "name": "",
          "type": "uint256"
        }
      ],
      "payable": false,
      "stateMutability": "nonpayable",
      "type": "function"
    },
    {
      "constant": false,
      "inputs": [],
      "name": "withdrawOrganizationFunds",
      "outputs": [],
      "payable": false,
      "stateMutability": "nonpayable",
      "type": "function"
    },
    {
      "constant": false,
      "inputs": [
        {
          "name": "organization",
          "type": "address"
        }
      ],
      "name": "withdrawOrganizationFundsTo",
      "outputs": [],
      "payable": false,
      "stateMutability": "nonpayable",
      "type": "function"
    },
    {
      "constant": false,
      "inputs": [],
      "name": "exit",
      "outputs": [],
      "payable": false,
      "stateMutability": "nonpayable",
      "type": "function"
    }
  ],
  "bytecode": "0x608060405234801561001057600080fd5b506122b4806100206000396000f3fe608060405260043610610263576000357c0100000000000000000000000000000000000000000000000000000000900480638cb6889911610156578063d9d85b07116100d3578063e9fad8ee11610097578063e9fad8ee14610a73578063ecfe697714610a88578063f340fa0114610abb578063f6e1b95314610aee578063f851a44014610b14578063fb84e7ec14610b2957610263565b8063d9d85b0714610989578063da72c2e4146109bc578063e1c214c6146109f5578063e2e7ec2114610a1f578063e792dd8a14610a4957610263565b8063b3de019c1161011a578063b3de019c146108c4578063b9af132c146108f4578063c331005214610909578063d27a62a714610933578063d6febde81461096657610263565b80638cb68899146107ce5780638de11f94146107f85780638f2839701461082b578063965f6c4f1461085e578063a9909a941461089157610263565b80632b09e013116101e45780634e5676f9116101a85780634e5676f9146106e65780635b2ace6414610719578063603d7ad5146107435780637f1dd4cf1461078f5780638cb3c25f146107a457610263565b80632b09e0131461044a57806333289a461461048357806334d08c9e146104ad5780633e4f49e6146104e05780634b36bf0e1461052e57610263565b80631b2527811161022b5780631b252781146103575780631e8b76ad14610393578063237b5e4f146103bd57806326a49e37146103f65780632a9cdd7a1461042057610263565b806309d0d7ae146102685780630e8f274f146102af5780631083f761146102f557806315488b881461030a5780631794bb3c14610314575b600080fd5b34801561027457600080fd5b5061029b6004803603602081101561028b57600080fd5b5035600160a060020a0316610b53565b604080519115158252519081900360200190f35b3480156102bb57600080fd5b506102d9600480360360208110156102d257600080fd5b5035610b8b565b60408051600160a060020a039092168252519081900360200190f35b34801561030157600080fd5b506102d9610ba6565b610312610bb5565b005b34801561032057600080fd5b506103126004803603606081101561033757600080fd5b50600160a060020a03813581169160208101359091169060400135610bc0565b34801561036357600080fd5b506103816004803603602081101561037a57600080fd5b5035610cac565b60408051918252519081900360200190f35b34801561039f57600080fd5b5061029b600480360360208110156103b657600080fd5b5035610cbe565b3480156103c957600080fd5b50610381600480360360408110156103e057600080fd5b5080359060200135600160a060020a0316610ce6565b34801561040257600080fd5b506103816004803603602081101561041957600080fd5b5035610d03565b34801561042c57600080fd5b506103816004803603602081101561044357600080fd5b5035610d15565b34801561045657600080fd5b5061029b6004803603604081101561046d57600080fd5b5080359060200135600160a060020a0316610d9a565b34801561048f57600080fd5b50610381600480360360208110156104a657600080fd5b5035610dba565b3480156104b957600080fd5b50610381600480360360208110156104d057600080fd5b5035600160a060020a0316610dd5565b3480156104ec57600080fd5b5061050a6004803603602081101561050357600080fd5b5035610de7565b6040518082600181111561051a57fe5b60ff16815260200191505060405180910390f35b34801561053a57600080fd5b506103126004803603606081101561055157600080fd5b81019060208101813564010000000081111561056c57600080fd5b82018360208201111561057e57600080fd5b803590602001918460208302840111640100000000831117156105a057600080fd5b91908080602002602001604051908101604052809392919081815260200183836020028082843760009201919091525092959493602081019350359150506401000000008111156105f057600080fd5b82018360208201111561060257600080fd5b8035906020019184602083028401116401000000008311171561062457600080fd5b919080806020026020016040519081016040528093929190818152602001838360200280828437600092019190915250929594936020810193503591505064010000000081111561067457600080fd5b82018360208201111561068657600080fd5b803590602001918460208302840111640100000000831117156106a857600080fd5b919080806020026020016040519081016040528093929190818152602001838360200280828437600092019190915250929550610dfc945050505050565b3480156106f257600080fd5b506103126004803603602081101561070957600080fd5b5035600160a060020a0316610fad565b34801561072557600080fd5b506103816004803603602081101561073c57600080fd5b5035611076565b34801561074f57600080fd5b506107766004803603602081101561076657600080fd5b5035600160a060020a0316611088565b6040805192835260208301919091528051918290030190f35b34801561079b57600080fd5b5061031261109d565b3480156107b057600080fd5b50610776600480360360208110156107c757600080fd5b50356110a6565b3480156107da57600080fd5b50610381600480360360208110156107f157600080fd5b50356110b2565b34801561080457600080fd5b506103816004803603602081101561081b57600080fd5b5035600160a060020a03166110c4565b34801561083757600080fd5b506103126004803603602081101561084e57600080fd5b5035600160a060020a03166110d6565b34801561086a57600080fd5b506103816004803603602081101561088157600080fd5b5035600160a060020a0316611167565b34801561089d57600080fd5b50610312600480360360208110156108b457600080fd5b5035600160a060020a03166111d1565b3480156108d057600080fd5b50610312600480360360408110156108e757600080fd5b50803590602001356112d3565b34801561090057600080fd5b506103816114d4565b34801561091557600080fd5b506103816004803603602081101561092c57600080fd5b50356114da565b34801561093f57600080fd5b506103816004803603602081101561095657600080fd5b5035600160a060020a03166114ec565b6103126004803603604081101561097c57600080fd5b5080359060200135611544565b34801561099557600080fd5b50610381600480360360208110156109ac57600080fd5b5035600160a060020a031661181c565b3480156109c857600080fd5b50610312600480360360408110156109df57600080fd5b5080359060200135600160a060020a0316611885565b348015610a0157600080fd5b5061038160048036036020811015610a1857600080fd5b503561194e565b348015610a2b57600080fd5b5061038160048036036020811015610a4257600080fd5b503561196f565b348015610a5557600080fd5b506102d960048036036020811015610a6c57600080fd5b5035611981565b348015610a7f57600080fd5b5061031261199c565b348015610a9457600080fd5b5061038160048036036020811015610aab57600080fd5b5035600160a060020a03166119c2565b348015610ac757600080fd5b5061038160048036036020811015610ade57600080fd5b5035600160a060020a03166119d4565b61031260048036036020811015610b0457600080fd5b5035600160a060020a03166119e6565b348015610b2057600080fd5b506102d9611a99565b348015610b3557600080fd5b5061031260048036036020811015610b4c57600080fd5b5035611aa8565b600160a060020a038116600090815260396020526040812054610b7583611167565b10610b8257506001610b86565b5060005b919050565b603d60205260009081526040902054600160a060020a031681565b603454600160a060020a031681565b610bbe336119e6565b565b600054610100900460ff1680610bd95750610bd9611dc2565b80610be7575060005460ff16155b1515610c275760405160e560020a62461bcd02815260040180806020018281038252602e81526020018061225b602e913960400191505060405180910390fd5b600054610100900460ff16158015610c52576000805460ff1961ff0019909116610100171660011790555b60348054600160a060020a0380871673ffffffffffffffffffffffffffffffffffffffff1992831617909255604480549286169290911691909117905560428290558015610ca6576000805461ff00191690555b50505050565b60366020526000908152604090205481565b6000818152603d6020526040812054600160a060020a0316610cdf81610b53565b9392505050565b603f60209081526000928352604080842090915290825290205481565b60336020526000908152604090205481565b600081815260416020908152604080832054604254603790935290832054909190610d92906301e1338090610d8690849082908790610d7a90610d5f90429063ffffffff611dc816565b60008c8152603360205260409020549063ffffffff611ddd16565b9063ffffffff611ddd16565b9063ffffffff611e0816565b949350505050565b603e60209081526000928352604080842090915290825290205460ff1681565b600033610dc6816111d1565b610dcf83611e2c565b50919050565b603c6020526000908152604090205481565b60436020526000908152604090205460ff1681565b604454600160a060020a03163314610e5e576040805160e560020a62461bcd02815260206004820152600960248201527f4e6f742061646d696e0000000000000000000000000000000000000000000000604482015290519081900360640190fd5b8151835114610e6957fe5b60005b83518160ff161015610ca6578251600090849060ff8416908110610e8c57fe5b60209081029091010151600160a060020a03161415610ea757fe5b828160ff16815181101515610eb857fe5b90602001906020020151603b6000868460ff16815181101515610ed757fe5b90602001906020020151815260200190815260200160002060006101000a815481600160a060020a030219169083600160a060020a03160217905550600060436000868460ff16815181101515610f2a57fe5b60209081029091018101518252810191909152604001600020805460ff191660018381811115610f5657fe5b0217905550818160ff16815181101515610f6c57fe5b9060200190602002015160416000868460ff16815181101515610f8b57fe5b6020908102909101810151825281019190915260400160002055600101610e6c565b600160a060020a0381166000908152603c60205260408120541161101b576040805160e560020a62461bcd02815260206004820152601260248201527f4e6f2066756e647320617661696c61626c650000000000000000000000000000604482015290519081900360640190fd5b600160a060020a0381166000818152603c602052604080822054905181156108fc0292818181858888f1935050505015801561105b573d6000803e3d6000fd5b50600160a060020a03166000908152603c6020526040812055565b60406020819052600091825290205481565b60008061109483611167565b93429350915050565b610bbe33610fad565b60008061109483610d15565b60376020526000908152604090205481565b60386020526000908152604090205481565b604454600160a060020a03163314611138576040805160e560020a62461bcd02815260206004820152600960248201527f4e6f742061646d696e0000000000000000000000000000000000000000000000604482015290519081900360640190fd5b6044805473ffffffffffffffffffffffffffffffffffffffff1916600160a060020a0392909216919091179055565b604254600160a060020a03821660009081526038602052604081205490916111cb916301e1338091610d869182906111a690429063ffffffff611dc816565b600160a060020a0388166000908152603a60205260409020549063ffffffff611ddd16565b92915050565b60006111dc82611167565b600160a060020a038316600090815260396020526040902054909150811061127f57600160a060020a038216600090815260386020908152604080832054603990925282205490919061125090611243908590610d8690610d7a428863ffffffff611dc816565b839063ffffffff611ef116565b600160a060020a0385166000908152603860209081526040808320939093556039905290812055506112cf9050565b600160a060020a038216600090815260386020908152604080832042905560399091529020546112b5908263ffffffff611dc816565b600160a060020a0383166000908152603960205260409020555b5050565b603454604080517f6352211e0000000000000000000000000000000000000000000000000000000081526004810185905290518492600160a060020a031691636352211e916024808301926020929190829003018186803b15801561133757600080fd5b505afa15801561134b573d6000803e3d6000fd5b505050506040513d602081101561136157600080fd5b5051600160a060020a031633146113c2576040805160e560020a62461bcd02815260206004820152600a60248201527f4e6f7420706174726f6e00000000000000000000000000000000000000000000604482015290519081900360640190fd5b826113cc81611aa8565b60008481526043602052604081205460ff1660018111156113e957fe5b141561143f576040805160e560020a62461bcd02815260206004820152600a60248201527f466f7265636c6f73656400000000000000000000000000000000000000000000604482015290519081900360640190fd5b821515611496576040805160e560020a62461bcd02815260206004820152600f60248201527f496e636f72726563742050726963650000000000000000000000000000000000604482015290519081900360640190fd5b6000848152603360205260408082208590555184917f854d6511a28585103049c7770618450f7c9aeb580c69db2913d63869663f475191a250505050565b60425481565b60356020526000908152604090205481565b604254600160a060020a0382166000908152603a602052604081205490918291611525916301e1338091610d869163ffffffff611e0816565b9050610cdf61153782610d868661181c565b429063ffffffff611ef116565b8161154e81611aa8565b600082116115a6576040805160e560020a62461bcd02815260206004820152600d60248201527f5072696365206973207a65726f00000000000000000000000000000000000000604482015290519081900360640190fd5b600083815260336020526040902054341161160b576040805160e560020a62461bcd02815260206004820152600a60248201527f4e6f7420656e6f75676800000000000000000000000000000000000000000000604482015290519081900360640190fd5b603454604080517f6352211e000000000000000000000000000000000000000000000000000000008152600481018690529051600092600160a060020a031691636352211e916024808301926020929190829003018186803b15801561167057600080fd5b505afa158015611684573d6000803e3d6000fd5b505050506040513d602081101561169a57600080fd5b50516000858152603d6020526040902054909150600160a060020a0316600160008681526043602052604090205460ff1660018111156116d657fe5b141561174d5760008581526033602052604080822054905190918391600160a060020a0383169184156108fc02918591818181858888f19350505050158015611723573d6000803e3d6000fd5b505050600085815260376020908152604080832042908190553384526038909252909120556117a5565b60008581526043602052604081205460ff16600181111561176a57fe5b14156117a5576000858152604360209081526040808320805460ff191660011790556037825280832042908190553384526038909252909120555b6000858152603360205260409020546117c590349063ffffffff611dc816565b336000818152603960205260409020919091556117e89086908490849088611f03565b604051849033907f4f79409f494e81c38036d80aa8a6507c2cb08d90bfb2fead5519447646b3497e90600090a35050505050565b60008061182883611167565b600160a060020a0384166000908152603960205260409020549091508110611854576000915050610b86565b600160a060020a03831660009081526039602052604090205461187d908263ffffffff611dc816565b915050610b86565b6000828152603b60205260409020548290600160a060020a031633146118f5576040805160e560020a62461bcd02815260206004820152601060248201527f4e6f74206f7267616e697a6174696f6e00000000000000000000000000000000604482015290519081900360640190fd5b506000918252603b602090815260408084208054600160a060020a0390941673ffffffffffffffffffffffffffffffffffffffff199094168417905533808552603c909252808420805493855290842092909255825255565b6000818152603d6020526040812054600160a060020a0316610cdf816114ec565b60416020526000908152604090205481565b603b60205260009081526040902054600160a060020a031681565b336119a6816111d1565b336000908152603960205260409020546119bf90611e2c565b50565b603a6020526000908152604090205481565b60396020526000908152604090205481565b600160a060020a0381166000908152603a602052604081205411611a54576040805160e560020a62461bcd02815260206004820152600f60248201527f4e6f20746f6b656e73206f776e65640000000000000000000000000000000000604482015290519081900360640190fd5b600160a060020a038116600090815260396020526040902054611a7d903463ffffffff611ef116565b600160a060020a03909116600090815260396020526040902055565b604454600160a060020a031681565b600160008281526043602052604090205460ff166001811115611ac757fe5b14156119bf576000818152603d60209081526040808320546037909252822054600160a060020a0390911691611afc83611167565b600160a060020a038416600090815260396020526040812054919250908210611c2b57600160a060020a0384166000908152603960209081526040808320546038909252822054611b8791611b62918691610d8691610d7a90429063ffffffff611dc816565b600160a060020a0387166000908152603860205260409020549063ffffffff611ef116565b6000878152603760209081526040808320849055600160a060020a0389168352603882528083208490556042548a8452604190925290912054919250611c01916301e1338091610d86918290610d7a611be6888c63ffffffff611dc816565b60008e8152603360205260409020549063ffffffff611ddd16565b600160a060020a0386166000908152603960205260408120559150611c2586612142565b50611d15565b604254600086815260416020526040902054611c7c916301e1338091610d8691908290610d7a611c61428b63ffffffff611dc816565b60008d8152603360205260409020549063ffffffff611ddd16565b60008681526037602090815260408083204290819055600160a060020a038916845260388352818420558883526036909152902054909150611cc4908263ffffffff611ef116565b600086815260366020908152604080832093909355600160a060020a0387168252603990522054611cfb908363ffffffff611dc816565b600160a060020a0385166000908152603960205260409020555b600085815260356020526040902054611d34908263ffffffff611ef116565b600086815260356020908152604080832093909355603b815282822054600160a060020a0316808352603c90915291902054611d76908363ffffffff611ef116565b600160a060020a0382166000908152603c602052604080822092909255905183917f54acb82a9e70d7c289b149758d23167c915428ae854a7aa4abe5bf2f4ef29f3691a2505050505050565b303b1590565b600082821115611dd757600080fd5b50900390565b6000821515611dee575060006111cb565b828202828482811515611dfd57fe5b0414610cdf57600080fd5b6000808211611e1657600080fd5b60008284811515611e2357fe5b04949350505050565b33600090815260396020526040902054811115611e93576040805160e560020a62461bcd02815260206004820152601460248201527f5769746864726177696e6720746f6f206d756368000000000000000000000000604482015290519081900360640190fd5b33600090815260396020526040902054611eb3908263ffffffff611dc816565b33600081815260396020526040808220939093559151909183156108fc02918491818181858888f193505050501580156112cf573d6000803e3d6000fd5b600082820183811015610cdf57600080fd5b600085815260416020526040902054611f4c90611f2790839063ffffffff611ddd16565b600160a060020a0384166000908152603a60205260409020549063ffffffff611ef116565b600160a060020a0383166000908152603a60209081526040808320939093558782526041815282822054603390915291902054611fb891611f93919063ffffffff611ddd16565b600160a060020a0385166000908152603a60205260409020549063ffffffff611dc816565b600160a060020a0384166000908152603a60209081526040808320939093558782528281528282205460379091529190205461202d91611ffe919063ffffffff611dc816565b6000878152603f60209081526040808320600160a060020a03891684529091529020549063ffffffff611ef116565b6000868152603f60209081526040808320600160a060020a03808916855292528083209390935560345483517f23b872dd00000000000000000000000000000000000000000000000000000000815288831660048201528683166024820152604481018a905293519116926323b872dd92606480830193919282900301818387803b1580156120bb57600080fd5b505af11580156120cf573d6000803e3d6000fd5b505050600095865250603d602090815260408087208054600160a060020a0390951673ffffffffffffffffffffffffffffffffffffffff19909516851790556033825280872092909255818152818620429055603e815281862092865291909152909220805460ff191660011790555050565b603454604080517f6352211e000000000000000000000000000000000000000000000000000000008152600481018490529051600092600160a060020a031691636352211e916024808301926020929190829003018186803b1580156121a757600080fd5b505afa1580156121bb573d6000803e3d6000fd5b505050506040513d60208110156121d157600080fd5b50516000838152603d6020526040812054919250600160a060020a0390911690612202908490849084903090611f03565b6000838152604360209081526040808320805460ff19169055603690915280822082905551600160a060020a038416917f6d6bbefef62d4cb6d0e3a4dd306a71d3632319b1e03659513df86b247dd657fe91a250505056fe436f6e747261637420696e7374616e63652068617320616c7265616479206265656e20696e697469616c697a6564a165627a7a723058203ec9b7c18cf65d689c6eda4d6943348ac597b9f9fb54c675cf2450478270b8fa0029",
  "source": "pragma solidity ^0.5.0;\nimport \"./ERC721Patronage_v0.sol\";\n\ncontract WildcardSteward_v0 is Initializable {\n\n    /*\n    This smart contract collects patronage from current owner through a Harberger tax model and \n    takes stewardship of the asset token if the patron can't pay anymore.\n\n    Harberger Tax (COST): \n    - Asset is always on sale.\n    - You have to have a price set.\n    - Tax (Patronage) is paid to maintain ownership.\n    - Steward maints control over ERC721.\n    */\n    using SafeMath for uint256;\n\n    mapping(uint256 => uint256) public price; //in wei\n    ERC721Patronage_v0 public assetToken; // ERC721 NFT.\n\n    mapping(uint256 => uint256) public totalCollected; // all patronage ever collected\n    mapping(uint256 => uint256) public currentCollected; // amount currently collected for patron\n    mapping(uint256 => uint256) public timeLastCollected;\n    mapping(address => uint256) public timeLastCollectedUser;\n    mapping(address => uint256) public deposit;\n    mapping(address => uint256) public totalUserOwnedTokenCost;\n\n    mapping(uint256 => address payable) public organizations; // non-profit organization\n    mapping(address => uint256) public organizationFunds;\n\n    mapping(uint256 => address) public currentPatron; // This is different to the current token owner.\n    mapping(uint256 => mapping (address => bool)) public patrons;\n    mapping(uint256 => mapping (address => uint256)) public timeHeld;\n\n    mapping(uint256 => uint256) public timeAcquired;\n\n    // 1200% patronage\n    mapping(uint256 => uint256) public patronageNumerator;\n    uint256 public patronageDenominator;\n\n    enum StewardState { Foreclosed, Owned }\n    mapping(uint256 => StewardState) public state;\n\n    address public admin;\n\n    event LogBuy(address indexed owner, uint256 indexed price);\n    event LogPriceChange(uint256 indexed newPrice);\n    event LogForeclosure(address indexed prevOwner);\n    event LogCollection(uint256 indexed collected);\n\n    modifier onlyPatron(uint256 tokenId) {\n        require(msg.sender == assetToken.ownerOf(tokenId), \"Not patron\");\n        _;\n    }\n\n    modifier onlyReceivingOrganization(uint256 tokenId) {\n        require(msg.sender == organizations[tokenId], \"Not organization\");\n        _;\n    }\n    modifier onlyAdmin() {\n        require(msg.sender == admin, \"Not admin\");\n        _;\n    }\n\n    modifier collectPatronage(uint256 tokenId) {\n       _collectPatronage(tokenId);\n       _;\n    }\n\n    modifier collectPatronageAddress(address tokenHolder) {\n       _collectPatronageUser(tokenHolder);\n       _;\n    }\n\n    function initialize(address _assetToken, address _admin, uint256 _patronageDenominator) public initializer {\n        assetToken = ERC721Patronage_v0(_assetToken);\n        admin = _admin;\n        patronageDenominator = _patronageDenominator;\n    }\n\n    // TODO:: add validation that the token that is complient with the \"PatronageToken\" ERC721 interface extension somehow!\n    function listNewTokens(uint256[] memory tokens, address payable[] memory _organizations, uint256[] memory _patronageNumerator) public onlyAdmin {\n        assert(tokens.length == _organizations.length);\n        for (uint8 i = 0; i < tokens.length; ++i){\n            assert(_organizations[i]!=address(0));\n            organizations[tokens[i]] = _organizations[i];\n            state[tokens[i]] = StewardState.Foreclosed;\n            patronageNumerator[tokens[i]] = _patronageNumerator[i];\n        }\n    }\n\n    function changeReceivingOrganization(uint256 tokenId, address payable _newReceivingOrganization) public onlyReceivingOrganization(tokenId) {\n        organizations[tokenId] = _newReceivingOrganization;\n        organizationFunds[_newReceivingOrganization] = organizationFunds[msg.sender];\n        organizationFunds[msg.sender] = 0;\n    }\n\n    function changeAdmin(address _admin) public onlyAdmin {\n        admin = _admin;\n    }\n\n    /* public view functions */\n    function patronageOwed(uint256 tokenId) public view returns (uint256 patronageDue) {\n        uint256 tokenPatronageNumerator = patronageNumerator[tokenId];\n        uint256 patronageDenominator = patronageDenominator;\n        return price[tokenId].mul(now.sub(timeLastCollected[tokenId])).mul(tokenPatronageNumerator)\n          .div(patronageDenominator).div(365 days);\n    }\n\n    function patronageOwedWithTimestamp(uint256 tokenId) public view returns (uint256 patronageDue, uint256 timestamp) {\n        return (patronageOwed(tokenId), now);\n    }\n\n    // TODO: make a version of this function that is for patronage owed by token rather than by tokenHolder like it is now.\n    function patronageOwedUser(address tokenHolder) public view returns (uint256 patronageDue) {\n        // NOTE/TODO: to cater to different patronage rates, we should include it in the `totalUserOwnedTokenCost` (and probably rename that variable)\n        return totalUserOwnedTokenCost[tokenHolder].mul(now.sub(timeLastCollectedUser[tokenHolder]))\n          .div(patronageDenominator).div(365 days);\n    }\n\n    function patronageOwedUserWithTimestamp(address tokenHolder) public view returns (uint256 patronageDue, uint256 timestamp) {\n        return (patronageOwedUser(tokenHolder), now);\n    }\n\n    function foreclosedUser(address tokenHolder) public view returns (bool) {\n        // returns whether it is in foreclosed state or not\n        // depending on whether deposit covers patronage due\n        // useful helper function when price should be zero, but contract doesn't reflect it yet.\n        if (patronageOwedUser(tokenHolder) >= deposit[tokenHolder]) { // TODO: this condition is wrong\n            return true;\n        } else {\n            return false;\n        }\n    }\n\n    function foreclosed(uint256 tokenId) public view returns (bool) {\n        // returns whether it is in foreclosed state or not\n        // depending on whether deposit covers patronage due\n        // useful helper function when price should be zero, but contract doesn't reflect it yet.\n        address tokenHolder = currentPatron[tokenId];\n        return foreclosedUser(tokenHolder);\n    }\n\n    // same function as above, basically\n    function depositAbleToWithdraw(address tokenHolder) public view returns (uint256) {\n        uint256 collection = patronageOwedUser(tokenHolder);\n        if(collection >= deposit[tokenHolder]) {\n            return 0;\n        } else {\n            return deposit[tokenHolder].sub(collection);\n        }\n    }\n\n    /*\n    now + deposit/patronage per second \n    now + depositAbleToWithdraw/(price*nume/denom/365).\n    */\n    function foreclosureTimeUser(address tokenHolder) public view returns (uint256) {\n        // patronage per second\n        uint256 pps = totalUserOwnedTokenCost[tokenHolder].div(patronageDenominator).div(365 days);\n        return now.add(depositAbleToWithdraw(tokenHolder).div(pps)); // zero division if price is zero.\n    }\n    function foreclosureTime(uint256 tokenId) public view returns (uint256) {\n        address tokenHolder = currentPatron[tokenId];\n        return foreclosureTimeUser(tokenHolder);\n    }\n\n    /* actions */\n    // TODO:: think of more efficient ways for recipients to collect patronage for lots of tokens at the same time.\n    function _collectPatronage(uint256 tokenId) public {\n        // determine patronage to pay\n        if (state[tokenId] == StewardState.Owned) {\n            address tokenHolder = currentPatron[tokenId];\n            uint256 previousTokenCollection = timeLastCollected[tokenId]; \n            uint256 patronageOwedByTokenOwner = patronageOwedUser(tokenHolder);\n            uint256 collection;\n\n            // should foreclose and stake stewardship\n            if (patronageOwedByTokenOwner >= deposit[tokenHolder]) {\n                // up to when was it actually paid for?\n                uint256 newTimeLastCollected = timeLastCollectedUser[tokenHolder].add(((now.sub(timeLastCollectedUser[tokenHolder])).mul(deposit[tokenHolder]).div(patronageOwedByTokenOwner)));\n                timeLastCollected[tokenId] = newTimeLastCollected;\n                timeLastCollectedUser[tokenHolder] = newTimeLastCollected;\n                collection = price[tokenId].mul(newTimeLastCollected.sub(previousTokenCollection)).mul(patronageNumerator[tokenId]).div(patronageDenominator).div(365 days);\n\n                deposit[tokenHolder] = 0;\n                _foreclose(tokenId);\n            } else  {\n                // just a normal collection\n                  collection = price[tokenId].mul(now.sub(previousTokenCollection)).mul(patronageNumerator[tokenId]).div(patronageDenominator).div(365 days);\n                timeLastCollected[tokenId] = now;\n                timeLastCollectedUser[tokenHolder] = now;\n                currentCollected[tokenId] = currentCollected[tokenId].add(collection);\n                deposit[tokenHolder] = deposit[tokenHolder].sub(patronageOwedByTokenOwner);\n            }\n            totalCollected[tokenId] = totalCollected[tokenId].add(collection);\n            address organization = organizations[tokenId];\n            organizationFunds[organization] = organizationFunds[organization].add(collection);\n            emit LogCollection(collection);\n        }\n    }\n    // This does accounting without transfering any tokens\n    function _collectPatronageUser(address tokenHolder) public {\n        uint256 patronageOwedByTokenOwner = patronageOwedUser(tokenHolder);\n        if (patronageOwedByTokenOwner >= deposit[tokenHolder]) {\n            uint256 previousCollectionTime = timeLastCollectedUser[tokenHolder];\n            // up to when was it actually paid for?\n            uint256 newTimeLastCollected = previousCollectionTime.add(((now.sub(previousCollectionTime)).mul(deposit[tokenHolder]).div(patronageOwedByTokenOwner)));\n            timeLastCollectedUser[tokenHolder] = newTimeLastCollected;\n            deposit[tokenHolder] = 0;\n        } else  {\n            timeLastCollectedUser[tokenHolder] = now;\n            deposit[tokenHolder] = deposit[tokenHolder].sub(patronageOwedByTokenOwner);\n        }\n\n        // TODO: this should log a different kind of event, since this isn't transfering any tokens.\n        // emit LogCollection(collection);\n    }\n\n    // note: anyone can deposit\n    function depositWei() public payable {\n      depositWeiUser(msg.sender);\n    }\n    function depositWeiUser(address user) public payable {\n        require(totalUserOwnedTokenCost[user] > 0, \"No tokens owned\");\n        deposit[user] = deposit[user].add(msg.value);\n    }\n\n    function buy(uint256 tokenId, uint256 _newPrice) public payable collectPatronage(tokenId) {\n        require(_newPrice > 0, \"Price is zero\");\n        require(msg.value > price[tokenId], \"Not enough\"); // >, coz need to have at least something for deposit\n        address currentOwner = assetToken.ownerOf(tokenId);\n        address currentPatron = currentPatron[tokenId];\n\n        if (state[tokenId] == StewardState.Owned) {\n            uint256 totalToPayBack = price[tokenId];\n            // TODO: Don't pay back deposit if user has other tokens.\n            //       Think exactly what to do in this situation.\n            // if(deposit[tokenId] > 0) {\n            //     totalToPayBack = totalToPayBack.add(deposit[tokenId]);\n            // }\n\n            // pay previous owner their price + deposit back.\n            address payable payableCurrentOwner = address(uint160(currentPatron));\n            payableCurrentOwner.transfer(totalToPayBack);\n            timeLastCollected[tokenId] = now;\n            timeLastCollectedUser[msg.sender] = now;\n        } else if(state[tokenId] == StewardState.Foreclosed) {\n            state[tokenId] = StewardState.Owned;\n            timeLastCollected[tokenId] = now;\n            timeLastCollectedUser[msg.sender] = now;\n        }\n\n        deposit[msg.sender] = msg.value.sub(price[tokenId]);\n        transferAssetTokenTo(tokenId, currentOwner, currentPatron, msg.sender, _newPrice);\n        emit LogBuy(msg.sender, _newPrice);\n    }\n\n    function changePrice(uint256 tokenId, uint256 _newPrice) public onlyPatron(tokenId) collectPatronage(tokenId) {\n        require(state[tokenId] != StewardState.Foreclosed, \"Foreclosed\");\n        require(_newPrice != 0, \"Incorrect Price\");\n\n        price[tokenId] = _newPrice;\n        emit LogPriceChange(price[tokenId]);\n    }\n\n    function withdrawDeposit(uint256 _wei) public collectPatronageAddress(msg.sender) returns (uint256) {\n        _withdrawDeposit(_wei);\n    }\n\n    function withdrawOrganizationFunds() public {\n        withdrawOrganizationFundsTo(msg.sender);\n    }\n\n    function withdrawOrganizationFundsTo(address payable organization) public {\n        require(organizationFunds[organization] > 0, \"No funds available\");\n        organization.transfer(organizationFunds[organization]);\n        organizationFunds[organization] = 0;\n    }\n\n    function exit() public collectPatronageAddress(msg.sender) {\n        _withdrawDeposit(deposit[msg.sender]);\n    }\n\n    /* internal */\n    function _withdrawDeposit(uint256 _wei) internal {\n        // note: can withdraw whole deposit, which puts it in immediate to be foreclosed state.\n        require(deposit[msg.sender] >= _wei, 'Withdrawing too much');\n\n        deposit[msg.sender] = deposit[msg.sender].sub(_wei);\n        msg.sender.transfer(_wei); // msg.sender == patron\n    }\n\n    function _foreclose(uint256 tokenId) internal {\n        // become steward of assetToken (aka foreclose)\n        address currentOwner = assetToken.ownerOf(tokenId);\n        address currentPatron = currentPatron[tokenId];\n        transferAssetTokenTo(tokenId, currentOwner, currentPatron, address(this), 0);\n        state[tokenId] = StewardState.Foreclosed;\n        currentCollected[tokenId] = 0;\n\n        emit LogForeclosure(currentOwner);\n    }\n\n    function transferAssetTokenTo(uint256 tokenId, address _currentOwner, address _currentPatron, address _newOwner, uint256 _newPrice) internal {\n        // TODO: add the patronage rate as a multiplier here: https://github.com/wild-cards/contracts/issues/7\n        totalUserOwnedTokenCost[_newOwner] = totalUserOwnedTokenCost[_newOwner].add(_newPrice.mul(patronageNumerator[tokenId]));\n        totalUserOwnedTokenCost[_currentPatron] = totalUserOwnedTokenCost[_currentPatron].sub(price[tokenId].mul(patronageNumerator[tokenId]));\n\n        // note: it would also tabulate time held in stewardship by smart contract\n        timeHeld[tokenId][_currentPatron] = timeHeld[tokenId][_currentPatron].add((timeLastCollected[tokenId].sub(timeAcquired[tokenId])));\n\n        assetToken.transferFrom(_currentOwner, _newOwner, tokenId);\n\n        currentPatron[tokenId] = _newOwner;\n\n        price[tokenId] = _newPrice;\n        timeAcquired[tokenId] = now;\n        patrons[tokenId][_newOwner] = true;\n    }\n}\n",
  "sourcePath": "/home/jasoons/Documents/clean-code/contracts/contracts/WildcardSteward_v0.sol",
  "compiler": {
    "name": "solc",
    "version": "0.5.4+commit.9549d8ff.Emscripten.clang"
  },
  "schemaVersion": "3.0.16",
  "updatedAt": "2019-10-07T19:23:35.332Z",
  "devdoc": {
    "methods": {}
  },
  "userdoc": {
    "methods": {}
  }
}